{"abi":[{"inputs":[{"internalType":"address","name":"_orgao","type":"address"},{"internalType":"uint256","name":"_dataEntregaPropostas","type":"uint256"},{"internalType":"uint256","name":"_dataAberturaPropostas","type":"uint256"},{"internalType":"string","name":"_identificacao","type":"string"},{"internalType":"string","name":"_processo","type":"string"},{"components":[{"internalType":"string","name":"descricao","type":"string"},{"internalType":"string","name":"compl","type":"string"},{"internalType":"uint16","name":"quantidade","type":"uint16"}],"internalType":"struct Item","name":"_item","type":"tuple"}],"stateMutability":"nonpayable","type":"constructor"},{"inputs":[],"name":"abrirPropostas","outputs":[],"stateMutability":"nonpayable","type":"function"},{"inputs":[],"name":"dataAberturaPropostas","outputs":[{"internalType":"uint256","name":"","type":"uint256"}],"stateMutability":"view","type":"function"},{"inputs":[],"name":"dataEntregaPropostas","outputs":[{"internalType":"uint256","name":"","type":"uint256"}],"stateMutability":"view","type":"function"},{"inputs":[],"name":"dataPublicacao","outputs":[{"internalType":"uint256","name":"","type":"uint256"}],"stateMutability":"view","type":"function"},{"inputs":[],"name":"getInfo","outputs":[{"internalType":"uint256","name":"","type":"uint256"},{"internalType":"uint256","name":"","type":"uint256"},{"internalType":"uint256","name":"","type":"uint256"},{"internalType":"address","name":"","type":"address"},{"internalType":"string","name":"","type":"string"},{"internalType":"string","name":"","type":"string"},{"components":[{"internalType":"string","name":"descricao","type":"string"},{"internalType":"string","name":"compl","type":"string"},{"internalType":"uint16","name":"quantidade","type":"uint16"}],"internalType":"struct Item","name":"","type":"tuple"},{"internalType":"uint256","name":"","type":"uint256"},{"internalType":"address","name":"","type":"address"}],"stateMutability":"view","type":"function"},{"inputs":[],"name":"identificacao","outputs":[{"internalType":"string","name":"","type":"string"}],"stateMutability":"view","type":"function"},{"inputs":[],"name":"item","outputs":[{"internalType":"string","name":"descricao","type":"string"},{"internalType":"string","name":"compl","type":"string"},{"internalType":"uint16","name":"quantidade","type":"uint16"}],"stateMutability":"view","type":"function"},{"inputs":[{"internalType":"uint256","name":"","type":"uint256"}],"name":"licitantes","outputs":[{"internalType":"address","name":"endereco","type":"address"},{"internalType":"uint256","name":"valor","type":"uint256"}],"stateMutability":"view","type":"function"},{"inputs":[],"name":"orgao","outputs":[{"internalType":"address","name":"","type":"address"}],"stateMutability":"view","type":"function"},{"inputs":[],"name":"processo","outputs":[{"internalType":"string","name":"","type":"string"}],"stateMutability":"view","type":"function"},{"inputs":[{"internalType":"uint256","name":"_valor","type":"uint256"}],"name":"propor","outputs":[],"stateMutability":"nonpayable","type":"function"},{"inputs":[],"name":"propostasAbertas","outputs":[{"internalType":"bool","name":"","type":"bool"}],"stateMutability":"view","type":"function"},{"inputs":[],"name":"vencedor","outputs":[{"components":[{"internalType":"address","name":"endereco","type":"address"},{"internalType":"uint256","name":"valor","type":"uint256"}],"internalType":"struct Licitacao.Licitante","name":"","type":"tuple"}],"stateMutability":"view","type":"function"}],"devdoc":{"kind":"dev","methods":{},"version":1},"evm":{"assembly":"    /* \"Licitacao.sol\":1771:5907  contract Licitacao {... */\n  mstore(0x40, 0x80)\n    /* \"Licitacao.sol\":2846:3399  constructor(address _orgao,... */\n  callvalue\n  dup1\n  iszero\n  tag_1\n  jumpi\n  0x00\n  dup1\n  revert\ntag_1:\n  pop\n  mload(0x40)\n  sub(codesize, bytecodeSize)\n  dup1\n  bytecodeSize\n  dup4\n  codecopy\n  dup2\n  dup2\n  add\n  0x40\n  mstore\n  dup2\n  add\n  swap1\n  tag_2\n  swap2\n  swap1\n  tag_3\n  jump\t// in\ntag_2:\n    /* \"Licitacao.sol\":3127:3133  _orgao */\n  dup6\n    /* \"Licitacao.sol\":3119:3124  orgao */\n  0x04\n  0x00\n    /* \"Licitacao.sol\":3119:3133  orgao = _orgao */\n  0x0100\n  exp\n  dup2\n  sload\n  dup2\n  0xffffffffffffffffffffffffffffffffffffffff\n  mul\n  not\n  and\n  swap1\n  dup4\n  0xffffffffffffffffffffffffffffffffffffffff\n  and\n  mul\n  or\n  swap1\n  sstore\n  pop\n    /* \"Licitacao.sol\":3160:3174  _identificacao */\n  dup3\n    /* \"Licitacao.sol\":3144:3157  identificacao */\n  0x05\n    /* \"Licitacao.sol\":3144:3174  identificacao = _identificacao */\n  swap1\n  dup2\n  tag_6\n  swap2\n  swap1\n  tag_7\n  jump\t// in\ntag_6:\n  pop\n    /* \"Licitacao.sol\":3196:3205  _processo */\n  dup2\n    /* \"Licitacao.sol\":3185:3193  processo */\n  0x06\n    /* \"Licitacao.sol\":3185:3205  processo = _processo */\n  swap1\n  dup2\n  tag_8\n  swap2\n  swap1\n  tag_7\n  jump\t// in\ntag_8:\n  pop\n    /* \"Licitacao.sol\":3240:3262  _dataAberturaPropostas */\n  dup4\n    /* \"Licitacao.sol\":3216:3237  dataAberturaPropostas */\n  0x03\n    /* \"Licitacao.sol\":3216:3262  dataAberturaPropostas = _dataAberturaPropostas */\n  dup2\n  swap1\n  sstore\n  pop\n    /* \"Licitacao.sol\":3296:3317  _dataEntregaPropostas */\n  dup5\n    /* \"Licitacao.sol\":3273:3293  dataEntregaPropostas */\n  0x02\n    /* \"Licitacao.sol\":3273:3317  dataEntregaPropostas = _dataEntregaPropostas */\n  dup2\n  swap1\n  sstore\n  pop\n    /* \"Licitacao.sol\":3343:3348  _item */\n  dup1\n    /* \"Licitacao.sol\":3336:3340  item */\n  0x07\n    /* \"Licitacao.sol\":3336:3348  item = _item */\n  0x00\n  dup3\n  add\n  mload\n  dup2\n  0x00\n  add\n  swap1\n  dup2\n  tag_9\n  swap2\n  swap1\n  tag_7\n  jump\t// in\ntag_9:\n  pop\n  0x20\n  dup3\n  add\n  mload\n  dup2\n  0x01\n  add\n  swap1\n  dup2\n  tag_10\n  swap2\n  swap1\n  tag_7\n  jump\t// in\ntag_10:\n  pop\n  0x40\n  dup3\n  add\n  mload\n  dup2\n  0x02\n  add\n  exp(0x0100, 0x00)\n  dup2\n  sload\n  dup2\n  0xffff\n  mul\n  not\n  and\n  swap1\n  dup4\n  0xffff\n  and\n  mul\n  or\n  swap1\n  sstore\n  pop\n  swap1\n  pop\n  pop\n    /* \"Licitacao.sol\":3376:3391  block.timestamp */\n  timestamp\n    /* \"Licitacao.sol\":3359:3373  dataPublicacao */\n  0x01\n    /* \"Licitacao.sol\":3359:3391  dataPublicacao = block.timestamp */\n  dup2\n  swap1\n  sstore\n  pop\n    /* \"Licitacao.sol\":2846:3399  constructor(address _orgao,... */\n  pop\n  pop\n  pop\n  pop\n  pop\n  pop\n    /* \"Licitacao.sol\":1771:5907  contract Licitacao {... */\n  jump(tag_11)\n    /* \"#utility.yul\":7:82   */\ntag_12:\n    /* \"#utility.yul\":40:46   */\n  0x00\n    /* \"#utility.yul\":73:75   */\n  0x40\n    /* \"#utility.yul\":67:76   */\n  mload\n    /* \"#utility.yul\":57:76   */\n  swap1\n  pop\n    /* \"#utility.yul\":7:82   */\n  swap1\n  jump\t// out\n    /* \"#utility.yul\":88:205   */\ntag_13:\n    /* \"#utility.yul\":197:198   */\n  0x00\n    /* \"#utility.yul\":194:195   */\n  dup1\n    /* \"#utility.yul\":187:199   */\n  revert\n    /* \"#utility.yul\":211:328   */\ntag_14:\n    /* \"#utility.yul\":320:321   */\n  0x00\n    /* \"#utility.yul\":317:318   */\n  dup1\n    /* \"#utility.yul\":310:322   */\n  revert\n    /* \"#utility.yul\":334:460   */\ntag_15:\n    /* \"#utility.yul\":371:378   */\n  0x00\n    /* \"#utility.yul\":411:453   */\n  0xffffffffffffffffffffffffffffffffffffffff\n    /* \"#utility.yul\":404:409   */\n  dup3\n    /* \"#utility.yul\":400:454   */\n  and\n    /* \"#utility.yul\":389:454   */\n  swap1\n  pop\n    /* \"#utility.yul\":334:460   */\n  swap2\n  swap1\n  pop\n  jump\t// out\n    /* \"#utility.yul\":466:562   */\ntag_16:\n    /* \"#utility.yul\":503:510   */\n  0x00\n    /* \"#utility.yul\":532:556   */\n  tag_62\n    /* \"#utility.yul\":550:555   */\n  dup3\n    /* \"#utility.yul\":532:556   */\n  tag_15\n  jump\t// in\ntag_62:\n    /* \"#utility.yul\":521:556   */\n  swap1\n  pop\n    /* \"#utility.yul\":466:562   */\n  swap2\n  swap1\n  pop\n  jump\t// out\n    /* \"#utility.yul\":568:690   */\ntag_17:\n    /* \"#utility.yul\":641:665   */\n  tag_64\n    /* \"#utility.yul\":659:664   */\n  dup2\n    /* \"#utility.yul\":641:665   */\n  tag_16\n  jump\t// in\ntag_64:\n    /* \"#utility.yul\":634:639   */\n  dup2\n    /* \"#utility.yul\":631:666   */\n  eq\n    /* \"#utility.yul\":621:684   */\n  tag_65\n  jumpi\n    /* \"#utility.yul\":680:681   */\n  0x00\n    /* \"#utility.yul\":677:678   */\n  dup1\n    /* \"#utility.yul\":670:682   */\n  revert\n    /* \"#utility.yul\":621:684   */\ntag_65:\n    /* \"#utility.yul\":568:690   */\n  pop\n  jump\t// out\n    /* \"#utility.yul\":696:839   */\ntag_18:\n    /* \"#utility.yul\":753:758   */\n  0x00\n    /* \"#utility.yul\":784:790   */\n  dup2\n    /* \"#utility.yul\":778:791   */\n  mload\n    /* \"#utility.yul\":769:791   */\n  swap1\n  pop\n    /* \"#utility.yul\":800:833   */\n  tag_67\n    /* \"#utility.yul\":827:832   */\n  dup2\n    /* \"#utility.yul\":800:833   */\n  tag_17\n  jump\t// in\ntag_67:\n    /* \"#utility.yul\":696:839   */\n  swap3\n  swap2\n  pop\n  pop\n  jump\t// out\n    /* \"#utility.yul\":845:922   */\ntag_19:\n    /* \"#utility.yul\":882:889   */\n  0x00\n    /* \"#utility.yul\":911:916   */\n  dup2\n    /* \"#utility.yul\":900:916   */\n  swap1\n  pop\n    /* \"#utility.yul\":845:922   */\n  swap2\n  swap1\n  pop\n  jump\t// out\n    /* \"#utility.yul\":928:1050   */\ntag_20:\n    /* \"#utility.yul\":1001:1025   */\n  tag_70\n    /* \"#utility.yul\":1019:1024   */\n  dup2\n    /* \"#utility.yul\":1001:1025   */\n  tag_19\n  jump\t// in\ntag_70:\n    /* \"#utility.yul\":994:999   */\n  dup2\n    /* \"#utility.yul\":991:1026   */\n  eq\n    /* \"#utility.yul\":981:1044   */\n  tag_71\n  jumpi\n    /* \"#utility.yul\":1040:1041   */\n  0x00\n    /* \"#utility.yul\":1037:1038   */\n  dup1\n    /* \"#utility.yul\":1030:1042   */\n  revert\n    /* \"#utility.yul\":981:1044   */\ntag_71:\n    /* \"#utility.yul\":928:1050   */\n  pop\n  jump\t// out\n    /* \"#utility.yul\":1056:1199   */\ntag_21:\n    /* \"#utility.yul\":1113:1118   */\n  0x00\n    /* \"#utility.yul\":1144:1150   */\n  dup2\n    /* \"#utility.yul\":1138:1151   */\n  mload\n    /* \"#utility.yul\":1129:1151   */\n  swap1\n  pop\n    /* \"#utility.yul\":1160:1193   */\n  tag_73\n    /* \"#utility.yul\":1187:1192   */\n  dup2\n    /* \"#utility.yul\":1160:1193   */\n  tag_20\n  jump\t// in\ntag_73:\n    /* \"#utility.yul\":1056:1199   */\n  swap3\n  swap2\n  pop\n  pop\n  jump\t// out\n    /* \"#utility.yul\":1205:1322   */\ntag_22:\n    /* \"#utility.yul\":1314:1315   */\n  0x00\n    /* \"#utility.yul\":1311:1312   */\n  dup1\n    /* \"#utility.yul\":1304:1316   */\n  revert\n    /* \"#utility.yul\":1328:1445   */\ntag_23:\n    /* \"#utility.yul\":1437:1438   */\n  0x00\n    /* \"#utility.yul\":1434:1435   */\n  dup1\n    /* \"#utility.yul\":1427:1439   */\n  revert\n    /* \"#utility.yul\":1451:1553   */\ntag_24:\n    /* \"#utility.yul\":1492:1498   */\n  0x00\n    /* \"#utility.yul\":1543:1545   */\n  0x1f\n    /* \"#utility.yul\":1539:1546   */\n  not\n    /* \"#utility.yul\":1534:1536   */\n  0x1f\n    /* \"#utility.yul\":1527:1532   */\n  dup4\n    /* \"#utility.yul\":1523:1537   */\n  add\n    /* \"#utility.yul\":1519:1547   */\n  and\n    /* \"#utility.yul\":1509:1547   */\n  swap1\n  pop\n    /* \"#utility.yul\":1451:1553   */\n  swap2\n  swap1\n  pop\n  jump\t// out\n    /* \"#utility.yul\":1559:1739   */\ntag_25:\n    /* \"#utility.yul\":1607:1684   */\n  0x4e487b7100000000000000000000000000000000000000000000000000000000\n    /* \"#utility.yul\":1604:1605   */\n  0x00\n    /* \"#utility.yul\":1597:1685   */\n  mstore\n    /* \"#utility.yul\":1704:1708   */\n  0x41\n    /* \"#utility.yul\":1701:1702   */\n  0x04\n    /* \"#utility.yul\":1694:1709   */\n  mstore\n    /* \"#utility.yul\":1728:1732   */\n  0x24\n    /* \"#utility.yul\":1725:1726   */\n  0x00\n    /* \"#utility.yul\":1718:1733   */\n  revert\n    /* \"#utility.yul\":1745:2026   */\ntag_26:\n    /* \"#utility.yul\":1828:1855   */\n  tag_79\n    /* \"#utility.yul\":1850:1854   */\n  dup3\n    /* \"#utility.yul\":1828:1855   */\n  tag_24\n  jump\t// in\ntag_79:\n    /* \"#utility.yul\":1820:1826   */\n  dup2\n    /* \"#utility.yul\":1816:1856   */\n  add\n    /* \"#utility.yul\":1958:1964   */\n  dup2\n    /* \"#utility.yul\":1946:1956   */\n  dup2\n    /* \"#utility.yul\":1943:1965   */\n  lt\n    /* \"#utility.yul\":1922:1940   */\n  0xffffffffffffffff\n    /* \"#utility.yul\":1910:1920   */\n  dup3\n    /* \"#utility.yul\":1907:1941   */\n  gt\n    /* \"#utility.yul\":1904:1966   */\n  or\n    /* \"#utility.yul\":1901:1989   */\n  iszero\n  tag_80\n  jumpi\n    /* \"#utility.yul\":1969:1987   */\n  tag_81\n  tag_25\n  jump\t// in\ntag_81:\n    /* \"#utility.yul\":1901:1989   */\ntag_80:\n    /* \"#utility.yul\":2009:2019   */\n  dup1\n    /* \"#utility.yul\":2005:2007   */\n  0x40\n    /* \"#utility.yul\":1998:2020   */\n  mstore\n    /* \"#utility.yul\":1788:2026   */\n  pop\n    /* \"#utility.yul\":1745:2026   */\n  pop\n  pop\n  jump\t// out\n    /* \"#utility.yul\":2032:2161   */\ntag_27:\n    /* \"#utility.yul\":2066:2072   */\n  0x00\n    /* \"#utility.yul\":2093:2113   */\n  tag_83\n  tag_12\n  jump\t// in\ntag_83:\n    /* \"#utility.yul\":2083:2113   */\n  swap1\n  pop\n    /* \"#utility.yul\":2122:2155   */\n  tag_84\n    /* \"#utility.yul\":2150:2154   */\n  dup3\n    /* \"#utility.yul\":2142:2148   */\n  dup3\n    /* \"#utility.yul\":2122:2155   */\n  tag_26\n  jump\t// in\ntag_84:\n    /* \"#utility.yul\":2032:2161   */\n  swap2\n  swap1\n  pop\n  jump\t// out\n    /* \"#utility.yul\":2167:2475   */\ntag_28:\n    /* \"#utility.yul\":2229:2233   */\n  0x00\n    /* \"#utility.yul\":2319:2337   */\n  0xffffffffffffffff\n    /* \"#utility.yul\":2311:2317   */\n  dup3\n    /* \"#utility.yul\":2308:2338   */\n  gt\n    /* \"#utility.yul\":2305:2361   */\n  iszero\n  tag_86\n  jumpi\n    /* \"#utility.yul\":2341:2359   */\n  tag_87\n  tag_25\n  jump\t// in\ntag_87:\n    /* \"#utility.yul\":2305:2361   */\ntag_86:\n    /* \"#utility.yul\":2379:2408   */\n  tag_88\n    /* \"#utility.yul\":2401:2407   */\n  dup3\n    /* \"#utility.yul\":2379:2408   */\n  tag_24\n  jump\t// in\ntag_88:\n    /* \"#utility.yul\":2371:2408   */\n  swap1\n  pop\n    /* \"#utility.yul\":2463:2467   */\n  0x20\n    /* \"#utility.yul\":2457:2461   */\n  dup2\n    /* \"#utility.yul\":2453:2468   */\n  add\n    /* \"#utility.yul\":2445:2468   */\n  swap1\n  pop\n    /* \"#utility.yul\":2167:2475   */\n  swap2\n  swap1\n  pop\n  jump\t// out\n    /* \"#utility.yul\":2481:2727   */\ntag_29:\n    /* \"#utility.yul\":2562:2563   */\n  0x00\n    /* \"#utility.yul\":2572:2685   */\ntag_90:\n    /* \"#utility.yul\":2586:2592   */\n  dup4\n    /* \"#utility.yul\":2583:2584   */\n  dup2\n    /* \"#utility.yul\":2580:2593   */\n  lt\n    /* \"#utility.yul\":2572:2685   */\n  iszero\n  tag_92\n  jumpi\n    /* \"#utility.yul\":2671:2672   */\n  dup1\n    /* \"#utility.yul\":2666:2669   */\n  dup3\n    /* \"#utility.yul\":2662:2673   */\n  add\n    /* \"#utility.yul\":2656:2674   */\n  mload\n    /* \"#utility.yul\":2652:2653   */\n  dup2\n    /* \"#utility.yul\":2647:2650   */\n  dup5\n    /* \"#utility.yul\":2643:2654   */\n  add\n    /* \"#utility.yul\":2636:2675   */\n  mstore\n    /* \"#utility.yul\":2608:2610   */\n  0x20\n    /* \"#utility.yul\":2605:2606   */\n  dup2\n    /* \"#utility.yul\":2601:2611   */\n  add\n    /* \"#utility.yul\":2596:2611   */\n  swap1\n  pop\n    /* \"#utility.yul\":2572:2685   */\n  jump(tag_90)\ntag_92:\n    /* \"#utility.yul\":2719:2720   */\n  0x00\n    /* \"#utility.yul\":2710:2716   */\n  dup5\n    /* \"#utility.yul\":2705:2708   */\n  dup5\n    /* \"#utility.yul\":2701:2717   */\n  add\n    /* \"#utility.yul\":2694:2721   */\n  mstore\n    /* \"#utility.yul\":2543:2727   */\n  pop\n    /* \"#utility.yul\":2481:2727   */\n  pop\n  pop\n  pop\n  jump\t// out\n    /* \"#utility.yul\":2733:3167   */\ntag_30:\n    /* \"#utility.yul\":2822:2827   */\n  0x00\n    /* \"#utility.yul\":2847:2913   */\n  tag_94\n    /* \"#utility.yul\":2863:2912   */\n  tag_95\n    /* \"#utility.yul\":2905:2911   */\n  dup5\n    /* \"#utility.yul\":2863:2912   */\n  tag_28\n  jump\t// in\ntag_95:\n    /* \"#utility.yul\":2847:2913   */\n  tag_27\n  jump\t// in\ntag_94:\n    /* \"#utility.yul\":2838:2913   */\n  swap1\n  pop\n    /* \"#utility.yul\":2936:2942   */\n  dup3\n    /* \"#utility.yul\":2929:2934   */\n  dup2\n    /* \"#utility.yul\":2922:2943   */\n  mstore\n    /* \"#utility.yul\":2974:2978   */\n  0x20\n    /* \"#utility.yul\":2967:2972   */\n  dup2\n    /* \"#utility.yul\":2963:2979   */\n  add\n    /* \"#utility.yul\":3012:3015   */\n  dup5\n    /* \"#utility.yul\":3003:3009   */\n  dup5\n    /* \"#utility.yul\":2998:3001   */\n  dup5\n    /* \"#utility.yul\":2994:3010   */\n  add\n    /* \"#utility.yul\":2991:3016   */\n  gt\n    /* \"#utility.yul\":2988:3100   */\n  iszero\n  tag_96\n  jumpi\n    /* \"#utility.yul\":3019:3098   */\n  tag_97\n  tag_23\n  jump\t// in\ntag_97:\n    /* \"#utility.yul\":2988:3100   */\ntag_96:\n    /* \"#utility.yul\":3109:3161   */\n  tag_98\n    /* \"#utility.yul\":3154:3160   */\n  dup5\n    /* \"#utility.yul\":3149:3152   */\n  dup3\n    /* \"#utility.yul\":3144:3147   */\n  dup6\n    /* \"#utility.yul\":3109:3161   */\n  tag_29\n  jump\t// in\ntag_98:\n    /* \"#utility.yul\":2828:3167   */\n  pop\n    /* \"#utility.yul\":2733:3167   */\n  swap4\n  swap3\n  pop\n  pop\n  pop\n  jump\t// out\n    /* \"#utility.yul\":3187:3542   */\ntag_31:\n    /* \"#utility.yul\":3254:3259   */\n  0x00\n    /* \"#utility.yul\":3303:3306   */\n  dup3\n    /* \"#utility.yul\":3296:3300   */\n  0x1f\n    /* \"#utility.yul\":3288:3294   */\n  dup4\n    /* \"#utility.yul\":3284:3301   */\n  add\n    /* \"#utility.yul\":3280:3307   */\n  slt\n    /* \"#utility.yul\":3270:3392   */\n  tag_100\n  jumpi\n    /* \"#utility.yul\":3311:3390   */\n  tag_101\n  tag_22\n  jump\t// in\ntag_101:\n    /* \"#utility.yul\":3270:3392   */\ntag_100:\n    /* \"#utility.yul\":3421:3427   */\n  dup2\n    /* \"#utility.yul\":3415:3428   */\n  mload\n    /* \"#utility.yul\":3446:3536   */\n  tag_102\n    /* \"#utility.yul\":3532:3535   */\n  dup5\n    /* \"#utility.yul\":3524:3530   */\n  dup3\n    /* \"#utility.yul\":3517:3521   */\n  0x20\n    /* \"#utility.yul\":3509:3515   */\n  dup7\n    /* \"#utility.yul\":3505:3522   */\n  add\n    /* \"#utility.yul\":3446:3536   */\n  tag_30\n  jump\t// in\ntag_102:\n    /* \"#utility.yul\":3437:3536   */\n  swap2\n  pop\n    /* \"#utility.yul\":3260:3542   */\n  pop\n    /* \"#utility.yul\":3187:3542   */\n  swap3\n  swap2\n  pop\n  pop\n  jump\t// out\n    /* \"#utility.yul\":3548:3665   */\ntag_32:\n    /* \"#utility.yul\":3657:3658   */\n  0x00\n    /* \"#utility.yul\":3654:3655   */\n  dup1\n    /* \"#utility.yul\":3647:3659   */\n  revert\n    /* \"#utility.yul\":3671:3788   */\ntag_33:\n    /* \"#utility.yul\":3780:3781   */\n  0x00\n    /* \"#utility.yul\":3777:3778   */\n  dup1\n    /* \"#utility.yul\":3770:3782   */\n  revert\n    /* \"#utility.yul\":3794:3883   */\ntag_34:\n    /* \"#utility.yul\":3830:3837   */\n  0x00\n    /* \"#utility.yul\":3870:3876   */\n  0xffff\n    /* \"#utility.yul\":3863:3868   */\n  dup3\n    /* \"#utility.yul\":3859:3877   */\n  and\n    /* \"#utility.yul\":3848:3877   */\n  swap1\n  pop\n    /* \"#utility.yul\":3794:3883   */\n  swap2\n  swap1\n  pop\n  jump\t// out\n    /* \"#utility.yul\":3889:4009   */\ntag_35:\n    /* \"#utility.yul\":3961:3984   */\n  tag_107\n    /* \"#utility.yul\":3978:3983   */\n  dup2\n    /* \"#utility.yul\":3961:3984   */\n  tag_34\n  jump\t// in\ntag_107:\n    /* \"#utility.yul\":3954:3959   */\n  dup2\n    /* \"#utility.yul\":3951:3985   */\n  eq\n    /* \"#utility.yul\":3941:4003   */\n  tag_108\n  jumpi\n    /* \"#utility.yul\":3999:4000   */\n  0x00\n    /* \"#utility.yul\":3996:3997   */\n  dup1\n    /* \"#utility.yul\":3989:4001   */\n  revert\n    /* \"#utility.yul\":3941:4003   */\ntag_108:\n    /* \"#utility.yul\":3889:4009   */\n  pop\n  jump\t// out\n    /* \"#utility.yul\":4015:4156   */\ntag_36:\n    /* \"#utility.yul\":4071:4076   */\n  0x00\n    /* \"#utility.yul\":4102:4108   */\n  dup2\n    /* \"#utility.yul\":4096:4109   */\n  mload\n    /* \"#utility.yul\":4087:4109   */\n  swap1\n  pop\n    /* \"#utility.yul\":4118:4150   */\n  tag_110\n    /* \"#utility.yul\":4144:4149   */\n  dup2\n    /* \"#utility.yul\":4118:4150   */\n  tag_35\n  jump\t// in\ntag_110:\n    /* \"#utility.yul\":4015:4156   */\n  swap3\n  swap2\n  pop\n  pop\n  jump\t// out\n    /* \"#utility.yul\":4181:5291   */\ntag_37:\n    /* \"#utility.yul\":4260:4265   */\n  0x00\n    /* \"#utility.yul\":4304:4308   */\n  0x60\n    /* \"#utility.yul\":4292:4301   */\n  dup3\n    /* \"#utility.yul\":4287:4290   */\n  dup5\n    /* \"#utility.yul\":4283:4302   */\n  sub\n    /* \"#utility.yul\":4279:4309   */\n  slt\n    /* \"#utility.yul\":4276:4393   */\n  iszero\n  tag_112\n  jumpi\n    /* \"#utility.yul\":4312:4391   */\n  tag_113\n  tag_32\n  jump\t// in\ntag_113:\n    /* \"#utility.yul\":4276:4393   */\ntag_112:\n    /* \"#utility.yul\":4411:4432   */\n  tag_114\n    /* \"#utility.yul\":4427:4431   */\n  0x60\n    /* \"#utility.yul\":4411:4432   */\n  tag_27\n  jump\t// in\ntag_114:\n    /* \"#utility.yul\":4402:4432   */\n  swap1\n  pop\n    /* \"#utility.yul\":4517:4518   */\n  0x00\n    /* \"#utility.yul\":4506:4515   */\n  dup3\n    /* \"#utility.yul\":4502:4519   */\n  add\n    /* \"#utility.yul\":4496:4520   */\n  mload\n    /* \"#utility.yul\":4547:4565   */\n  0xffffffffffffffff\n    /* \"#utility.yul\":4539:4545   */\n  dup2\n    /* \"#utility.yul\":4536:4566   */\n  gt\n    /* \"#utility.yul\":4533:4650   */\n  iszero\n  tag_115\n  jumpi\n    /* \"#utility.yul\":4569:4648   */\n  tag_116\n  tag_33\n  jump\t// in\ntag_116:\n    /* \"#utility.yul\":4533:4650   */\ntag_115:\n    /* \"#utility.yul\":4689:4759   */\n  tag_117\n    /* \"#utility.yul\":4755:4758   */\n  dup5\n    /* \"#utility.yul\":4746:4752   */\n  dup3\n    /* \"#utility.yul\":4735:4744   */\n  dup6\n    /* \"#utility.yul\":4731:4753   */\n  add\n    /* \"#utility.yul\":4689:4759   */\n  tag_31\n  jump\t// in\ntag_117:\n    /* \"#utility.yul\":4682:4686   */\n  0x00\n    /* \"#utility.yul\":4675:4680   */\n  dup4\n    /* \"#utility.yul\":4671:4687   */\n  add\n    /* \"#utility.yul\":4664:4760   */\n  mstore\n    /* \"#utility.yul\":4442:4771   */\n  pop\n    /* \"#utility.yul\":4852:4854   */\n  0x20\n    /* \"#utility.yul\":4841:4850   */\n  dup3\n    /* \"#utility.yul\":4837:4855   */\n  add\n    /* \"#utility.yul\":4831:4856   */\n  mload\n    /* \"#utility.yul\":4883:4901   */\n  0xffffffffffffffff\n    /* \"#utility.yul\":4875:4881   */\n  dup2\n    /* \"#utility.yul\":4872:4902   */\n  gt\n    /* \"#utility.yul\":4869:4986   */\n  iszero\n  tag_118\n  jumpi\n    /* \"#utility.yul\":4905:4984   */\n  tag_119\n  tag_33\n  jump\t// in\ntag_119:\n    /* \"#utility.yul\":4869:4986   */\ntag_118:\n    /* \"#utility.yul\":5025:5095   */\n  tag_120\n    /* \"#utility.yul\":5091:5094   */\n  dup5\n    /* \"#utility.yul\":5082:5088   */\n  dup3\n    /* \"#utility.yul\":5071:5080   */\n  dup6\n    /* \"#utility.yul\":5067:5089   */\n  add\n    /* \"#utility.yul\":5025:5095   */\n  tag_31\n  jump\t// in\ntag_120:\n    /* \"#utility.yul\":5018:5022   */\n  0x20\n    /* \"#utility.yul\":5011:5016   */\n  dup4\n    /* \"#utility.yul\":5007:5023   */\n  add\n    /* \"#utility.yul\":5000:5096   */\n  mstore\n    /* \"#utility.yul\":4781:5107   */\n  pop\n    /* \"#utility.yul\":5172:5174   */\n  0x40\n    /* \"#utility.yul\":5213:5272   */\n  tag_121\n    /* \"#utility.yul\":5268:5271   */\n  dup5\n    /* \"#utility.yul\":5259:5265   */\n  dup3\n    /* \"#utility.yul\":5248:5257   */\n  dup6\n    /* \"#utility.yul\":5244:5266   */\n  add\n    /* \"#utility.yul\":5213:5272   */\n  tag_36\n  jump\t// in\ntag_121:\n    /* \"#utility.yul\":5206:5210   */\n  0x40\n    /* \"#utility.yul\":5199:5204   */\n  dup4\n    /* \"#utility.yul\":5195:5211   */\n  add\n    /* \"#utility.yul\":5188:5273   */\n  mstore\n    /* \"#utility.yul\":5117:5284   */\n  pop\n    /* \"#utility.yul\":4181:5291   */\n  swap3\n  swap2\n  pop\n  pop\n  jump\t// out\n    /* \"#utility.yul\":5297:6968   */\ntag_3:\n    /* \"#utility.yul\":5451:5457   */\n  0x00\n    /* \"#utility.yul\":5459:5465   */\n  dup1\n    /* \"#utility.yul\":5467:5473   */\n  0x00\n    /* \"#utility.yul\":5475:5481   */\n  dup1\n    /* \"#utility.yul\":5483:5489   */\n  0x00\n    /* \"#utility.yul\":5491:5497   */\n  dup1\n    /* \"#utility.yul\":5540:5543   */\n  0xc0\n    /* \"#utility.yul\":5528:5537   */\n  dup8\n    /* \"#utility.yul\":5519:5526   */\n  dup10\n    /* \"#utility.yul\":5515:5538   */\n  sub\n    /* \"#utility.yul\":5511:5544   */\n  slt\n    /* \"#utility.yul\":5508:5628   */\n  iszero\n  tag_123\n  jumpi\n    /* \"#utility.yul\":5547:5626   */\n  tag_124\n  tag_13\n  jump\t// in\ntag_124:\n    /* \"#utility.yul\":5508:5628   */\ntag_123:\n    /* \"#utility.yul\":5667:5668   */\n  0x00\n    /* \"#utility.yul\":5692:5756   */\n  tag_125\n    /* \"#utility.yul\":5748:5755   */\n  dup10\n    /* \"#utility.yul\":5739:5745   */\n  dup3\n    /* \"#utility.yul\":5728:5737   */\n  dup11\n    /* \"#utility.yul\":5724:5746   */\n  add\n    /* \"#utility.yul\":5692:5756   */\n  tag_18\n  jump\t// in\ntag_125:\n    /* \"#utility.yul\":5682:5756   */\n  swap7\n  pop\n    /* \"#utility.yul\":5638:5766   */\n  pop\n    /* \"#utility.yul\":5805:5807   */\n  0x20\n    /* \"#utility.yul\":5831:5895   */\n  tag_126\n    /* \"#utility.yul\":5887:5894   */\n  dup10\n    /* \"#utility.yul\":5878:5884   */\n  dup3\n    /* \"#utility.yul\":5867:5876   */\n  dup11\n    /* \"#utility.yul\":5863:5885   */\n  add\n    /* \"#utility.yul\":5831:5895   */\n  tag_21\n  jump\t// in\ntag_126:\n    /* \"#utility.yul\":5821:5895   */\n  swap6\n  pop\n    /* \"#utility.yul\":5776:5905   */\n  pop\n    /* \"#utility.yul\":5944:5946   */\n  0x40\n    /* \"#utility.yul\":5970:6034   */\n  tag_127\n    /* \"#utility.yul\":6026:6033   */\n  dup10\n    /* \"#utility.yul\":6017:6023   */\n  dup3\n    /* \"#utility.yul\":6006:6015   */\n  dup11\n    /* \"#utility.yul\":6002:6024   */\n  add\n    /* \"#utility.yul\":5970:6034   */\n  tag_21\n  jump\t// in\ntag_127:\n    /* \"#utility.yul\":5960:6034   */\n  swap5\n  pop\n    /* \"#utility.yul\":5915:6044   */\n  pop\n    /* \"#utility.yul\":6104:6106   */\n  0x60\n    /* \"#utility.yul\":6093:6102   */\n  dup8\n    /* \"#utility.yul\":6089:6107   */\n  add\n    /* \"#utility.yul\":6083:6108   */\n  mload\n    /* \"#utility.yul\":6135:6153   */\n  0xffffffffffffffff\n    /* \"#utility.yul\":6127:6133   */\n  dup2\n    /* \"#utility.yul\":6124:6154   */\n  gt\n    /* \"#utility.yul\":6121:6238   */\n  iszero\n  tag_128\n  jumpi\n    /* \"#utility.yul\":6157:6236   */\n  tag_129\n  tag_14\n  jump\t// in\ntag_129:\n    /* \"#utility.yul\":6121:6238   */\ntag_128:\n    /* \"#utility.yul\":6262:6336   */\n  tag_130\n    /* \"#utility.yul\":6328:6335   */\n  dup10\n    /* \"#utility.yul\":6319:6325   */\n  dup3\n    /* \"#utility.yul\":6308:6317   */\n  dup11\n    /* \"#utility.yul\":6304:6326   */\n  add\n    /* \"#utility.yul\":6262:6336   */\n  tag_31\n  jump\t// in\ntag_130:\n    /* \"#utility.yul\":6252:6336   */\n  swap4\n  pop\n    /* \"#utility.yul\":6054:6346   */\n  pop\n    /* \"#utility.yul\":6406:6409   */\n  0x80\n    /* \"#utility.yul\":6395:6404   */\n  dup8\n    /* \"#utility.yul\":6391:6410   */\n  add\n    /* \"#utility.yul\":6385:6411   */\n  mload\n    /* \"#utility.yul\":6438:6456   */\n  0xffffffffffffffff\n    /* \"#utility.yul\":6430:6436   */\n  dup2\n    /* \"#utility.yul\":6427:6457   */\n  gt\n    /* \"#utility.yul\":6424:6541   */\n  iszero\n  tag_131\n  jumpi\n    /* \"#utility.yul\":6460:6539   */\n  tag_132\n  tag_14\n  jump\t// in\ntag_132:\n    /* \"#utility.yul\":6424:6541   */\ntag_131:\n    /* \"#utility.yul\":6565:6639   */\n  tag_133\n    /* \"#utility.yul\":6631:6638   */\n  dup10\n    /* \"#utility.yul\":6622:6628   */\n  dup3\n    /* \"#utility.yul\":6611:6620   */\n  dup11\n    /* \"#utility.yul\":6607:6629   */\n  add\n    /* \"#utility.yul\":6565:6639   */\n  tag_31\n  jump\t// in\ntag_133:\n    /* \"#utility.yul\":6555:6639   */\n  swap3\n  pop\n    /* \"#utility.yul\":6356:6649   */\n  pop\n    /* \"#utility.yul\":6709:6712   */\n  0xa0\n    /* \"#utility.yul\":6698:6707   */\n  dup8\n    /* \"#utility.yul\":6694:6713   */\n  add\n    /* \"#utility.yul\":6688:6714   */\n  mload\n    /* \"#utility.yul\":6741:6759   */\n  0xffffffffffffffff\n    /* \"#utility.yul\":6733:6739   */\n  dup2\n    /* \"#utility.yul\":6730:6760   */\n  gt\n    /* \"#utility.yul\":6727:6844   */\n  iszero\n  tag_134\n  jumpi\n    /* \"#utility.yul\":6763:6842   */\n  tag_135\n  tag_14\n  jump\t// in\ntag_135:\n    /* \"#utility.yul\":6727:6844   */\ntag_134:\n    /* \"#utility.yul\":6868:6951   */\n  tag_136\n    /* \"#utility.yul\":6943:6950   */\n  dup10\n    /* \"#utility.yul\":6934:6940   */\n  dup3\n    /* \"#utility.yul\":6923:6932   */\n  dup11\n    /* \"#utility.yul\":6919:6941   */\n  add\n    /* \"#utility.yul\":6868:6951   */\n  tag_37\n  jump\t// in\ntag_136:\n    /* \"#utility.yul\":6858:6951   */\n  swap2\n  pop\n    /* \"#utility.yul\":6659:6961   */\n  pop\n    /* \"#utility.yul\":5297:6968   */\n  swap3\n  swap6\n  pop\n  swap3\n  swap6\n  pop\n  swap3\n  swap6\n  jump\t// out\n    /* \"#utility.yul\":6974:7073   */\ntag_38:\n    /* \"#utility.yul\":7026:7032   */\n  0x00\n    /* \"#utility.yul\":7060:7065   */\n  dup2\n    /* \"#utility.yul\":7054:7066   */\n  mload\n    /* \"#utility.yul\":7044:7066   */\n  swap1\n  pop\n    /* \"#utility.yul\":6974:7073   */\n  swap2\n  swap1\n  pop\n  jump\t// out\n    /* \"#utility.yul\":7079:7259   */\ntag_39:\n    /* \"#utility.yul\":7127:7204   */\n  0x4e487b7100000000000000000000000000000000000000000000000000000000\n    /* \"#utility.yul\":7124:7125   */\n  0x00\n    /* \"#utility.yul\":7117:7205   */\n  mstore\n    /* \"#utility.yul\":7224:7228   */\n  0x22\n    /* \"#utility.yul\":7221:7222   */\n  0x04\n    /* \"#utility.yul\":7214:7229   */\n  mstore\n    /* \"#utility.yul\":7248:7252   */\n  0x24\n    /* \"#utility.yul\":7245:7246   */\n  0x00\n    /* \"#utility.yul\":7238:7253   */\n  revert\n    /* \"#utility.yul\":7265:7585   */\ntag_40:\n    /* \"#utility.yul\":7309:7315   */\n  0x00\n    /* \"#utility.yul\":7346:7347   */\n  0x02\n    /* \"#utility.yul\":7340:7344   */\n  dup3\n    /* \"#utility.yul\":7336:7348   */\n  div\n    /* \"#utility.yul\":7326:7348   */\n  swap1\n  pop\n    /* \"#utility.yul\":7393:7394   */\n  0x01\n    /* \"#utility.yul\":7387:7391   */\n  dup3\n    /* \"#utility.yul\":7383:7395   */\n  and\n    /* \"#utility.yul\":7414:7432   */\n  dup1\n    /* \"#utility.yul\":7404:7485   */\n  tag_140\n  jumpi\n    /* \"#utility.yul\":7470:7474   */\n  0x7f\n    /* \"#utility.yul\":7462:7468   */\n  dup3\n    /* \"#utility.yul\":7458:7475   */\n  and\n    /* \"#utility.yul\":7448:7475   */\n  swap2\n  pop\n    /* \"#utility.yul\":7404:7485   */\ntag_140:\n    /* \"#utility.yul\":7532:7534   */\n  0x20\n    /* \"#utility.yul\":7524:7530   */\n  dup3\n    /* \"#utility.yul\":7521:7535   */\n  lt\n    /* \"#utility.yul\":7501:7519   */\n  dup2\n    /* \"#utility.yul\":7498:7536   */\n  sub\n    /* \"#utility.yul\":7495:7579   */\n  tag_141\n  jumpi\n    /* \"#utility.yul\":7551:7569   */\n  tag_142\n  tag_39\n  jump\t// in\ntag_142:\n    /* \"#utility.yul\":7495:7579   */\ntag_141:\n    /* \"#utility.yul\":7316:7585   */\n  pop\n    /* \"#utility.yul\":7265:7585   */\n  swap2\n  swap1\n  pop\n  jump\t// out\n    /* \"#utility.yul\":7591:7732   */\ntag_41:\n    /* \"#utility.yul\":7640:7644   */\n  0x00\n    /* \"#utility.yul\":7663:7666   */\n  dup2\n    /* \"#utility.yul\":7655:7666   */\n  swap1\n  pop\n    /* \"#utility.yul\":7686:7689   */\n  dup2\n    /* \"#utility.yul\":7683:7684   */\n  0x00\n    /* \"#utility.yul\":7676:7690   */\n  mstore\n    /* \"#utility.yul\":7720:7724   */\n  0x20\n    /* \"#utility.yul\":7717:7718   */\n  0x00\n    /* \"#utility.yul\":7707:7725   */\n  keccak256\n    /* \"#utility.yul\":7699:7725   */\n  swap1\n  pop\n    /* \"#utility.yul\":7591:7732   */\n  swap2\n  swap1\n  pop\n  jump\t// out\n    /* \"#utility.yul\":7738:7831   */\ntag_42:\n    /* \"#utility.yul\":7775:7781   */\n  0x00\n    /* \"#utility.yul\":7822:7824   */\n  0x20\n    /* \"#utility.yul\":7817:7819   */\n  0x1f\n    /* \"#utility.yul\":7810:7815   */\n  dup4\n    /* \"#utility.yul\":7806:7820   */\n  add\n    /* \"#utility.yul\":7802:7825   */\n  div\n    /* \"#utility.yul\":7792:7825   */\n  swap1\n  pop\n    /* \"#utility.yul\":7738:7831   */\n  swap2\n  swap1\n  pop\n  jump\t// out\n    /* \"#utility.yul\":7837:7944   */\ntag_43:\n    /* \"#utility.yul\":7881:7889   */\n  0x00\n    /* \"#utility.yul\":7931:7936   */\n  dup3\n    /* \"#utility.yul\":7925:7929   */\n  dup3\n    /* \"#utility.yul\":7921:7937   */\n  shl\n    /* \"#utility.yul\":7900:7937   */\n  swap1\n  pop\n    /* \"#utility.yul\":7837:7944   */\n  swap3\n  swap2\n  pop\n  pop\n  jump\t// out\n    /* \"#utility.yul\":7950:8343   */\ntag_44:\n    /* \"#utility.yul\":8019:8025   */\n  0x00\n    /* \"#utility.yul\":8069:8070   */\n  0x08\n    /* \"#utility.yul\":8057:8067   */\n  dup4\n    /* \"#utility.yul\":8053:8071   */\n  mul\n    /* \"#utility.yul\":8092:8189   */\n  tag_147\n    /* \"#utility.yul\":8122:8188   */\n  0xffffffffffffffffffffffffffffffffffffffffffffffffffffffffffffffff\n    /* \"#utility.yul\":8111:8120   */\n  dup3\n    /* \"#utility.yul\":8092:8189   */\n  tag_43\n  jump\t// in\ntag_147:\n    /* \"#utility.yul\":8210:8249   */\n  tag_148\n    /* \"#utility.yul\":8240:8248   */\n  dup7\n    /* \"#utility.yul\":8229:8238   */\n  dup4\n    /* \"#utility.yul\":8210:8249   */\n  tag_43\n  jump\t// in\ntag_148:\n    /* \"#utility.yul\":8198:8249   */\n  swap6\n  pop\n    /* \"#utility.yul\":8282:8286   */\n  dup1\n    /* \"#utility.yul\":8278:8287   */\n  not\n    /* \"#utility.yul\":8271:8276   */\n  dup5\n    /* \"#utility.yul\":8267:8288   */\n  and\n    /* \"#utility.yul\":8258:8288   */\n  swap4\n  pop\n    /* \"#utility.yul\":8331:8335   */\n  dup1\n    /* \"#utility.yul\":8321:8329   */\n  dup7\n    /* \"#utility.yul\":8317:8336   */\n  and\n    /* \"#utility.yul\":8310:8315   */\n  dup5\n    /* \"#utility.yul\":8307:8337   */\n  or\n    /* \"#utility.yul\":8297:8337   */\n  swap3\n  pop\n    /* \"#utility.yul\":8026:8343   */\n  pop\n  pop\n    /* \"#utility.yul\":7950:8343   */\n  swap4\n  swap3\n  pop\n  pop\n  pop\n  jump\t// out\n    /* \"#utility.yul\":8349:8409   */\ntag_45:\n    /* \"#utility.yul\":8377:8380   */\n  0x00\n    /* \"#utility.yul\":8398:8403   */\n  dup2\n    /* \"#utility.yul\":8391:8403   */\n  swap1\n  pop\n    /* \"#utility.yul\":8349:8409   */\n  swap2\n  swap1\n  pop\n  jump\t// out\n    /* \"#utility.yul\":8415:8557   */\ntag_46:\n    /* \"#utility.yul\":8465:8474   */\n  0x00\n    /* \"#utility.yul\":8498:8551   */\n  tag_151\n    /* \"#utility.yul\":8516:8550   */\n  tag_152\n    /* \"#utility.yul\":8525:8549   */\n  tag_153\n    /* \"#utility.yul\":8543:8548   */\n  dup5\n    /* \"#utility.yul\":8525:8549   */\n  tag_19\n  jump\t// in\ntag_153:\n    /* \"#utility.yul\":8516:8550   */\n  tag_45\n  jump\t// in\ntag_152:\n    /* \"#utility.yul\":8498:8551   */\n  tag_19\n  jump\t// in\ntag_151:\n    /* \"#utility.yul\":8485:8551   */\n  swap1\n  pop\n    /* \"#utility.yul\":8415:8557   */\n  swap2\n  swap1\n  pop\n  jump\t// out\n    /* \"#utility.yul\":8563:8638   */\ntag_47:\n    /* \"#utility.yul\":8606:8609   */\n  0x00\n    /* \"#utility.yul\":8627:8632   */\n  dup2\n    /* \"#utility.yul\":8620:8632   */\n  swap1\n  pop\n    /* \"#utility.yul\":8563:8638   */\n  swap2\n  swap1\n  pop\n  jump\t// out\n    /* \"#utility.yul\":8644:8913   */\ntag_48:\n    /* \"#utility.yul\":8754:8793   */\n  tag_156\n    /* \"#utility.yul\":8785:8792   */\n  dup4\n    /* \"#utility.yul\":8754:8793   */\n  tag_46\n  jump\t// in\ntag_156:\n    /* \"#utility.yul\":8815:8906   */\n  tag_157\n    /* \"#utility.yul\":8864:8905   */\n  tag_158\n    /* \"#utility.yul\":8888:8904   */\n  dup3\n    /* \"#utility.yul\":8864:8905   */\n  tag_47\n  jump\t// in\ntag_158:\n    /* \"#utility.yul\":8856:8862   */\n  dup5\n    /* \"#utility.yul\":8849:8853   */\n  dup5\n    /* \"#utility.yul\":8843:8854   */\n  sload\n    /* \"#utility.yul\":8815:8906   */\n  tag_44\n  jump\t// in\ntag_157:\n    /* \"#utility.yul\":8809:8813   */\n  dup3\n    /* \"#utility.yul\":8802:8907   */\n  sstore\n    /* \"#utility.yul\":8720:8913   */\n  pop\n    /* \"#utility.yul\":8644:8913   */\n  pop\n  pop\n  pop\n  jump\t// out\n    /* \"#utility.yul\":8919:8992   */\ntag_49:\n    /* \"#utility.yul\":8964:8967   */\n  0x00\n    /* \"#utility.yul\":8919:8992   */\n  swap1\n  jump\t// out\n    /* \"#utility.yul\":8998:9187   */\ntag_50:\n    /* \"#utility.yul\":9075:9107   */\n  tag_161\n  tag_49\n  jump\t// in\ntag_161:\n    /* \"#utility.yul\":9116:9181   */\n  tag_162\n    /* \"#utility.yul\":9174:9180   */\n  dup2\n    /* \"#utility.yul\":9166:9172   */\n  dup5\n    /* \"#utility.yul\":9160:9164   */\n  dup5\n    /* \"#utility.yul\":9116:9181   */\n  tag_48\n  jump\t// in\ntag_162:\n    /* \"#utility.yul\":9051:9187   */\n  pop\n    /* \"#utility.yul\":8998:9187   */\n  pop\n  pop\n  jump\t// out\n    /* \"#utility.yul\":9193:9379   */\ntag_51:\n    /* \"#utility.yul\":9253:9373   */\ntag_164:\n    /* \"#utility.yul\":9270:9273   */\n  dup2\n    /* \"#utility.yul\":9263:9268   */\n  dup2\n    /* \"#utility.yul\":9260:9274   */\n  lt\n    /* \"#utility.yul\":9253:9373   */\n  iszero\n  tag_166\n  jumpi\n    /* \"#utility.yul\":9324:9363   */\n  tag_167\n    /* \"#utility.yul\":9361:9362   */\n  0x00\n    /* \"#utility.yul\":9354:9359   */\n  dup3\n    /* \"#utility.yul\":9324:9363   */\n  tag_50\n  jump\t// in\ntag_167:\n    /* \"#utility.yul\":9297:9298   */\n  0x01\n    /* \"#utility.yul\":9290:9295   */\n  dup2\n    /* \"#utility.yul\":9286:9299   */\n  add\n    /* \"#utility.yul\":9277:9299   */\n  swap1\n  pop\n    /* \"#utility.yul\":9253:9373   */\n  jump(tag_164)\ntag_166:\n    /* \"#utility.yul\":9193:9379   */\n  pop\n  pop\n  jump\t// out\n    /* \"#utility.yul\":9385:9928   */\ntag_52:\n    /* \"#utility.yul\":9486:9488   */\n  0x1f\n    /* \"#utility.yul\":9481:9484   */\n  dup3\n    /* \"#utility.yul\":9478:9489   */\n  gt\n    /* \"#utility.yul\":9475:9921   */\n  iszero\n  tag_169\n  jumpi\n    /* \"#utility.yul\":9520:9558   */\n  tag_170\n    /* \"#utility.yul\":9552:9557   */\n  dup2\n    /* \"#utility.yul\":9520:9558   */\n  tag_41\n  jump\t// in\ntag_170:\n    /* \"#utility.yul\":9604:9633   */\n  tag_171\n    /* \"#utility.yul\":9622:9632   */\n  dup5\n    /* \"#utility.yul\":9604:9633   */\n  tag_42\n  jump\t// in\ntag_171:\n    /* \"#utility.yul\":9594:9602   */\n  dup2\n    /* \"#utility.yul\":9590:9634   */\n  add\n    /* \"#utility.yul\":9787:9789   */\n  0x20\n    /* \"#utility.yul\":9775:9785   */\n  dup6\n    /* \"#utility.yul\":9772:9790   */\n  lt\n    /* \"#utility.yul\":9769:9818   */\n  iszero\n  tag_172\n  jumpi\n    /* \"#utility.yul\":9808:9816   */\n  dup2\n    /* \"#utility.yul\":9793:9816   */\n  swap1\n  pop\n    /* \"#utility.yul\":9769:9818   */\ntag_172:\n    /* \"#utility.yul\":9831:9911   */\n  tag_173\n    /* \"#utility.yul\":9887:9909   */\n  tag_174\n    /* \"#utility.yul\":9905:9908   */\n  dup6\n    /* \"#utility.yul\":9887:9909   */\n  tag_42\n  jump\t// in\ntag_174:\n    /* \"#utility.yul\":9877:9885   */\n  dup4\n    /* \"#utility.yul\":9873:9910   */\n  add\n    /* \"#utility.yul\":9860:9871   */\n  dup3\n    /* \"#utility.yul\":9831:9911   */\n  tag_51\n  jump\t// in\ntag_173:\n    /* \"#utility.yul\":9490:9921   */\n  pop\n  pop\n    /* \"#utility.yul\":9475:9921   */\ntag_169:\n    /* \"#utility.yul\":9385:9928   */\n  pop\n  pop\n  pop\n  jump\t// out\n    /* \"#utility.yul\":9934:10051   */\ntag_53:\n    /* \"#utility.yul\":9988:9996   */\n  0x00\n    /* \"#utility.yul\":10038:10043   */\n  dup3\n    /* \"#utility.yul\":10032:10036   */\n  dup3\n    /* \"#utility.yul\":10028:10044   */\n  shr\n    /* \"#utility.yul\":10007:10044   */\n  swap1\n  pop\n    /* \"#utility.yul\":9934:10051   */\n  swap3\n  swap2\n  pop\n  pop\n  jump\t// out\n    /* \"#utility.yul\":10057:10226   */\ntag_54:\n    /* \"#utility.yul\":10101:10107   */\n  0x00\n    /* \"#utility.yul\":10134:10185   */\n  tag_177\n    /* \"#utility.yul\":10182:10183   */\n  0x00\n    /* \"#utility.yul\":10178:10184   */\n  not\n    /* \"#utility.yul\":10170:10175   */\n  dup5\n    /* \"#utility.yul\":10167:10168   */\n  0x08\n    /* \"#utility.yul\":10163:10176   */\n  mul\n    /* \"#utility.yul\":10134:10185   */\n  tag_53\n  jump\t// in\ntag_177:\n    /* \"#utility.yul\":10130:10186   */\n  not\n    /* \"#utility.yul\":10215:10219   */\n  dup1\n    /* \"#utility.yul\":10209:10213   */\n  dup4\n    /* \"#utility.yul\":10205:10220   */\n  and\n    /* \"#utility.yul\":10195:10220   */\n  swap2\n  pop\n    /* \"#utility.yul\":10108:10226   */\n  pop\n    /* \"#utility.yul\":10057:10226   */\n  swap3\n  swap2\n  pop\n  pop\n  jump\t// out\n    /* \"#utility.yul\":10231:10526   */\ntag_55:\n    /* \"#utility.yul\":10307:10311   */\n  0x00\n    /* \"#utility.yul\":10453:10482   */\n  tag_179\n    /* \"#utility.yul\":10478:10481   */\n  dup4\n    /* \"#utility.yul\":10472:10476   */\n  dup4\n    /* \"#utility.yul\":10453:10482   */\n  tag_54\n  jump\t// in\ntag_179:\n    /* \"#utility.yul\":10445:10482   */\n  swap2\n  pop\n    /* \"#utility.yul\":10515:10518   */\n  dup3\n    /* \"#utility.yul\":10512:10513   */\n  0x02\n    /* \"#utility.yul\":10508:10519   */\n  mul\n    /* \"#utility.yul\":10502:10506   */\n  dup3\n    /* \"#utility.yul\":10499:10520   */\n  or\n    /* \"#utility.yul\":10491:10520   */\n  swap1\n  pop\n    /* \"#utility.yul\":10231:10526   */\n  swap3\n  swap2\n  pop\n  pop\n  jump\t// out\n    /* \"#utility.yul\":10531:11926   */\ntag_7:\n    /* \"#utility.yul\":10648:10685   */\n  tag_181\n    /* \"#utility.yul\":10681:10684   */\n  dup3\n    /* \"#utility.yul\":10648:10685   */\n  tag_38\n  jump\t// in\ntag_181:\n    /* \"#utility.yul\":10750:10768   */\n  0xffffffffffffffff\n    /* \"#utility.yul\":10742:10748   */\n  dup2\n    /* \"#utility.yul\":10739:10769   */\n  gt\n    /* \"#utility.yul\":10736:10792   */\n  iszero\n  tag_182\n  jumpi\n    /* \"#utility.yul\":10772:10790   */\n  tag_183\n  tag_25\n  jump\t// in\ntag_183:\n    /* \"#utility.yul\":10736:10792   */\ntag_182:\n    /* \"#utility.yul\":10816:10854   */\n  tag_184\n    /* \"#utility.yul\":10848:10852   */\n  dup3\n    /* \"#utility.yul\":10842:10853   */\n  sload\n    /* \"#utility.yul\":10816:10854   */\n  tag_40\n  jump\t// in\ntag_184:\n    /* \"#utility.yul\":10901:10968   */\n  tag_185\n    /* \"#utility.yul\":10961:10967   */\n  dup3\n    /* \"#utility.yul\":10953:10959   */\n  dup3\n    /* \"#utility.yul\":10947:10951   */\n  dup6\n    /* \"#utility.yul\":10901:10968   */\n  tag_52\n  jump\t// in\ntag_185:\n    /* \"#utility.yul\":10995:10996   */\n  0x00\n    /* \"#utility.yul\":11019:11023   */\n  0x20\n    /* \"#utility.yul\":11006:11023   */\n  swap1\n  pop\n    /* \"#utility.yul\":11051:11053   */\n  0x1f\n    /* \"#utility.yul\":11043:11049   */\n  dup4\n    /* \"#utility.yul\":11040:11054   */\n  gt\n    /* \"#utility.yul\":11068:11069   */\n  0x01\n    /* \"#utility.yul\":11063:11681   */\n  dup2\n  eq\n  tag_187\n  jumpi\n    /* \"#utility.yul\":11725:11726   */\n  0x00\n    /* \"#utility.yul\":11742:11748   */\n  dup5\n    /* \"#utility.yul\":11739:11816   */\n  iszero\n  tag_188\n  jumpi\n    /* \"#utility.yul\":11791:11800   */\n  dup3\n    /* \"#utility.yul\":11786:11789   */\n  dup8\n    /* \"#utility.yul\":11782:11801   */\n  add\n    /* \"#utility.yul\":11776:11802   */\n  mload\n    /* \"#utility.yul\":11767:11802   */\n  swap1\n  pop\n    /* \"#utility.yul\":11739:11816   */\ntag_188:\n    /* \"#utility.yul\":11842:11909   */\n  tag_189\n    /* \"#utility.yul\":11902:11908   */\n  dup6\n    /* \"#utility.yul\":11895:11900   */\n  dup3\n    /* \"#utility.yul\":11842:11909   */\n  tag_55\n  jump\t// in\ntag_189:\n    /* \"#utility.yul\":11836:11840   */\n  dup7\n    /* \"#utility.yul\":11829:11910   */\n  sstore\n    /* \"#utility.yul\":11698:11920   */\n  pop\n    /* \"#utility.yul\":11033:11920   */\n  jump(tag_186)\n    /* \"#utility.yul\":11063:11681   */\ntag_187:\n    /* \"#utility.yul\":11115:11119   */\n  0x1f\n    /* \"#utility.yul\":11111:11120   */\n  not\n    /* \"#utility.yul\":11103:11109   */\n  dup5\n    /* \"#utility.yul\":11099:11121   */\n  and\n    /* \"#utility.yul\":11149:11186   */\n  tag_190\n    /* \"#utility.yul\":11181:11185   */\n  dup7\n    /* \"#utility.yul\":11149:11186   */\n  tag_41\n  jump\t// in\ntag_190:\n    /* \"#utility.yul\":11208:11209   */\n  0x00\n    /* \"#utility.yul\":11222:11430   */\ntag_191:\n    /* \"#utility.yul\":11236:11243   */\n  dup3\n    /* \"#utility.yul\":11233:11234   */\n  dup2\n    /* \"#utility.yul\":11230:11244   */\n  lt\n    /* \"#utility.yul\":11222:11430   */\n  iszero\n  tag_193\n  jumpi\n    /* \"#utility.yul\":11315:11324   */\n  dup5\n    /* \"#utility.yul\":11310:11313   */\n  dup10\n    /* \"#utility.yul\":11306:11325   */\n  add\n    /* \"#utility.yul\":11300:11326   */\n  mload\n    /* \"#utility.yul\":11292:11298   */\n  dup3\n    /* \"#utility.yul\":11285:11327   */\n  sstore\n    /* \"#utility.yul\":11366:11367   */\n  0x01\n    /* \"#utility.yul\":11358:11364   */\n  dup3\n    /* \"#utility.yul\":11354:11368   */\n  add\n    /* \"#utility.yul\":11344:11368   */\n  swap2\n  pop\n    /* \"#utility.yul\":11413:11415   */\n  0x20\n    /* \"#utility.yul\":11402:11411   */\n  dup6\n    /* \"#utility.yul\":11398:11416   */\n  add\n    /* \"#utility.yul\":11385:11416   */\n  swap5\n  pop\n    /* \"#utility.yul\":11259:11263   */\n  0x20\n    /* \"#utility.yul\":11256:11257   */\n  dup2\n    /* \"#utility.yul\":11252:11264   */\n  add\n    /* \"#utility.yul\":11247:11264   */\n  swap1\n  pop\n    /* \"#utility.yul\":11222:11430   */\n  jump(tag_191)\ntag_193:\n    /* \"#utility.yul\":11458:11464   */\n  dup7\n    /* \"#utility.yul\":11449:11456   */\n  dup4\n    /* \"#utility.yul\":11446:11465   */\n  lt\n    /* \"#utility.yul\":11443:11622   */\n  iszero\n  tag_194\n  jumpi\n    /* \"#utility.yul\":11516:11525   */\n  dup5\n    /* \"#utility.yul\":11511:11514   */\n  dup10\n    /* \"#utility.yul\":11507:11526   */\n  add\n    /* \"#utility.yul\":11501:11527   */\n  mload\n    /* \"#utility.yul\":11559:11607   */\n  tag_195\n    /* \"#utility.yul\":11601:11605   */\n  0x1f\n    /* \"#utility.yul\":11593:11599   */\n  dup10\n    /* \"#utility.yul\":11589:11606   */\n  and\n    /* \"#utility.yul\":11578:11587   */\n  dup3\n    /* \"#utility.yul\":11559:11607   */\n  tag_54\n  jump\t// in\ntag_195:\n    /* \"#utility.yul\":11551:11557   */\n  dup4\n    /* \"#utility.yul\":11544:11608   */\n  sstore\n    /* \"#utility.yul\":11466:11622   */\n  pop\n    /* \"#utility.yul\":11443:11622   */\ntag_194:\n    /* \"#utility.yul\":11668:11669   */\n  0x01\n    /* \"#utility.yul\":11664:11665   */\n  0x02\n    /* \"#utility.yul\":11656:11662   */\n  dup9\n    /* \"#utility.yul\":11652:11666   */\n  mul\n    /* \"#utility.yul\":11648:11670   */\n  add\n    /* \"#utility.yul\":11642:11646   */\n  dup9\n    /* \"#utility.yul\":11635:11671   */\n  sstore\n    /* \"#utility.yul\":11070:11681   */\n  pop\n  pop\n  pop\n    /* \"#utility.yul\":11033:11920   */\ntag_186:\n  pop\n    /* \"#utility.yul\":10623:11926   */\n  pop\n  pop\n  pop\n    /* \"#utility.yul\":10531:11926   */\n  pop\n  pop\n  jump\t// out\n    /* \"Licitacao.sol\":1771:5907  contract Licitacao {... */\ntag_11:\n  dataSize(sub_0)\n  dup1\n  dataOffset(sub_0)\n  0x00\n  codecopy\n  0x00\n  return\nstop\n\nsub_0: assembly {\n        /* \"Licitacao.sol\":1771:5907  contract Licitacao {... */\n      mstore(0x40, 0x80)\n      callvalue\n      dup1\n      iszero\n      tag_1\n      jumpi\n      0x00\n      dup1\n      revert\n    tag_1:\n      pop\n      jumpi(tag_2, lt(calldatasize, 0x04))\n      shr(0xe0, calldataload(0x00))\n      dup1\n      0x9974da36\n      gt\n      tag_16\n      jumpi\n      dup1\n      0xf0dd3eac\n      gt\n      tag_17\n      jumpi\n      dup1\n      0xf0dd3eac\n      eq\n      tag_12\n      jumpi\n      dup1\n      0xf2a4a82e\n      eq\n      tag_13\n      jumpi\n      dup1\n      0xf2da0020\n      eq\n      tag_14\n      jumpi\n      dup1\n      0xf6c3a974\n      eq\n      tag_15\n      jumpi\n      jump(tag_2)\n    tag_17:\n      dup1\n      0x9974da36\n      eq\n      tag_9\n      jumpi\n      dup1\n      0xaf16e3ea\n      eq\n      tag_10\n      jumpi\n      dup1\n      0xda9968af\n      eq\n      tag_11\n      jumpi\n      jump(tag_2)\n    tag_16:\n      dup1\n      0x012e0d44\n      eq\n      tag_3\n      jumpi\n      dup1\n      0x15d8ae50\n      eq\n      tag_4\n      jumpi\n      dup1\n      0x169637a3\n      eq\n      tag_5\n      jumpi\n      dup1\n      0x5a9b0b89\n      eq\n      tag_6\n      jumpi\n      dup1\n      0x6d68a7aa\n      eq\n      tag_7\n      jumpi\n      dup1\n      0x8ac49914\n      eq\n      tag_8\n      jumpi\n    tag_2:\n      0x00\n      dup1\n      revert\n        /* \"Licitacao.sol\":2511:2540  Licitante[] public licitantes */\n    tag_3:\n      tag_18\n      0x04\n      dup1\n      calldatasize\n      sub\n      dup2\n      add\n      swap1\n      tag_19\n      swap2\n      swap1\n      tag_20\n      jump\t// in\n    tag_19:\n      tag_21\n      jump\t// in\n    tag_18:\n      mload(0x40)\n      tag_22\n      swap3\n      swap2\n      swap1\n      tag_23\n      jump\t// in\n    tag_22:\n      mload(0x40)\n      dup1\n      swap2\n      sub\n      swap1\n      return\n        /* \"Licitacao.sol\":1910:1938  bool public propostasAbertas */\n    tag_4:\n      tag_24\n      tag_25\n      jump\t// in\n    tag_24:\n      mload(0x40)\n      tag_26\n      swap2\n      swap1\n      tag_27\n      jump\t// in\n    tag_26:\n      mload(0x40)\n      dup1\n      swap2\n      sub\n      swap1\n      return\n        /* \"Licitacao.sol\":3518:3820  function propor(uint _valor) public isAceitandoPropostas {... */\n    tag_5:\n      tag_28\n      0x04\n      dup1\n      calldatasize\n      sub\n      dup2\n      add\n      swap1\n      tag_29\n      swap2\n      swap1\n      tag_20\n      jump\t// in\n    tag_29:\n      tag_30\n      jump\t// in\n    tag_28:\n      stop\n        /* \"Licitacao.sol\":4471:4978  function getInfo() public view returns(uint, uint,... */\n    tag_6:\n      tag_31\n      tag_32\n      jump\t// in\n    tag_31:\n      mload(0x40)\n      tag_33\n      swap10\n      swap9\n      swap8\n      swap7\n      swap6\n      swap5\n      swap4\n      swap3\n      swap2\n      swap1\n      tag_34\n      jump\t// in\n    tag_33:\n      mload(0x40)\n      dup1\n      swap2\n      sub\n      swap1\n      return\n        /* \"Licitacao.sol\":2303:2330  string public identificacao */\n    tag_7:\n      tag_35\n      tag_36\n      jump\t// in\n    tag_35:\n      mload(0x40)\n      tag_37\n      swap2\n      swap1\n      tag_38\n      jump\t// in\n    tag_37:\n      mload(0x40)\n      dup1\n      swap2\n      sub\n      swap1\n      return\n        /* \"Licitacao.sol\":3900:4105  function abrirPropostas() public isManager {... */\n    tag_8:\n      tag_39\n      tag_40\n      jump\t// in\n    tag_39:\n      stop\n        /* \"Licitacao.sol\":4176:4385  function vencedor() public view isFinished returns(Licitante memory) {... */\n    tag_9:\n      tag_41\n      tag_42\n      jump\t// in\n    tag_41:\n      mload(0x40)\n      tag_43\n      swap2\n      swap1\n      tag_44\n      jump\t// in\n    tag_43:\n      mload(0x40)\n      dup1\n      swap2\n      sub\n      swap1\n      return\n        /* \"Licitacao.sol\":1974:2000  uint public dataPublicacao */\n    tag_10:\n      tag_45\n      tag_46\n      jump\t// in\n    tag_45:\n      mload(0x40)\n      tag_47\n      swap2\n      swap1\n      tag_48\n      jump\t// in\n    tag_47:\n      mload(0x40)\n      dup1\n      swap2\n      sub\n      swap1\n      return\n        /* \"Licitacao.sol\":2365:2387  string public processo */\n    tag_11:\n      tag_49\n      tag_50\n      jump\t// in\n    tag_49:\n      mload(0x40)\n      tag_51\n      swap2\n      swap1\n      tag_38\n      jump\t// in\n    tag_51:\n      mload(0x40)\n      dup1\n      swap2\n      sub\n      swap1\n      return\n        /* \"Licitacao.sol\":2055:2087  uint public dataEntregaPropostas */\n    tag_12:\n      tag_52\n      tag_53\n      jump\t// in\n    tag_52:\n      mload(0x40)\n      tag_54\n      swap2\n      swap1\n      tag_48\n      jump\t// in\n    tag_54:\n      mload(0x40)\n      dup1\n      swap2\n      sub\n      swap1\n      return\n        /* \"Licitacao.sol\":2432:2448  Item public item */\n    tag_13:\n      tag_55\n      tag_56\n      jump\t// in\n    tag_55:\n      mload(0x40)\n      tag_57\n      swap4\n      swap3\n      swap2\n      swap1\n      tag_58\n      jump\t// in\n    tag_57:\n      mload(0x40)\n      dup1\n      swap2\n      sub\n      swap1\n      return\n        /* \"Licitacao.sol\":2245:2265  address public orgao */\n    tag_14:\n      tag_59\n      tag_60\n      jump\t// in\n    tag_59:\n      mload(0x40)\n      tag_61\n      swap2\n      swap1\n      tag_62\n      jump\t// in\n    tag_61:\n      mload(0x40)\n      dup1\n      swap2\n      sub\n      swap1\n      return\n        /* \"Licitacao.sol\":2164:2197  uint public dataAberturaPropostas */\n    tag_15:\n      tag_63\n      tag_64\n      jump\t// in\n    tag_63:\n      mload(0x40)\n      tag_65\n      swap2\n      swap1\n      tag_48\n      jump\t// in\n    tag_65:\n      mload(0x40)\n      dup1\n      swap2\n      sub\n      swap1\n      return\n        /* \"Licitacao.sol\":2511:2540  Licitante[] public licitantes */\n    tag_21:\n      0x0a\n      dup2\n      dup2\n      sload\n      dup2\n      lt\n      tag_66\n      jumpi\n      0x00\n      dup1\n      revert\n    tag_66:\n      swap1\n      0x00\n      mstore\n      keccak256(0x00, 0x20)\n      swap1\n      0x02\n      mul\n      add\n      0x00\n      swap2\n      pop\n      swap1\n      pop\n      dup1\n      0x00\n      add\n      0x00\n      swap1\n      sload\n      swap1\n      0x0100\n      exp\n      swap1\n      div\n      0xffffffffffffffffffffffffffffffffffffffff\n      and\n      swap1\n      dup1\n      0x01\n      add\n      sload\n      swap1\n      pop\n      dup3\n      jump\t// out\n        /* \"Licitacao.sol\":1910:1938  bool public propostasAbertas */\n    tag_25:\n      0x00\n      dup1\n      sload\n      swap1\n      0x0100\n      exp\n      swap1\n      div\n      0xff\n      and\n      dup2\n      jump\t// out\n        /* \"Licitacao.sol\":3518:3820  function propor(uint _valor) public isAceitandoPropostas {... */\n    tag_30:\n        /* \"Licitacao.sol\":5465:5480  block.timestamp */\n      timestamp\n        /* \"Licitacao.sol\":5441:5462  dataAberturaPropostas */\n      sload(0x03)\n        /* \"Licitacao.sol\":5441:5480  dataAberturaPropostas > block.timestamp */\n      gt\n        /* \"Licitacao.sol\":5441:5539  dataAberturaPropostas > block.timestamp... */\n      dup1\n      iszero\n      tag_69\n      jumpi\n      pop\n        /* \"Licitacao.sol\":5524:5539  block.timestamp */\n      timestamp\n        /* \"Licitacao.sol\":5501:5521  dataEntregaPropostas */\n      sload(0x02)\n        /* \"Licitacao.sol\":5501:5539  dataEntregaPropostas < block.timestamp */\n      lt\n        /* \"Licitacao.sol\":5441:5539  dataAberturaPropostas > block.timestamp... */\n    tag_69:\n        /* \"Licitacao.sol\":5441:5577  dataAberturaPropostas > block.timestamp... */\n      dup1\n      iszero\n      tag_70\n      jumpi\n      pop\n        /* \"Licitacao.sol\":5561:5577  propostasAbertas */\n      0x00\n      dup1\n      sload\n      swap1\n      0x0100\n      exp\n      swap1\n      div\n      0xff\n      and\n        /* \"Licitacao.sol\":5560:5577  !propostasAbertas */\n      iszero\n        /* \"Licitacao.sol\":5441:5577  dataAberturaPropostas > block.timestamp... */\n    tag_70:\n        /* \"Licitacao.sol\":5441:5617  dataAberturaPropostas > block.timestamp... */\n      dup1\n      iszero\n      tag_71\n      jumpi\n      pop\n        /* \"Licitacao.sol\":5616:5617  0 */\n      0x00\n        /* \"Licitacao.sol\":5598:5612  dataPublicacao */\n      sload(0x01)\n        /* \"Licitacao.sol\":5598:5617  dataPublicacao != 0 */\n      eq\n      iszero\n        /* \"Licitacao.sol\":5441:5617  dataAberturaPropostas > block.timestamp... */\n    tag_71:\n        /* \"Licitacao.sol\":5433:5660  require(dataAberturaPropostas > block.timestamp... */\n      tag_72\n      jumpi\n      mload(0x40)\n      0x08c379a000000000000000000000000000000000000000000000000000000000\n      dup2\n      mstore\n      0x04\n      add\n      tag_73\n      swap1\n      tag_74\n      jump\t// in\n    tag_73:\n      mload(0x40)\n      dup1\n      swap2\n      sub\n      swap1\n      revert\n    tag_72:\n        /* \"Licitacao.sol\":3586:3607  Licitante storage lic */\n      0x00\n        /* \"Licitacao.sol\":3610:3620  licitantes */\n      0x0a\n        /* \"Licitacao.sol\":3610:3627  licitantes.push() */\n      0x01\n      dup2\n      0x01\n      dup2\n      sload\n      add\n      dup1\n      dup3\n      sstore\n      dup1\n      swap2\n      pop\n      pop\n      sub\n      swap1\n      0x00\n      mstore\n      keccak256(0x00, 0x20)\n      swap1\n      0x02\n      mul\n      add\n        /* \"Licitacao.sol\":3586:3627  Licitante storage lic = licitantes.push() */\n      swap1\n      pop\n        /* \"Licitacao.sol\":3653:3663  msg.sender */\n      caller\n        /* \"Licitacao.sol\":3638:3641  lic */\n      dup2\n        /* \"Licitacao.sol\":3638:3650  lic.endereco */\n      0x00\n      add\n      0x00\n        /* \"Licitacao.sol\":3638:3663  lic.endereco = msg.sender */\n      0x0100\n      exp\n      dup2\n      sload\n      dup2\n      0xffffffffffffffffffffffffffffffffffffffff\n      mul\n      not\n      and\n      swap1\n      dup4\n      0xffffffffffffffffffffffffffffffffffffffff\n      and\n      mul\n      or\n      swap1\n      sstore\n      pop\n        /* \"Licitacao.sol\":3686:3692  _valor */\n      dup2\n        /* \"Licitacao.sol\":3674:3677  lic */\n      dup2\n        /* \"Licitacao.sol\":3674:3683  lic.valor */\n      0x01\n      add\n        /* \"Licitacao.sol\":3674:3692  lic.valor = _valor */\n      dup2\n      swap1\n      sstore\n      pop\n        /* \"Licitacao.sol\":3716:3726  licitantes */\n      0x0a\n        /* \"Licitacao.sol\":3727:3740  vencedorIndex */\n      sload(0x0b)\n        /* \"Licitacao.sol\":3716:3741  licitantes[vencedorIndex] */\n      dup2\n      sload\n      dup2\n      lt\n      tag_77\n      jumpi\n      tag_78\n      tag_79\n      jump\t// in\n    tag_78:\n    tag_77:\n      swap1\n      0x00\n      mstore\n      keccak256(0x00, 0x20)\n      swap1\n      0x02\n      mul\n      add\n        /* \"Licitacao.sol\":3716:3747  licitantes[vencedorIndex].valor */\n      0x01\n      add\n      sload\n        /* \"Licitacao.sol\":3707:3713  _valor */\n      dup3\n        /* \"Licitacao.sol\":3707:3747  _valor < licitantes[vencedorIndex].valor */\n      lt\n        /* \"Licitacao.sol\":3703:3813  if (_valor < licitantes[vencedorIndex].valor) {... */\n      iszero\n      tag_81\n      jumpi\n        /* \"Licitacao.sol\":3800:3801  1 */\n      0x01\n        /* \"Licitacao.sol\":3780:3790  licitantes */\n      0x0a\n        /* \"Licitacao.sol\":3780:3797  licitantes.length */\n      dup1\n      sload\n      swap1\n      pop\n        /* \"Licitacao.sol\":3780:3801  licitantes.length - 1 */\n      tag_82\n      swap2\n      swap1\n      tag_83\n      jump\t// in\n    tag_82:\n        /* \"Licitacao.sol\":3764:3777  vencedorIndex */\n      0x0b\n        /* \"Licitacao.sol\":3764:3801  vencedorIndex = licitantes.length - 1 */\n      dup2\n      swap1\n      sstore\n      pop\n        /* \"Licitacao.sol\":3703:3813  if (_valor < licitantes[vencedorIndex].valor) {... */\n    tag_81:\n        /* \"Licitacao.sol\":3575:3820  {... */\n      pop\n        /* \"Licitacao.sol\":3518:3820  function propor(uint _valor) public isAceitandoPropostas {... */\n      pop\n      jump\t// out\n        /* \"Licitacao.sol\":4471:4978  function getInfo() public view returns(uint, uint,... */\n    tag_32:\n        /* \"Licitacao.sol\":4510:4514  uint */\n      0x00\n        /* \"Licitacao.sol\":4516:4520  uint */\n      dup1\n        /* \"Licitacao.sol\":4567:4571  uint */\n      0x00\n        /* \"Licitacao.sol\":4573:4580  address */\n      dup1\n        /* \"Licitacao.sol\":4627:4640  string memory */\n      0x60\n        /* \"Licitacao.sol\":4642:4655  string memory */\n      dup1\n        /* \"Licitacao.sol\":4702:4713  Item memory */\n      tag_84\n      tag_85\n      jump\t// in\n    tag_84:\n        /* \"Licitacao.sol\":4715:4719  uint */\n      0x00\n        /* \"Licitacao.sol\":4721:4728  address */\n      dup1\n        /* \"Licitacao.sol\":4749:4763  dataPublicacao */\n      sload(0x01)\n        /* \"Licitacao.sol\":4765:4785  dataEntregaPropostas */\n      sload(0x02)\n        /* \"Licitacao.sol\":4804:4825  dataAberturaPropostas */\n      sload(0x03)\n        /* \"Licitacao.sol\":4827:4832  orgao */\n      0x04\n      0x00\n      swap1\n      sload\n      swap1\n      0x0100\n      exp\n      swap1\n      div\n      0xffffffffffffffffffffffffffffffffffffffff\n      and\n        /* \"Licitacao.sol\":4851:4864  identificacao */\n      0x05\n        /* \"Licitacao.sol\":4866:4874  processo */\n      0x06\n        /* \"Licitacao.sol\":4876:4880  item */\n      0x07\n        /* \"Licitacao.sol\":4899:4909  licitantes */\n      0x0a\n        /* \"Licitacao.sol\":4899:4916  licitantes.length */\n      dup1\n      sload\n      swap1\n      pop\n        /* \"Licitacao.sol\":4918:4934  propostasAbertas */\n      0x00\n      dup1\n      sload\n      swap1\n      0x0100\n      exp\n      swap1\n      div\n      0xff\n      and\n        /* \"Licitacao.sol\":4918:4969  propostasAbertas ? vencedor().endereco : address(0) */\n      tag_87\n      jumpi\n        /* \"Licitacao.sol\":4967:4968  0 */\n      0x00\n        /* \"Licitacao.sol\":4918:4969  propostasAbertas ? vencedor().endereco : address(0) */\n      jump(tag_88)\n    tag_87:\n        /* \"Licitacao.sol\":4937:4947  vencedor() */\n      tag_89\n        /* \"Licitacao.sol\":4937:4945  vencedor */\n      tag_42\n        /* \"Licitacao.sol\":4937:4947  vencedor() */\n      jump\t// in\n    tag_89:\n        /* \"Licitacao.sol\":4937:4956  vencedor().endereco */\n      0x00\n      add\n      mload\n        /* \"Licitacao.sol\":4918:4969  propostasAbertas ? vencedor().endereco : address(0) */\n    tag_88:\n        /* \"Licitacao.sol\":4741:4970  return (dataPublicacao, dataEntregaPropostas,... */\n      dup5\n      dup1\n      sload\n      tag_90\n      swap1\n      tag_91\n      jump\t// in\n    tag_90:\n      dup1\n      0x1f\n      add\n      0x20\n      dup1\n      swap2\n      div\n      mul\n      0x20\n      add\n      mload(0x40)\n      swap1\n      dup2\n      add\n      0x40\n      mstore\n      dup1\n      swap3\n      swap2\n      swap1\n      dup2\n      dup2\n      mstore\n      0x20\n      add\n      dup3\n      dup1\n      sload\n      tag_92\n      swap1\n      tag_91\n      jump\t// in\n    tag_92:\n      dup1\n      iszero\n      tag_93\n      jumpi\n      dup1\n      0x1f\n      lt\n      tag_94\n      jumpi\n      0x0100\n      dup1\n      dup4\n      sload\n      div\n      mul\n      dup4\n      mstore\n      swap2\n      0x20\n      add\n      swap2\n      jump(tag_93)\n    tag_94:\n      dup3\n      add\n      swap2\n      swap1\n      0x00\n      mstore\n      keccak256(0x00, 0x20)\n      swap1\n    tag_95:\n      dup2\n      sload\n      dup2\n      mstore\n      swap1\n      0x01\n      add\n      swap1\n      0x20\n      add\n      dup1\n      dup4\n      gt\n      tag_95\n      jumpi\n      dup3\n      swap1\n      sub\n      0x1f\n      and\n      dup3\n      add\n      swap2\n    tag_93:\n      pop\n      pop\n      pop\n      pop\n      pop\n      swap5\n      pop\n      dup4\n      dup1\n      sload\n      tag_96\n      swap1\n      tag_91\n      jump\t// in\n    tag_96:\n      dup1\n      0x1f\n      add\n      0x20\n      dup1\n      swap2\n      div\n      mul\n      0x20\n      add\n      mload(0x40)\n      swap1\n      dup2\n      add\n      0x40\n      mstore\n      dup1\n      swap3\n      swap2\n      swap1\n      dup2\n      dup2\n      mstore\n      0x20\n      add\n      dup3\n      dup1\n      sload\n      tag_97\n      swap1\n      tag_91\n      jump\t// in\n    tag_97:\n      dup1\n      iszero\n      tag_98\n      jumpi\n      dup1\n      0x1f\n      lt\n      tag_99\n      jumpi\n      0x0100\n      dup1\n      dup4\n      sload\n      div\n      mul\n      dup4\n      mstore\n      swap2\n      0x20\n      add\n      swap2\n      jump(tag_98)\n    tag_99:\n      dup3\n      add\n      swap2\n      swap1\n      0x00\n      mstore\n      keccak256(0x00, 0x20)\n      swap1\n    tag_100:\n      dup2\n      sload\n      dup2\n      mstore\n      swap1\n      0x01\n      add\n      swap1\n      0x20\n      add\n      dup1\n      dup4\n      gt\n      tag_100\n      jumpi\n      dup3\n      swap1\n      sub\n      0x1f\n      and\n      dup3\n      add\n      swap2\n    tag_98:\n      pop\n      pop\n      pop\n      pop\n      pop\n      swap4\n      pop\n      dup3\n      mload(0x40)\n      dup1\n      0x60\n      add\n      0x40\n      mstore\n      swap1\n      dup2\n      0x00\n      dup3\n      add\n      dup1\n      sload\n      tag_101\n      swap1\n      tag_91\n      jump\t// in\n    tag_101:\n      dup1\n      0x1f\n      add\n      0x20\n      dup1\n      swap2\n      div\n      mul\n      0x20\n      add\n      mload(0x40)\n      swap1\n      dup2\n      add\n      0x40\n      mstore\n      dup1\n      swap3\n      swap2\n      swap1\n      dup2\n      dup2\n      mstore\n      0x20\n      add\n      dup3\n      dup1\n      sload\n      tag_102\n      swap1\n      tag_91\n      jump\t// in\n    tag_102:\n      dup1\n      iszero\n      tag_103\n      jumpi\n      dup1\n      0x1f\n      lt\n      tag_104\n      jumpi\n      0x0100\n      dup1\n      dup4\n      sload\n      div\n      mul\n      dup4\n      mstore\n      swap2\n      0x20\n      add\n      swap2\n      jump(tag_103)\n    tag_104:\n      dup3\n      add\n      swap2\n      swap1\n      0x00\n      mstore\n      keccak256(0x00, 0x20)\n      swap1\n    tag_105:\n      dup2\n      sload\n      dup2\n      mstore\n      swap1\n      0x01\n      add\n      swap1\n      0x20\n      add\n      dup1\n      dup4\n      gt\n      tag_105\n      jumpi\n      dup3\n      swap1\n      sub\n      0x1f\n      and\n      dup3\n      add\n      swap2\n    tag_103:\n      pop\n      pop\n      pop\n      pop\n      pop\n      dup2\n      mstore\n      0x20\n      add\n      0x01\n      dup3\n      add\n      dup1\n      sload\n      tag_106\n      swap1\n      tag_91\n      jump\t// in\n    tag_106:\n      dup1\n      0x1f\n      add\n      0x20\n      dup1\n      swap2\n      div\n      mul\n      0x20\n      add\n      mload(0x40)\n      swap1\n      dup2\n      add\n      0x40\n      mstore\n      dup1\n      swap3\n      swap2\n      swap1\n      dup2\n      dup2\n      mstore\n      0x20\n      add\n      dup3\n      dup1\n      sload\n      tag_107\n      swap1\n      tag_91\n      jump\t// in\n    tag_107:\n      dup1\n      iszero\n      tag_108\n      jumpi\n      dup1\n      0x1f\n      lt\n      tag_109\n      jumpi\n      0x0100\n      dup1\n      dup4\n      sload\n      div\n      mul\n      dup4\n      mstore\n      swap2\n      0x20\n      add\n      swap2\n      jump(tag_108)\n    tag_109:\n      dup3\n      add\n      swap2\n      swap1\n      0x00\n      mstore\n      keccak256(0x00, 0x20)\n      swap1\n    tag_110:\n      dup2\n      sload\n      dup2\n      mstore\n      swap1\n      0x01\n      add\n      swap1\n      0x20\n      add\n      dup1\n      dup4\n      gt\n      tag_110\n      jumpi\n      dup3\n      swap1\n      sub\n      0x1f\n      and\n      dup3\n      add\n      swap2\n    tag_108:\n      pop\n      pop\n      pop\n      pop\n      pop\n      dup2\n      mstore\n      0x20\n      add\n      0x02\n      dup3\n      add\n      0x00\n      swap1\n      sload\n      swap1\n      0x0100\n      exp\n      swap1\n      div\n      0xffff\n      and\n      0xffff\n      and\n      0xffff\n      and\n      dup2\n      mstore\n      pop\n      pop\n      swap3\n      pop\n      swap9\n      pop\n      swap9\n      pop\n      swap9\n      pop\n      swap9\n      pop\n      swap9\n      pop\n      swap9\n      pop\n      swap9\n      pop\n      swap9\n      pop\n      swap9\n      pop\n        /* \"Licitacao.sol\":4471:4978  function getInfo() public view returns(uint, uint,... */\n      swap1\n      swap2\n      swap3\n      swap4\n      swap5\n      swap6\n      swap7\n      swap8\n      swap9\n      jump\t// out\n        /* \"Licitacao.sol\":2303:2330  string public identificacao */\n    tag_36:\n      0x05\n      dup1\n      sload\n      tag_111\n      swap1\n      tag_91\n      jump\t// in\n    tag_111:\n      dup1\n      0x1f\n      add\n      0x20\n      dup1\n      swap2\n      div\n      mul\n      0x20\n      add\n      mload(0x40)\n      swap1\n      dup2\n      add\n      0x40\n      mstore\n      dup1\n      swap3\n      swap2\n      swap1\n      dup2\n      dup2\n      mstore\n      0x20\n      add\n      dup3\n      dup1\n      sload\n      tag_112\n      swap1\n      tag_91\n      jump\t// in\n    tag_112:\n      dup1\n      iszero\n      tag_113\n      jumpi\n      dup1\n      0x1f\n      lt\n      tag_114\n      jumpi\n      0x0100\n      dup1\n      dup4\n      sload\n      div\n      mul\n      dup4\n      mstore\n      swap2\n      0x20\n      add\n      swap2\n      jump(tag_113)\n    tag_114:\n      dup3\n      add\n      swap2\n      swap1\n      0x00\n      mstore\n      keccak256(0x00, 0x20)\n      swap1\n    tag_115:\n      dup2\n      sload\n      dup2\n      mstore\n      swap1\n      0x01\n      add\n      swap1\n      0x20\n      add\n      dup1\n      dup4\n      gt\n      tag_115\n      jumpi\n      dup3\n      swap1\n      sub\n      0x1f\n      and\n      dup3\n      add\n      swap2\n    tag_113:\n      pop\n      pop\n      pop\n      pop\n      pop\n      dup2\n      jump\t// out\n        /* \"Licitacao.sol\":3900:4105  function abrirPropostas() public isManager {... */\n    tag_40:\n        /* \"Licitacao.sol\":5183:5188  orgao */\n      0x04\n      0x00\n      swap1\n      sload\n      swap1\n      0x0100\n      exp\n      swap1\n      div\n      0xffffffffffffffffffffffffffffffffffffffff\n      and\n        /* \"Licitacao.sol\":5169:5188  msg.sender == orgao */\n      0xffffffffffffffffffffffffffffffffffffffff\n      and\n        /* \"Licitacao.sol\":5169:5179  msg.sender */\n      caller\n        /* \"Licitacao.sol\":5169:5188  msg.sender == orgao */\n      0xffffffffffffffffffffffffffffffffffffffff\n      and\n      eq\n        /* \"Licitacao.sol\":5161:5242  require(msg.sender == orgao, \"Apenas o orgao requerente pode chamar essa funcao\") */\n      tag_117\n      jumpi\n      mload(0x40)\n      0x08c379a000000000000000000000000000000000000000000000000000000000\n      dup2\n      mstore\n      0x04\n      add\n      tag_118\n      swap1\n      tag_119\n      jump\t// in\n    tag_118:\n      mload(0x40)\n      dup1\n      swap2\n      sub\n      swap1\n      revert\n    tag_117:\n        /* \"Licitacao.sol\":3986:4001  block.timestamp */\n      timestamp\n        /* \"Licitacao.sol\":3962:3983  dataAberturaPropostas */\n      sload(0x03)\n        /* \"Licitacao.sol\":3962:4001  dataAberturaPropostas < block.timestamp */\n      lt\n        /* \"Licitacao.sol\":3954:4063  require(dataAberturaPropostas < block.timestamp, \"Data de abertura das propostas publicado ainda nao chegou\") */\n      tag_121\n      jumpi\n      mload(0x40)\n      0x08c379a000000000000000000000000000000000000000000000000000000000\n      dup2\n      mstore\n      0x04\n      add\n      tag_122\n      swap1\n      tag_123\n      jump\t// in\n    tag_122:\n      mload(0x40)\n      dup1\n      swap2\n      sub\n      swap1\n      revert\n    tag_121:\n        /* \"Licitacao.sol\":4093:4097  true */\n      0x01\n        /* \"Licitacao.sol\":4074:4090  propostasAbertas */\n      0x00\n      dup1\n        /* \"Licitacao.sol\":4074:4097  propostasAbertas = true */\n      0x0100\n      exp\n      dup2\n      sload\n      dup2\n      0xff\n      mul\n      not\n      and\n      swap1\n      dup4\n      iszero\n      iszero\n      mul\n      or\n      swap1\n      sstore\n      pop\n        /* \"Licitacao.sol\":3900:4105  function abrirPropostas() public isManager {... */\n      jump\t// out\n        /* \"Licitacao.sol\":4176:4385  function vencedor() public view isFinished returns(Licitante memory) {... */\n    tag_42:\n        /* \"Licitacao.sol\":4227:4243  Licitante memory */\n      tag_124\n      tag_125\n      jump\t// in\n    tag_124:\n        /* \"Licitacao.sol\":5800:5815  block.timestamp */\n      timestamp\n        /* \"Licitacao.sol\":5776:5797  dataAberturaPropostas */\n      sload(0x03)\n        /* \"Licitacao.sol\":5776:5815  dataAberturaPropostas < block.timestamp */\n      lt\n        /* \"Licitacao.sol\":5776:5835  dataAberturaPropostas < block.timestamp || propostasAbertas */\n      dup1\n      tag_127\n      jumpi\n      pop\n        /* \"Licitacao.sol\":5819:5835  propostasAbertas */\n      0x00\n      dup1\n      sload\n      swap1\n      0x0100\n      exp\n      swap1\n      div\n      0xff\n      and\n        /* \"Licitacao.sol\":5776:5835  dataAberturaPropostas < block.timestamp || propostasAbertas */\n    tag_127:\n        /* \"Licitacao.sol\":5768:5882  require(dataAberturaPropostas < block.timestamp || propostasAbertas, \"Abertura das propostas ainda nao realizada\") */\n      tag_128\n      jumpi\n      mload(0x40)\n      0x08c379a000000000000000000000000000000000000000000000000000000000\n      dup2\n      mstore\n      0x04\n      add\n      tag_129\n      swap1\n      tag_130\n      jump\t// in\n    tag_129:\n      mload(0x40)\n      dup1\n      swap2\n      sub\n      swap1\n      revert\n    tag_128:\n        /* \"Licitacao.sol\":4285:4286  0 */\n      0x00\n        /* \"Licitacao.sol\":4264:4274  licitantes */\n      0x0a\n        /* \"Licitacao.sol\":4264:4281  licitantes.length */\n      dup1\n      sload\n      swap1\n      pop\n        /* \"Licitacao.sol\":4264:4286  licitantes.length != 0 */\n      sub\n        /* \"Licitacao.sol\":4256:4334  require(licitantes.length != 0, \"Nao ha nenhum licitante para esta licitacao\") */\n      tag_132\n      jumpi\n      mload(0x40)\n      0x08c379a000000000000000000000000000000000000000000000000000000000\n      dup2\n      mstore\n      0x04\n      add\n      tag_133\n      swap1\n      tag_134\n      jump\t// in\n    tag_133:\n      mload(0x40)\n      dup1\n      swap2\n      sub\n      swap1\n      revert\n    tag_132:\n        /* \"Licitacao.sol\":4352:4362  licitantes */\n      0x0a\n        /* \"Licitacao.sol\":4363:4376  vencedorIndex */\n      sload(0x0b)\n        /* \"Licitacao.sol\":4352:4377  licitantes[vencedorIndex] */\n      dup2\n      sload\n      dup2\n      lt\n      tag_135\n      jumpi\n      tag_136\n      tag_79\n      jump\t// in\n    tag_136:\n    tag_135:\n      swap1\n      0x00\n      mstore\n      keccak256(0x00, 0x20)\n      swap1\n      0x02\n      mul\n      add\n        /* \"Licitacao.sol\":4345:4377  return licitantes[vencedorIndex] */\n      mload(0x40)\n      dup1\n      0x40\n      add\n      0x40\n      mstore\n      swap1\n      dup2\n      0x00\n      dup3\n      add\n      0x00\n      swap1\n      sload\n      swap1\n      0x0100\n      exp\n      swap1\n      div\n      0xffffffffffffffffffffffffffffffffffffffff\n      and\n      0xffffffffffffffffffffffffffffffffffffffff\n      and\n      0xffffffffffffffffffffffffffffffffffffffff\n      and\n      dup2\n      mstore\n      0x20\n      add\n      0x01\n      dup3\n      add\n      sload\n      dup2\n      mstore\n      pop\n      pop\n      swap1\n      pop\n        /* \"Licitacao.sol\":4176:4385  function vencedor() public view isFinished returns(Licitante memory) {... */\n      swap1\n      jump\t// out\n        /* \"Licitacao.sol\":1974:2000  uint public dataPublicacao */\n    tag_46:\n      sload(0x01)\n      dup2\n      jump\t// out\n        /* \"Licitacao.sol\":2365:2387  string public processo */\n    tag_50:\n      0x06\n      dup1\n      sload\n      tag_138\n      swap1\n      tag_91\n      jump\t// in\n    tag_138:\n      dup1\n      0x1f\n      add\n      0x20\n      dup1\n      swap2\n      div\n      mul\n      0x20\n      add\n      mload(0x40)\n      swap1\n      dup2\n      add\n      0x40\n      mstore\n      dup1\n      swap3\n      swap2\n      swap1\n      dup2\n      dup2\n      mstore\n      0x20\n      add\n      dup3\n      dup1\n      sload\n      tag_139\n      swap1\n      tag_91\n      jump\t// in\n    tag_139:\n      dup1\n      iszero\n      tag_140\n      jumpi\n      dup1\n      0x1f\n      lt\n      tag_141\n      jumpi\n      0x0100\n      dup1\n      dup4\n      sload\n      div\n      mul\n      dup4\n      mstore\n      swap2\n      0x20\n      add\n      swap2\n      jump(tag_140)\n    tag_141:\n      dup3\n      add\n      swap2\n      swap1\n      0x00\n      mstore\n      keccak256(0x00, 0x20)\n      swap1\n    tag_142:\n      dup2\n      sload\n      dup2\n      mstore\n      swap1\n      0x01\n      add\n      swap1\n      0x20\n      add\n      dup1\n      dup4\n      gt\n      tag_142\n      jumpi\n      dup3\n      swap1\n      sub\n      0x1f\n      and\n      dup3\n      add\n      swap2\n    tag_140:\n      pop\n      pop\n      pop\n      pop\n      pop\n      dup2\n      jump\t// out\n        /* \"Licitacao.sol\":2055:2087  uint public dataEntregaPropostas */\n    tag_53:\n      sload(0x02)\n      dup2\n      jump\t// out\n        /* \"Licitacao.sol\":2432:2448  Item public item */\n    tag_56:\n      0x07\n      dup1\n      0x00\n      add\n      dup1\n      sload\n      tag_143\n      swap1\n      tag_91\n      jump\t// in\n    tag_143:\n      dup1\n      0x1f\n      add\n      0x20\n      dup1\n      swap2\n      div\n      mul\n      0x20\n      add\n      mload(0x40)\n      swap1\n      dup2\n      add\n      0x40\n      mstore\n      dup1\n      swap3\n      swap2\n      swap1\n      dup2\n      dup2\n      mstore\n      0x20\n      add\n      dup3\n      dup1\n      sload\n      tag_144\n      swap1\n      tag_91\n      jump\t// in\n    tag_144:\n      dup1\n      iszero\n      tag_145\n      jumpi\n      dup1\n      0x1f\n      lt\n      tag_146\n      jumpi\n      0x0100\n      dup1\n      dup4\n      sload\n      div\n      mul\n      dup4\n      mstore\n      swap2\n      0x20\n      add\n      swap2\n      jump(tag_145)\n    tag_146:\n      dup3\n      add\n      swap2\n      swap1\n      0x00\n      mstore\n      keccak256(0x00, 0x20)\n      swap1\n    tag_147:\n      dup2\n      sload\n      dup2\n      mstore\n      swap1\n      0x01\n      add\n      swap1\n      0x20\n      add\n      dup1\n      dup4\n      gt\n      tag_147\n      jumpi\n      dup3\n      swap1\n      sub\n      0x1f\n      and\n      dup3\n      add\n      swap2\n    tag_145:\n      pop\n      pop\n      pop\n      pop\n      pop\n      swap1\n      dup1\n      0x01\n      add\n      dup1\n      sload\n      tag_148\n      swap1\n      tag_91\n      jump\t// in\n    tag_148:\n      dup1\n      0x1f\n      add\n      0x20\n      dup1\n      swap2\n      div\n      mul\n      0x20\n      add\n      mload(0x40)\n      swap1\n      dup2\n      add\n      0x40\n      mstore\n      dup1\n      swap3\n      swap2\n      swap1\n      dup2\n      dup2\n      mstore\n      0x20\n      add\n      dup3\n      dup1\n      sload\n      tag_149\n      swap1\n      tag_91\n      jump\t// in\n    tag_149:\n      dup1\n      iszero\n      tag_150\n      jumpi\n      dup1\n      0x1f\n      lt\n      tag_151\n      jumpi\n      0x0100\n      dup1\n      dup4\n      sload\n      div\n      mul\n      dup4\n      mstore\n      swap2\n      0x20\n      add\n      swap2\n      jump(tag_150)\n    tag_151:\n      dup3\n      add\n      swap2\n      swap1\n      0x00\n      mstore\n      keccak256(0x00, 0x20)\n      swap1\n    tag_152:\n      dup2\n      sload\n      dup2\n      mstore\n      swap1\n      0x01\n      add\n      swap1\n      0x20\n      add\n      dup1\n      dup4\n      gt\n      tag_152\n      jumpi\n      dup3\n      swap1\n      sub\n      0x1f\n      and\n      dup3\n      add\n      swap2\n    tag_150:\n      pop\n      pop\n      pop\n      pop\n      pop\n      swap1\n      dup1\n      0x02\n      add\n      0x00\n      swap1\n      sload\n      swap1\n      0x0100\n      exp\n      swap1\n      div\n      0xffff\n      and\n      swap1\n      pop\n      dup4\n      jump\t// out\n        /* \"Licitacao.sol\":2245:2265  address public orgao */\n    tag_60:\n      0x04\n      0x00\n      swap1\n      sload\n      swap1\n      0x0100\n      exp\n      swap1\n      div\n      0xffffffffffffffffffffffffffffffffffffffff\n      and\n      dup2\n      jump\t// out\n        /* \"Licitacao.sol\":2164:2197  uint public dataAberturaPropostas */\n    tag_64:\n      sload(0x03)\n      dup2\n      jump\t// out\n    tag_85:\n      mload(0x40)\n      dup1\n      0x60\n      add\n      0x40\n      mstore\n      dup1\n      0x60\n      dup2\n      mstore\n      0x20\n      add\n      0x60\n      dup2\n      mstore\n      0x20\n      add\n      and(0xffff, 0x00)\n      dup2\n      mstore\n      pop\n      swap1\n      jump\t// out\n    tag_125:\n      mload(0x40)\n      dup1\n      0x40\n      add\n      0x40\n      mstore\n      dup1\n      and(0xffffffffffffffffffffffffffffffffffffffff, 0x00)\n      dup2\n      mstore\n      0x20\n      add\n      0x00\n      dup2\n      mstore\n      pop\n      swap1\n      jump\t// out\n        /* \"#utility.yul\":88:205   */\n    tag_154:\n        /* \"#utility.yul\":197:198   */\n      0x00\n        /* \"#utility.yul\":194:195   */\n      dup1\n        /* \"#utility.yul\":187:199   */\n      revert\n        /* \"#utility.yul\":334:411   */\n    tag_156:\n        /* \"#utility.yul\":371:378   */\n      0x00\n        /* \"#utility.yul\":400:405   */\n      dup2\n        /* \"#utility.yul\":389:405   */\n      swap1\n      pop\n        /* \"#utility.yul\":334:411   */\n      swap2\n      swap1\n      pop\n      jump\t// out\n        /* \"#utility.yul\":417:539   */\n    tag_157:\n        /* \"#utility.yul\":490:514   */\n      tag_197\n        /* \"#utility.yul\":508:513   */\n      dup2\n        /* \"#utility.yul\":490:514   */\n      tag_156\n      jump\t// in\n    tag_197:\n        /* \"#utility.yul\":483:488   */\n      dup2\n        /* \"#utility.yul\":480:515   */\n      eq\n        /* \"#utility.yul\":470:533   */\n      tag_198\n      jumpi\n        /* \"#utility.yul\":529:530   */\n      0x00\n        /* \"#utility.yul\":526:527   */\n      dup1\n        /* \"#utility.yul\":519:531   */\n      revert\n        /* \"#utility.yul\":470:533   */\n    tag_198:\n        /* \"#utility.yul\":417:539   */\n      pop\n      jump\t// out\n        /* \"#utility.yul\":545:684   */\n    tag_158:\n        /* \"#utility.yul\":591:596   */\n      0x00\n        /* \"#utility.yul\":629:635   */\n      dup2\n        /* \"#utility.yul\":616:636   */\n      calldataload\n        /* \"#utility.yul\":607:636   */\n      swap1\n      pop\n        /* \"#utility.yul\":645:678   */\n      tag_200\n        /* \"#utility.yul\":672:677   */\n      dup2\n        /* \"#utility.yul\":645:678   */\n      tag_157\n      jump\t// in\n    tag_200:\n        /* \"#utility.yul\":545:684   */\n      swap3\n      swap2\n      pop\n      pop\n      jump\t// out\n        /* \"#utility.yul\":690:1019   */\n    tag_20:\n        /* \"#utility.yul\":749:755   */\n      0x00\n        /* \"#utility.yul\":798:800   */\n      0x20\n        /* \"#utility.yul\":786:795   */\n      dup3\n        /* \"#utility.yul\":777:784   */\n      dup5\n        /* \"#utility.yul\":773:796   */\n      sub\n        /* \"#utility.yul\":769:801   */\n      slt\n        /* \"#utility.yul\":766:885   */\n      iszero\n      tag_202\n      jumpi\n        /* \"#utility.yul\":804:883   */\n      tag_203\n      tag_154\n      jump\t// in\n    tag_203:\n        /* \"#utility.yul\":766:885   */\n    tag_202:\n        /* \"#utility.yul\":924:925   */\n      0x00\n        /* \"#utility.yul\":949:1002   */\n      tag_204\n        /* \"#utility.yul\":994:1001   */\n      dup5\n        /* \"#utility.yul\":985:991   */\n      dup3\n        /* \"#utility.yul\":974:983   */\n      dup6\n        /* \"#utility.yul\":970:992   */\n      add\n        /* \"#utility.yul\":949:1002   */\n      tag_158\n      jump\t// in\n    tag_204:\n        /* \"#utility.yul\":939:1002   */\n      swap2\n      pop\n        /* \"#utility.yul\":895:1012   */\n      pop\n        /* \"#utility.yul\":690:1019   */\n      swap3\n      swap2\n      pop\n      pop\n      jump\t// out\n        /* \"#utility.yul\":1025:1151   */\n    tag_159:\n        /* \"#utility.yul\":1062:1069   */\n      0x00\n        /* \"#utility.yul\":1102:1144   */\n      0xffffffffffffffffffffffffffffffffffffffff\n        /* \"#utility.yul\":1095:1100   */\n      dup3\n        /* \"#utility.yul\":1091:1145   */\n      and\n        /* \"#utility.yul\":1080:1145   */\n      swap1\n      pop\n        /* \"#utility.yul\":1025:1151   */\n      swap2\n      swap1\n      pop\n      jump\t// out\n        /* \"#utility.yul\":1157:1253   */\n    tag_160:\n        /* \"#utility.yul\":1194:1201   */\n      0x00\n        /* \"#utility.yul\":1223:1247   */\n      tag_207\n        /* \"#utility.yul\":1241:1246   */\n      dup3\n        /* \"#utility.yul\":1223:1247   */\n      tag_159\n      jump\t// in\n    tag_207:\n        /* \"#utility.yul\":1212:1247   */\n      swap1\n      pop\n        /* \"#utility.yul\":1157:1253   */\n      swap2\n      swap1\n      pop\n      jump\t// out\n        /* \"#utility.yul\":1259:1377   */\n    tag_161:\n        /* \"#utility.yul\":1346:1370   */\n      tag_209\n        /* \"#utility.yul\":1364:1369   */\n      dup2\n        /* \"#utility.yul\":1346:1370   */\n      tag_160\n      jump\t// in\n    tag_209:\n        /* \"#utility.yul\":1341:1344   */\n      dup3\n        /* \"#utility.yul\":1334:1371   */\n      mstore\n        /* \"#utility.yul\":1259:1377   */\n      pop\n      pop\n      jump\t// out\n        /* \"#utility.yul\":1383:1501   */\n    tag_162:\n        /* \"#utility.yul\":1470:1494   */\n      tag_211\n        /* \"#utility.yul\":1488:1493   */\n      dup2\n        /* \"#utility.yul\":1470:1494   */\n      tag_156\n      jump\t// in\n    tag_211:\n        /* \"#utility.yul\":1465:1468   */\n      dup3\n        /* \"#utility.yul\":1458:1495   */\n      mstore\n        /* \"#utility.yul\":1383:1501   */\n      pop\n      pop\n      jump\t// out\n        /* \"#utility.yul\":1507:1839   */\n    tag_23:\n        /* \"#utility.yul\":1628:1632   */\n      0x00\n        /* \"#utility.yul\":1666:1668   */\n      0x40\n        /* \"#utility.yul\":1655:1664   */\n      dup3\n        /* \"#utility.yul\":1651:1669   */\n      add\n        /* \"#utility.yul\":1643:1669   */\n      swap1\n      pop\n        /* \"#utility.yul\":1679:1750   */\n      tag_213\n        /* \"#utility.yul\":1747:1748   */\n      0x00\n        /* \"#utility.yul\":1736:1745   */\n      dup4\n        /* \"#utility.yul\":1732:1749   */\n      add\n        /* \"#utility.yul\":1723:1729   */\n      dup6\n        /* \"#utility.yul\":1679:1750   */\n      tag_161\n      jump\t// in\n    tag_213:\n        /* \"#utility.yul\":1760:1832   */\n      tag_214\n        /* \"#utility.yul\":1828:1830   */\n      0x20\n        /* \"#utility.yul\":1817:1826   */\n      dup4\n        /* \"#utility.yul\":1813:1831   */\n      add\n        /* \"#utility.yul\":1804:1810   */\n      dup5\n        /* \"#utility.yul\":1760:1832   */\n      tag_162\n      jump\t// in\n    tag_214:\n        /* \"#utility.yul\":1507:1839   */\n      swap4\n      swap3\n      pop\n      pop\n      pop\n      jump\t// out\n        /* \"#utility.yul\":1845:1935   */\n    tag_163:\n        /* \"#utility.yul\":1879:1886   */\n      0x00\n        /* \"#utility.yul\":1922:1927   */\n      dup2\n        /* \"#utility.yul\":1915:1928   */\n      iszero\n        /* \"#utility.yul\":1908:1929   */\n      iszero\n        /* \"#utility.yul\":1897:1929   */\n      swap1\n      pop\n        /* \"#utility.yul\":1845:1935   */\n      swap2\n      swap1\n      pop\n      jump\t// out\n        /* \"#utility.yul\":1941:2050   */\n    tag_164:\n        /* \"#utility.yul\":2022:2043   */\n      tag_217\n        /* \"#utility.yul\":2037:2042   */\n      dup2\n        /* \"#utility.yul\":2022:2043   */\n      tag_163\n      jump\t// in\n    tag_217:\n        /* \"#utility.yul\":2017:2020   */\n      dup3\n        /* \"#utility.yul\":2010:2044   */\n      mstore\n        /* \"#utility.yul\":1941:2050   */\n      pop\n      pop\n      jump\t// out\n        /* \"#utility.yul\":2056:2266   */\n    tag_27:\n        /* \"#utility.yul\":2143:2147   */\n      0x00\n        /* \"#utility.yul\":2181:2183   */\n      0x20\n        /* \"#utility.yul\":2170:2179   */\n      dup3\n        /* \"#utility.yul\":2166:2184   */\n      add\n        /* \"#utility.yul\":2158:2184   */\n      swap1\n      pop\n        /* \"#utility.yul\":2194:2259   */\n      tag_219\n        /* \"#utility.yul\":2256:2257   */\n      0x00\n        /* \"#utility.yul\":2245:2254   */\n      dup4\n        /* \"#utility.yul\":2241:2258   */\n      add\n        /* \"#utility.yul\":2232:2238   */\n      dup5\n        /* \"#utility.yul\":2194:2259   */\n      tag_164\n      jump\t// in\n    tag_219:\n        /* \"#utility.yul\":2056:2266   */\n      swap3\n      swap2\n      pop\n      pop\n      jump\t// out\n        /* \"#utility.yul\":2272:2371   */\n    tag_165:\n        /* \"#utility.yul\":2324:2330   */\n      0x00\n        /* \"#utility.yul\":2358:2363   */\n      dup2\n        /* \"#utility.yul\":2352:2364   */\n      mload\n        /* \"#utility.yul\":2342:2364   */\n      swap1\n      pop\n        /* \"#utility.yul\":2272:2371   */\n      swap2\n      swap1\n      pop\n      jump\t// out\n        /* \"#utility.yul\":2377:2546   */\n    tag_166:\n        /* \"#utility.yul\":2461:2472   */\n      0x00\n        /* \"#utility.yul\":2495:2501   */\n      dup3\n        /* \"#utility.yul\":2490:2493   */\n      dup3\n        /* \"#utility.yul\":2483:2502   */\n      mstore\n        /* \"#utility.yul\":2535:2539   */\n      0x20\n        /* \"#utility.yul\":2530:2533   */\n      dup3\n        /* \"#utility.yul\":2526:2540   */\n      add\n        /* \"#utility.yul\":2511:2540   */\n      swap1\n      pop\n        /* \"#utility.yul\":2377:2546   */\n      swap3\n      swap2\n      pop\n      pop\n      jump\t// out\n        /* \"#utility.yul\":2552:2798   */\n    tag_167:\n        /* \"#utility.yul\":2633:2634   */\n      0x00\n        /* \"#utility.yul\":2643:2756   */\n    tag_223:\n        /* \"#utility.yul\":2657:2663   */\n      dup4\n        /* \"#utility.yul\":2654:2655   */\n      dup2\n        /* \"#utility.yul\":2651:2664   */\n      lt\n        /* \"#utility.yul\":2643:2756   */\n      iszero\n      tag_225\n      jumpi\n        /* \"#utility.yul\":2742:2743   */\n      dup1\n        /* \"#utility.yul\":2737:2740   */\n      dup3\n        /* \"#utility.yul\":2733:2744   */\n      add\n        /* \"#utility.yul\":2727:2745   */\n      mload\n        /* \"#utility.yul\":2723:2724   */\n      dup2\n        /* \"#utility.yul\":2718:2721   */\n      dup5\n        /* \"#utility.yul\":2714:2725   */\n      add\n        /* \"#utility.yul\":2707:2746   */\n      mstore\n        /* \"#utility.yul\":2679:2681   */\n      0x20\n        /* \"#utility.yul\":2676:2677   */\n      dup2\n        /* \"#utility.yul\":2672:2682   */\n      add\n        /* \"#utility.yul\":2667:2682   */\n      swap1\n      pop\n        /* \"#utility.yul\":2643:2756   */\n      jump(tag_223)\n    tag_225:\n        /* \"#utility.yul\":2790:2791   */\n      0x00\n        /* \"#utility.yul\":2781:2787   */\n      dup5\n        /* \"#utility.yul\":2776:2779   */\n      dup5\n        /* \"#utility.yul\":2772:2788   */\n      add\n        /* \"#utility.yul\":2765:2792   */\n      mstore\n        /* \"#utility.yul\":2614:2798   */\n      pop\n        /* \"#utility.yul\":2552:2798   */\n      pop\n      pop\n      pop\n      jump\t// out\n        /* \"#utility.yul\":2804:2906   */\n    tag_168:\n        /* \"#utility.yul\":2845:2851   */\n      0x00\n        /* \"#utility.yul\":2896:2898   */\n      0x1f\n        /* \"#utility.yul\":2892:2899   */\n      not\n        /* \"#utility.yul\":2887:2889   */\n      0x1f\n        /* \"#utility.yul\":2880:2885   */\n      dup4\n        /* \"#utility.yul\":2876:2890   */\n      add\n        /* \"#utility.yul\":2872:2900   */\n      and\n        /* \"#utility.yul\":2862:2900   */\n      swap1\n      pop\n        /* \"#utility.yul\":2804:2906   */\n      swap2\n      swap1\n      pop\n      jump\t// out\n        /* \"#utility.yul\":2912:3289   */\n    tag_169:\n        /* \"#utility.yul\":3000:3003   */\n      0x00\n        /* \"#utility.yul\":3028:3067   */\n      tag_228\n        /* \"#utility.yul\":3061:3066   */\n      dup3\n        /* \"#utility.yul\":3028:3067   */\n      tag_165\n      jump\t// in\n    tag_228:\n        /* \"#utility.yul\":3083:3154   */\n      tag_229\n        /* \"#utility.yul\":3147:3153   */\n      dup2\n        /* \"#utility.yul\":3142:3145   */\n      dup6\n        /* \"#utility.yul\":3083:3154   */\n      tag_166\n      jump\t// in\n    tag_229:\n        /* \"#utility.yul\":3076:3154   */\n      swap4\n      pop\n        /* \"#utility.yul\":3163:3228   */\n      tag_230\n        /* \"#utility.yul\":3221:3227   */\n      dup2\n        /* \"#utility.yul\":3216:3219   */\n      dup6\n        /* \"#utility.yul\":3209:3213   */\n      0x20\n        /* \"#utility.yul\":3202:3207   */\n      dup7\n        /* \"#utility.yul\":3198:3214   */\n      add\n        /* \"#utility.yul\":3163:3228   */\n      tag_167\n      jump\t// in\n    tag_230:\n        /* \"#utility.yul\":3253:3282   */\n      tag_231\n        /* \"#utility.yul\":3275:3281   */\n      dup2\n        /* \"#utility.yul\":3253:3282   */\n      tag_168\n      jump\t// in\n    tag_231:\n        /* \"#utility.yul\":3248:3251   */\n      dup5\n        /* \"#utility.yul\":3244:3283   */\n      add\n        /* \"#utility.yul\":3237:3283   */\n      swap2\n      pop\n        /* \"#utility.yul\":3004:3289   */\n      pop\n        /* \"#utility.yul\":2912:3289   */\n      swap3\n      swap2\n      pop\n      pop\n      jump\t// out\n        /* \"#utility.yul\":3295:3454   */\n    tag_170:\n        /* \"#utility.yul\":3369:3380   */\n      0x00\n        /* \"#utility.yul\":3403:3409   */\n      dup3\n        /* \"#utility.yul\":3398:3401   */\n      dup3\n        /* \"#utility.yul\":3391:3410   */\n      mstore\n        /* \"#utility.yul\":3443:3447   */\n      0x20\n        /* \"#utility.yul\":3438:3441   */\n      dup3\n        /* \"#utility.yul\":3434:3448   */\n      add\n        /* \"#utility.yul\":3419:3448   */\n      swap1\n      pop\n        /* \"#utility.yul\":3295:3454   */\n      swap3\n      swap2\n      pop\n      pop\n      jump\t// out\n        /* \"#utility.yul\":3460:3817   */\n    tag_171:\n        /* \"#utility.yul\":3538:3541   */\n      0x00\n        /* \"#utility.yul\":3566:3605   */\n      tag_234\n        /* \"#utility.yul\":3599:3604   */\n      dup3\n        /* \"#utility.yul\":3566:3605   */\n      tag_165\n      jump\t// in\n    tag_234:\n        /* \"#utility.yul\":3621:3682   */\n      tag_235\n        /* \"#utility.yul\":3675:3681   */\n      dup2\n        /* \"#utility.yul\":3670:3673   */\n      dup6\n        /* \"#utility.yul\":3621:3682   */\n      tag_170\n      jump\t// in\n    tag_235:\n        /* \"#utility.yul\":3614:3682   */\n      swap4\n      pop\n        /* \"#utility.yul\":3691:3756   */\n      tag_236\n        /* \"#utility.yul\":3749:3755   */\n      dup2\n        /* \"#utility.yul\":3744:3747   */\n      dup6\n        /* \"#utility.yul\":3737:3741   */\n      0x20\n        /* \"#utility.yul\":3730:3735   */\n      dup7\n        /* \"#utility.yul\":3726:3742   */\n      add\n        /* \"#utility.yul\":3691:3756   */\n      tag_167\n      jump\t// in\n    tag_236:\n        /* \"#utility.yul\":3781:3810   */\n      tag_237\n        /* \"#utility.yul\":3803:3809   */\n      dup2\n        /* \"#utility.yul\":3781:3810   */\n      tag_168\n      jump\t// in\n    tag_237:\n        /* \"#utility.yul\":3776:3779   */\n      dup5\n        /* \"#utility.yul\":3772:3811   */\n      add\n        /* \"#utility.yul\":3765:3811   */\n      swap2\n      pop\n        /* \"#utility.yul\":3542:3817   */\n      pop\n        /* \"#utility.yul\":3460:3817   */\n      swap3\n      swap2\n      pop\n      pop\n      jump\t// out\n        /* \"#utility.yul\":3823:3912   */\n    tag_172:\n        /* \"#utility.yul\":3859:3866   */\n      0x00\n        /* \"#utility.yul\":3899:3905   */\n      0xffff\n        /* \"#utility.yul\":3892:3897   */\n      dup3\n        /* \"#utility.yul\":3888:3906   */\n      and\n        /* \"#utility.yul\":3877:3906   */\n      swap1\n      pop\n        /* \"#utility.yul\":3823:3912   */\n      swap2\n      swap1\n      pop\n      jump\t// out\n        /* \"#utility.yul\":3918:4023   */\n    tag_173:\n        /* \"#utility.yul\":3993:4016   */\n      tag_240\n        /* \"#utility.yul\":4010:4015   */\n      dup2\n        /* \"#utility.yul\":3993:4016   */\n      tag_172\n      jump\t// in\n    tag_240:\n        /* \"#utility.yul\":3988:3991   */\n      dup3\n        /* \"#utility.yul\":3981:4017   */\n      mstore\n        /* \"#utility.yul\":3918:4023   */\n      pop\n      pop\n      jump\t// out\n        /* \"#utility.yul\":4063:4912   */\n    tag_174:\n        /* \"#utility.yul\":4170:4173   */\n      0x00\n        /* \"#utility.yul\":4206:4210   */\n      0x60\n        /* \"#utility.yul\":4201:4204   */\n      dup4\n        /* \"#utility.yul\":4197:4211   */\n      add\n        /* \"#utility.yul\":4298:4302   */\n      0x00\n        /* \"#utility.yul\":4291:4296   */\n      dup4\n        /* \"#utility.yul\":4287:4303   */\n      add\n        /* \"#utility.yul\":4281:4304   */\n      mload\n        /* \"#utility.yul\":4351:4354   */\n      dup5\n        /* \"#utility.yul\":4345:4349   */\n      dup3\n        /* \"#utility.yul\":4341:4355   */\n      sub\n        /* \"#utility.yul\":4334:4338   */\n      0x00\n        /* \"#utility.yul\":4329:4332   */\n      dup7\n        /* \"#utility.yul\":4325:4339   */\n      add\n        /* \"#utility.yul\":4318:4356   */\n      mstore\n        /* \"#utility.yul\":4377:4450   */\n      tag_242\n        /* \"#utility.yul\":4445:4449   */\n      dup3\n        /* \"#utility.yul\":4431:4443   */\n      dup3\n        /* \"#utility.yul\":4377:4450   */\n      tag_171\n      jump\t// in\n    tag_242:\n        /* \"#utility.yul\":4369:4450   */\n      swap2\n      pop\n        /* \"#utility.yul\":4221:4461   */\n      pop\n        /* \"#utility.yul\":4544:4548   */\n      0x20\n        /* \"#utility.yul\":4537:4542   */\n      dup4\n        /* \"#utility.yul\":4533:4549   */\n      add\n        /* \"#utility.yul\":4527:4550   */\n      mload\n        /* \"#utility.yul\":4597:4600   */\n      dup5\n        /* \"#utility.yul\":4591:4595   */\n      dup3\n        /* \"#utility.yul\":4587:4601   */\n      sub\n        /* \"#utility.yul\":4580:4584   */\n      0x20\n        /* \"#utility.yul\":4575:4578   */\n      dup7\n        /* \"#utility.yul\":4571:4585   */\n      add\n        /* \"#utility.yul\":4564:4602   */\n      mstore\n        /* \"#utility.yul\":4623:4696   */\n      tag_243\n        /* \"#utility.yul\":4691:4695   */\n      dup3\n        /* \"#utility.yul\":4677:4689   */\n      dup3\n        /* \"#utility.yul\":4623:4696   */\n      tag_171\n      jump\t// in\n    tag_243:\n        /* \"#utility.yul\":4615:4696   */\n      swap2\n      pop\n        /* \"#utility.yul\":4471:4707   */\n      pop\n        /* \"#utility.yul\":4795:4799   */\n      0x40\n        /* \"#utility.yul\":4788:4793   */\n      dup4\n        /* \"#utility.yul\":4784:4800   */\n      add\n        /* \"#utility.yul\":4778:4801   */\n      mload\n        /* \"#utility.yul\":4814:4875   */\n      tag_244\n        /* \"#utility.yul\":4869:4873   */\n      0x40\n        /* \"#utility.yul\":4864:4867   */\n      dup7\n        /* \"#utility.yul\":4860:4874   */\n      add\n        /* \"#utility.yul\":4846:4858   */\n      dup3\n        /* \"#utility.yul\":4814:4875   */\n      tag_173\n      jump\t// in\n    tag_244:\n        /* \"#utility.yul\":4717:4885   */\n      pop\n        /* \"#utility.yul\":4902:4906   */\n      dup1\n        /* \"#utility.yul\":4895:4906   */\n      swap2\n      pop\n        /* \"#utility.yul\":4175:4912   */\n      pop\n        /* \"#utility.yul\":4063:4912   */\n      swap3\n      swap2\n      pop\n      pop\n      jump\t// out\n        /* \"#utility.yul\":4918:6335   */\n    tag_34:\n        /* \"#utility.yul\":5313:5317   */\n      0x00\n        /* \"#utility.yul\":5351:5354   */\n      0x0120\n        /* \"#utility.yul\":5340:5349   */\n      dup3\n        /* \"#utility.yul\":5336:5355   */\n      add\n        /* \"#utility.yul\":5328:5355   */\n      swap1\n      pop\n        /* \"#utility.yul\":5365:5436   */\n      tag_246\n        /* \"#utility.yul\":5433:5434   */\n      0x00\n        /* \"#utility.yul\":5422:5431   */\n      dup4\n        /* \"#utility.yul\":5418:5435   */\n      add\n        /* \"#utility.yul\":5409:5415   */\n      dup13\n        /* \"#utility.yul\":5365:5436   */\n      tag_162\n      jump\t// in\n    tag_246:\n        /* \"#utility.yul\":5446:5518   */\n      tag_247\n        /* \"#utility.yul\":5514:5516   */\n      0x20\n        /* \"#utility.yul\":5503:5512   */\n      dup4\n        /* \"#utility.yul\":5499:5517   */\n      add\n        /* \"#utility.yul\":5490:5496   */\n      dup12\n        /* \"#utility.yul\":5446:5518   */\n      tag_162\n      jump\t// in\n    tag_247:\n        /* \"#utility.yul\":5528:5600   */\n      tag_248\n        /* \"#utility.yul\":5596:5598   */\n      0x40\n        /* \"#utility.yul\":5585:5594   */\n      dup4\n        /* \"#utility.yul\":5581:5599   */\n      add\n        /* \"#utility.yul\":5572:5578   */\n      dup11\n        /* \"#utility.yul\":5528:5600   */\n      tag_162\n      jump\t// in\n    tag_248:\n        /* \"#utility.yul\":5610:5682   */\n      tag_249\n        /* \"#utility.yul\":5678:5680   */\n      0x60\n        /* \"#utility.yul\":5667:5676   */\n      dup4\n        /* \"#utility.yul\":5663:5681   */\n      add\n        /* \"#utility.yul\":5654:5660   */\n      dup10\n        /* \"#utility.yul\":5610:5682   */\n      tag_161\n      jump\t// in\n    tag_249:\n        /* \"#utility.yul\":5730:5739   */\n      dup2\n        /* \"#utility.yul\":5724:5728   */\n      dup2\n        /* \"#utility.yul\":5720:5740   */\n      sub\n        /* \"#utility.yul\":5714:5717   */\n      0x80\n        /* \"#utility.yul\":5703:5712   */\n      dup4\n        /* \"#utility.yul\":5699:5718   */\n      add\n        /* \"#utility.yul\":5692:5741   */\n      mstore\n        /* \"#utility.yul\":5758:5836   */\n      tag_250\n        /* \"#utility.yul\":5831:5835   */\n      dup2\n        /* \"#utility.yul\":5822:5828   */\n      dup9\n        /* \"#utility.yul\":5758:5836   */\n      tag_169\n      jump\t// in\n    tag_250:\n        /* \"#utility.yul\":5750:5836   */\n      swap1\n      pop\n        /* \"#utility.yul\":5884:5893   */\n      dup2\n        /* \"#utility.yul\":5878:5882   */\n      dup2\n        /* \"#utility.yul\":5874:5894   */\n      sub\n        /* \"#utility.yul\":5868:5871   */\n      0xa0\n        /* \"#utility.yul\":5857:5866   */\n      dup4\n        /* \"#utility.yul\":5853:5872   */\n      add\n        /* \"#utility.yul\":5846:5895   */\n      mstore\n        /* \"#utility.yul\":5912:5990   */\n      tag_251\n        /* \"#utility.yul\":5985:5989   */\n      dup2\n        /* \"#utility.yul\":5976:5982   */\n      dup8\n        /* \"#utility.yul\":5912:5990   */\n      tag_169\n      jump\t// in\n    tag_251:\n        /* \"#utility.yul\":5904:5990   */\n      swap1\n      pop\n        /* \"#utility.yul\":6038:6047   */\n      dup2\n        /* \"#utility.yul\":6032:6036   */\n      dup2\n        /* \"#utility.yul\":6028:6048   */\n      sub\n        /* \"#utility.yul\":6022:6025   */\n      0xc0\n        /* \"#utility.yul\":6011:6020   */\n      dup4\n        /* \"#utility.yul\":6007:6026   */\n      add\n        /* \"#utility.yul\":6000:6049   */\n      mstore\n        /* \"#utility.yul\":6066:6162   */\n      tag_252\n        /* \"#utility.yul\":6157:6161   */\n      dup2\n        /* \"#utility.yul\":6148:6154   */\n      dup7\n        /* \"#utility.yul\":6066:6162   */\n      tag_174\n      jump\t// in\n    tag_252:\n        /* \"#utility.yul\":6058:6162   */\n      swap1\n      pop\n        /* \"#utility.yul\":6172:6245   */\n      tag_253\n        /* \"#utility.yul\":6240:6243   */\n      0xe0\n        /* \"#utility.yul\":6229:6238   */\n      dup4\n        /* \"#utility.yul\":6225:6244   */\n      add\n        /* \"#utility.yul\":6216:6222   */\n      dup6\n        /* \"#utility.yul\":6172:6245   */\n      tag_162\n      jump\t// in\n    tag_253:\n        /* \"#utility.yul\":6255:6328   */\n      tag_254\n        /* \"#utility.yul\":6323:6326   */\n      0x0100\n        /* \"#utility.yul\":6312:6321   */\n      dup4\n        /* \"#utility.yul\":6308:6327   */\n      add\n        /* \"#utility.yul\":6299:6305   */\n      dup5\n        /* \"#utility.yul\":6255:6328   */\n      tag_161\n      jump\t// in\n    tag_254:\n        /* \"#utility.yul\":4918:6335   */\n      swap11\n      swap10\n      pop\n      pop\n      pop\n      pop\n      pop\n      pop\n      pop\n      pop\n      pop\n      pop\n      jump\t// out\n        /* \"#utility.yul\":6341:6654   */\n    tag_38:\n        /* \"#utility.yul\":6454:6458   */\n      0x00\n        /* \"#utility.yul\":6492:6494   */\n      0x20\n        /* \"#utility.yul\":6481:6490   */\n      dup3\n        /* \"#utility.yul\":6477:6495   */\n      add\n        /* \"#utility.yul\":6469:6495   */\n      swap1\n      pop\n        /* \"#utility.yul\":6541:6550   */\n      dup2\n        /* \"#utility.yul\":6535:6539   */\n      dup2\n        /* \"#utility.yul\":6531:6551   */\n      sub\n        /* \"#utility.yul\":6527:6528   */\n      0x00\n        /* \"#utility.yul\":6516:6525   */\n      dup4\n        /* \"#utility.yul\":6512:6529   */\n      add\n        /* \"#utility.yul\":6505:6552   */\n      mstore\n        /* \"#utility.yul\":6569:6647   */\n      tag_256\n        /* \"#utility.yul\":6642:6646   */\n      dup2\n        /* \"#utility.yul\":6633:6639   */\n      dup5\n        /* \"#utility.yul\":6569:6647   */\n      tag_169\n      jump\t// in\n    tag_256:\n        /* \"#utility.yul\":6561:6647   */\n      swap1\n      pop\n        /* \"#utility.yul\":6341:6654   */\n      swap3\n      swap2\n      pop\n      pop\n      jump\t// out\n        /* \"#utility.yul\":6660:6768   */\n    tag_175:\n        /* \"#utility.yul\":6737:6761   */\n      tag_258\n        /* \"#utility.yul\":6755:6760   */\n      dup2\n        /* \"#utility.yul\":6737:6761   */\n      tag_160\n      jump\t// in\n    tag_258:\n        /* \"#utility.yul\":6732:6735   */\n      dup3\n        /* \"#utility.yul\":6725:6762   */\n      mstore\n        /* \"#utility.yul\":6660:6768   */\n      pop\n      pop\n      jump\t// out\n        /* \"#utility.yul\":6774:6882   */\n    tag_176:\n        /* \"#utility.yul\":6851:6875   */\n      tag_260\n        /* \"#utility.yul\":6869:6874   */\n      dup2\n        /* \"#utility.yul\":6851:6875   */\n      tag_156\n      jump\t// in\n    tag_260:\n        /* \"#utility.yul\":6846:6849   */\n      dup3\n        /* \"#utility.yul\":6839:6876   */\n      mstore\n        /* \"#utility.yul\":6774:6882   */\n      pop\n      pop\n      jump\t// out\n        /* \"#utility.yul\":6952:7464   */\n    tag_177:\n        /* \"#utility.yul\":7099:7103   */\n      0x40\n        /* \"#utility.yul\":7094:7097   */\n      dup3\n        /* \"#utility.yul\":7090:7104   */\n      add\n        /* \"#utility.yul\":7190:7194   */\n      0x00\n        /* \"#utility.yul\":7183:7188   */\n      dup3\n        /* \"#utility.yul\":7179:7195   */\n      add\n        /* \"#utility.yul\":7173:7196   */\n      mload\n        /* \"#utility.yul\":7209:7272   */\n      tag_262\n        /* \"#utility.yul\":7266:7270   */\n      0x00\n        /* \"#utility.yul\":7261:7264   */\n      dup6\n        /* \"#utility.yul\":7257:7271   */\n      add\n        /* \"#utility.yul\":7243:7255   */\n      dup3\n        /* \"#utility.yul\":7209:7272   */\n      tag_175\n      jump\t// in\n    tag_262:\n        /* \"#utility.yul\":7114:7282   */\n      pop\n        /* \"#utility.yul\":7365:7369   */\n      0x20\n        /* \"#utility.yul\":7358:7363   */\n      dup3\n        /* \"#utility.yul\":7354:7370   */\n      add\n        /* \"#utility.yul\":7348:7371   */\n      mload\n        /* \"#utility.yul\":7384:7447   */\n      tag_263\n        /* \"#utility.yul\":7441:7445   */\n      0x20\n        /* \"#utility.yul\":7436:7439   */\n      dup6\n        /* \"#utility.yul\":7432:7446   */\n      add\n        /* \"#utility.yul\":7418:7430   */\n      dup3\n        /* \"#utility.yul\":7384:7447   */\n      tag_176\n      jump\t// in\n    tag_263:\n        /* \"#utility.yul\":7292:7457   */\n      pop\n        /* \"#utility.yul\":7068:7464   */\n      pop\n        /* \"#utility.yul\":6952:7464   */\n      pop\n      pop\n      jump\t// out\n        /* \"#utility.yul\":7470:7792   */\n    tag_44:\n        /* \"#utility.yul\":7613:7617   */\n      0x00\n        /* \"#utility.yul\":7651:7653   */\n      0x40\n        /* \"#utility.yul\":7640:7649   */\n      dup3\n        /* \"#utility.yul\":7636:7654   */\n      add\n        /* \"#utility.yul\":7628:7654   */\n      swap1\n      pop\n        /* \"#utility.yul\":7664:7785   */\n      tag_265\n        /* \"#utility.yul\":7782:7783   */\n      0x00\n        /* \"#utility.yul\":7771:7780   */\n      dup4\n        /* \"#utility.yul\":7767:7784   */\n      add\n        /* \"#utility.yul\":7758:7764   */\n      dup5\n        /* \"#utility.yul\":7664:7785   */\n      tag_177\n      jump\t// in\n    tag_265:\n        /* \"#utility.yul\":7470:7792   */\n      swap3\n      swap2\n      pop\n      pop\n      jump\t// out\n        /* \"#utility.yul\":7798:8020   */\n    tag_48:\n        /* \"#utility.yul\":7891:7895   */\n      0x00\n        /* \"#utility.yul\":7929:7931   */\n      0x20\n        /* \"#utility.yul\":7918:7927   */\n      dup3\n        /* \"#utility.yul\":7914:7932   */\n      add\n        /* \"#utility.yul\":7906:7932   */\n      swap1\n      pop\n        /* \"#utility.yul\":7942:8013   */\n      tag_267\n        /* \"#utility.yul\":8010:8011   */\n      0x00\n        /* \"#utility.yul\":7999:8008   */\n      dup4\n        /* \"#utility.yul\":7995:8012   */\n      add\n        /* \"#utility.yul\":7986:7992   */\n      dup5\n        /* \"#utility.yul\":7942:8013   */\n      tag_162\n      jump\t// in\n    tag_267:\n        /* \"#utility.yul\":7798:8020   */\n      swap3\n      swap2\n      pop\n      pop\n      jump\t// out\n        /* \"#utility.yul\":8026:8141   */\n    tag_178:\n        /* \"#utility.yul\":8111:8134   */\n      tag_269\n        /* \"#utility.yul\":8128:8133   */\n      dup2\n        /* \"#utility.yul\":8111:8134   */\n      tag_172\n      jump\t// in\n    tag_269:\n        /* \"#utility.yul\":8106:8109   */\n      dup3\n        /* \"#utility.yul\":8099:8135   */\n      mstore\n        /* \"#utility.yul\":8026:8141   */\n      pop\n      pop\n      jump\t// out\n        /* \"#utility.yul\":8147:8767   */\n    tag_58:\n        /* \"#utility.yul\":8334:8338   */\n      0x00\n        /* \"#utility.yul\":8372:8374   */\n      0x60\n        /* \"#utility.yul\":8361:8370   */\n      dup3\n        /* \"#utility.yul\":8357:8375   */\n      add\n        /* \"#utility.yul\":8349:8375   */\n      swap1\n      pop\n        /* \"#utility.yul\":8421:8430   */\n      dup2\n        /* \"#utility.yul\":8415:8419   */\n      dup2\n        /* \"#utility.yul\":8411:8431   */\n      sub\n        /* \"#utility.yul\":8407:8408   */\n      0x00\n        /* \"#utility.yul\":8396:8405   */\n      dup4\n        /* \"#utility.yul\":8392:8409   */\n      add\n        /* \"#utility.yul\":8385:8432   */\n      mstore\n        /* \"#utility.yul\":8449:8527   */\n      tag_271\n        /* \"#utility.yul\":8522:8526   */\n      dup2\n        /* \"#utility.yul\":8513:8519   */\n      dup7\n        /* \"#utility.yul\":8449:8527   */\n      tag_169\n      jump\t// in\n    tag_271:\n        /* \"#utility.yul\":8441:8527   */\n      swap1\n      pop\n        /* \"#utility.yul\":8574:8583   */\n      dup2\n        /* \"#utility.yul\":8568:8572   */\n      dup2\n        /* \"#utility.yul\":8564:8584   */\n      sub\n        /* \"#utility.yul\":8559:8561   */\n      0x20\n        /* \"#utility.yul\":8548:8557   */\n      dup4\n        /* \"#utility.yul\":8544:8562   */\n      add\n        /* \"#utility.yul\":8537:8585   */\n      mstore\n        /* \"#utility.yul\":8602:8680   */\n      tag_272\n        /* \"#utility.yul\":8675:8679   */\n      dup2\n        /* \"#utility.yul\":8666:8672   */\n      dup6\n        /* \"#utility.yul\":8602:8680   */\n      tag_169\n      jump\t// in\n    tag_272:\n        /* \"#utility.yul\":8594:8680   */\n      swap1\n      pop\n        /* \"#utility.yul\":8690:8760   */\n      tag_273\n        /* \"#utility.yul\":8756:8758   */\n      0x40\n        /* \"#utility.yul\":8745:8754   */\n      dup4\n        /* \"#utility.yul\":8741:8759   */\n      add\n        /* \"#utility.yul\":8732:8738   */\n      dup5\n        /* \"#utility.yul\":8690:8760   */\n      tag_178\n      jump\t// in\n    tag_273:\n        /* \"#utility.yul\":8147:8767   */\n      swap5\n      swap4\n      pop\n      pop\n      pop\n      pop\n      jump\t// out\n        /* \"#utility.yul\":8773:8995   */\n    tag_62:\n        /* \"#utility.yul\":8866:8870   */\n      0x00\n        /* \"#utility.yul\":8904:8906   */\n      0x20\n        /* \"#utility.yul\":8893:8902   */\n      dup3\n        /* \"#utility.yul\":8889:8907   */\n      add\n        /* \"#utility.yul\":8881:8907   */\n      swap1\n      pop\n        /* \"#utility.yul\":8917:8988   */\n      tag_275\n        /* \"#utility.yul\":8985:8986   */\n      0x00\n        /* \"#utility.yul\":8974:8983   */\n      dup4\n        /* \"#utility.yul\":8970:8987   */\n      add\n        /* \"#utility.yul\":8961:8967   */\n      dup5\n        /* \"#utility.yul\":8917:8988   */\n      tag_161\n      jump\t// in\n    tag_275:\n        /* \"#utility.yul\":8773:8995   */\n      swap3\n      swap2\n      pop\n      pop\n      jump\t// out\n        /* \"#utility.yul\":9001:9226   */\n    tag_179:\n        /* \"#utility.yul\":9141:9175   */\n      0x4c696369746163616f206e616f2065737461206163656974616e646f2070726f\n        /* \"#utility.yul\":9137:9138   */\n      0x00\n        /* \"#utility.yul\":9129:9135   */\n      dup3\n        /* \"#utility.yul\":9125:9139   */\n      add\n        /* \"#utility.yul\":9118:9176   */\n      mstore\n        /* \"#utility.yul\":9210:9218   */\n      0x706f737461730000000000000000000000000000000000000000000000000000\n        /* \"#utility.yul\":9205:9207   */\n      0x20\n        /* \"#utility.yul\":9197:9203   */\n      dup3\n        /* \"#utility.yul\":9193:9208   */\n      add\n        /* \"#utility.yul\":9186:9219   */\n      mstore\n        /* \"#utility.yul\":9001:9226   */\n      pop\n      jump\t// out\n        /* \"#utility.yul\":9232:9598   */\n    tag_180:\n        /* \"#utility.yul\":9374:9377   */\n      0x00\n        /* \"#utility.yul\":9395:9462   */\n      tag_278\n        /* \"#utility.yul\":9459:9461   */\n      0x26\n        /* \"#utility.yul\":9454:9457   */\n      dup4\n        /* \"#utility.yul\":9395:9462   */\n      tag_166\n      jump\t// in\n    tag_278:\n        /* \"#utility.yul\":9388:9462   */\n      swap2\n      pop\n        /* \"#utility.yul\":9471:9564   */\n      tag_279\n        /* \"#utility.yul\":9560:9563   */\n      dup3\n        /* \"#utility.yul\":9471:9564   */\n      tag_179\n      jump\t// in\n    tag_279:\n        /* \"#utility.yul\":9589:9591   */\n      0x40\n        /* \"#utility.yul\":9584:9587   */\n      dup3\n        /* \"#utility.yul\":9580:9592   */\n      add\n        /* \"#utility.yul\":9573:9592   */\n      swap1\n      pop\n        /* \"#utility.yul\":9232:9598   */\n      swap2\n      swap1\n      pop\n      jump\t// out\n        /* \"#utility.yul\":9604:10023   */\n    tag_74:\n        /* \"#utility.yul\":9770:9774   */\n      0x00\n        /* \"#utility.yul\":9808:9810   */\n      0x20\n        /* \"#utility.yul\":9797:9806   */\n      dup3\n        /* \"#utility.yul\":9793:9811   */\n      add\n        /* \"#utility.yul\":9785:9811   */\n      swap1\n      pop\n        /* \"#utility.yul\":9857:9866   */\n      dup2\n        /* \"#utility.yul\":9851:9855   */\n      dup2\n        /* \"#utility.yul\":9847:9867   */\n      sub\n        /* \"#utility.yul\":9843:9844   */\n      0x00\n        /* \"#utility.yul\":9832:9841   */\n      dup4\n        /* \"#utility.yul\":9828:9845   */\n      add\n        /* \"#utility.yul\":9821:9868   */\n      mstore\n        /* \"#utility.yul\":9885:10016   */\n      tag_281\n        /* \"#utility.yul\":10011:10015   */\n      dup2\n        /* \"#utility.yul\":9885:10016   */\n      tag_180\n      jump\t// in\n    tag_281:\n        /* \"#utility.yul\":9877:10016   */\n      swap1\n      pop\n        /* \"#utility.yul\":9604:10023   */\n      swap2\n      swap1\n      pop\n      jump\t// out\n        /* \"#utility.yul\":10029:10209   */\n    tag_79:\n        /* \"#utility.yul\":10077:10154   */\n      0x4e487b7100000000000000000000000000000000000000000000000000000000\n        /* \"#utility.yul\":10074:10075   */\n      0x00\n        /* \"#utility.yul\":10067:10155   */\n      mstore\n        /* \"#utility.yul\":10174:10178   */\n      0x32\n        /* \"#utility.yul\":10171:10172   */\n      0x04\n        /* \"#utility.yul\":10164:10179   */\n      mstore\n        /* \"#utility.yul\":10198:10202   */\n      0x24\n        /* \"#utility.yul\":10195:10196   */\n      0x00\n        /* \"#utility.yul\":10188:10203   */\n      revert\n        /* \"#utility.yul\":10215:10395   */\n    tag_181:\n        /* \"#utility.yul\":10263:10340   */\n      0x4e487b7100000000000000000000000000000000000000000000000000000000\n        /* \"#utility.yul\":10260:10261   */\n      0x00\n        /* \"#utility.yul\":10253:10341   */\n      mstore\n        /* \"#utility.yul\":10360:10364   */\n      0x11\n        /* \"#utility.yul\":10357:10358   */\n      0x04\n        /* \"#utility.yul\":10350:10365   */\n      mstore\n        /* \"#utility.yul\":10384:10388   */\n      0x24\n        /* \"#utility.yul\":10381:10382   */\n      0x00\n        /* \"#utility.yul\":10374:10389   */\n      revert\n        /* \"#utility.yul\":10401:10595   */\n    tag_83:\n        /* \"#utility.yul\":10441:10445   */\n      0x00\n        /* \"#utility.yul\":10461:10481   */\n      tag_285\n        /* \"#utility.yul\":10479:10480   */\n      dup3\n        /* \"#utility.yul\":10461:10481   */\n      tag_156\n      jump\t// in\n    tag_285:\n        /* \"#utility.yul\":10456:10481   */\n      swap2\n      pop\n        /* \"#utility.yul\":10495:10515   */\n      tag_286\n        /* \"#utility.yul\":10513:10514   */\n      dup4\n        /* \"#utility.yul\":10495:10515   */\n      tag_156\n      jump\t// in\n    tag_286:\n        /* \"#utility.yul\":10490:10515   */\n      swap3\n      pop\n        /* \"#utility.yul\":10539:10540   */\n      dup3\n        /* \"#utility.yul\":10536:10537   */\n      dup3\n        /* \"#utility.yul\":10532:10541   */\n      sub\n        /* \"#utility.yul\":10524:10541   */\n      swap1\n      pop\n        /* \"#utility.yul\":10563:10564   */\n      dup2\n        /* \"#utility.yul\":10557:10561   */\n      dup2\n        /* \"#utility.yul\":10554:10565   */\n      gt\n        /* \"#utility.yul\":10551:10588   */\n      iszero\n      tag_287\n      jumpi\n        /* \"#utility.yul\":10568:10586   */\n      tag_288\n      tag_181\n      jump\t// in\n    tag_288:\n        /* \"#utility.yul\":10551:10588   */\n    tag_287:\n        /* \"#utility.yul\":10401:10595   */\n      swap3\n      swap2\n      pop\n      pop\n      jump\t// out\n        /* \"#utility.yul\":10601:10781   */\n    tag_182:\n        /* \"#utility.yul\":10649:10726   */\n      0x4e487b7100000000000000000000000000000000000000000000000000000000\n        /* \"#utility.yul\":10646:10647   */\n      0x00\n        /* \"#utility.yul\":10639:10727   */\n      mstore\n        /* \"#utility.yul\":10746:10750   */\n      0x22\n        /* \"#utility.yul\":10743:10744   */\n      0x04\n        /* \"#utility.yul\":10736:10751   */\n      mstore\n        /* \"#utility.yul\":10770:10774   */\n      0x24\n        /* \"#utility.yul\":10767:10768   */\n      0x00\n        /* \"#utility.yul\":10760:10775   */\n      revert\n        /* \"#utility.yul\":10787:11107   */\n    tag_91:\n        /* \"#utility.yul\":10831:10837   */\n      0x00\n        /* \"#utility.yul\":10868:10869   */\n      0x02\n        /* \"#utility.yul\":10862:10866   */\n      dup3\n        /* \"#utility.yul\":10858:10870   */\n      div\n        /* \"#utility.yul\":10848:10870   */\n      swap1\n      pop\n        /* \"#utility.yul\":10915:10916   */\n      0x01\n        /* \"#utility.yul\":10909:10913   */\n      dup3\n        /* \"#utility.yul\":10905:10917   */\n      and\n        /* \"#utility.yul\":10936:10954   */\n      dup1\n        /* \"#utility.yul\":10926:11007   */\n      tag_291\n      jumpi\n        /* \"#utility.yul\":10992:10996   */\n      0x7f\n        /* \"#utility.yul\":10984:10990   */\n      dup3\n        /* \"#utility.yul\":10980:10997   */\n      and\n        /* \"#utility.yul\":10970:10997   */\n      swap2\n      pop\n        /* \"#utility.yul\":10926:11007   */\n    tag_291:\n        /* \"#utility.yul\":11054:11056   */\n      0x20\n        /* \"#utility.yul\":11046:11052   */\n      dup3\n        /* \"#utility.yul\":11043:11057   */\n      lt\n        /* \"#utility.yul\":11023:11041   */\n      dup2\n        /* \"#utility.yul\":11020:11058   */\n      sub\n        /* \"#utility.yul\":11017:11101   */\n      tag_292\n      jumpi\n        /* \"#utility.yul\":11073:11091   */\n      tag_293\n      tag_182\n      jump\t// in\n    tag_293:\n        /* \"#utility.yul\":11017:11101   */\n    tag_292:\n        /* \"#utility.yul\":10838:11107   */\n      pop\n        /* \"#utility.yul\":10787:11107   */\n      swap2\n      swap1\n      pop\n      jump\t// out\n        /* \"#utility.yul\":11113:11349   */\n    tag_183:\n        /* \"#utility.yul\":11253:11287   */\n      0x4170656e6173206f206f7267616f20726571756572656e746520706f64652063\n        /* \"#utility.yul\":11249:11250   */\n      0x00\n        /* \"#utility.yul\":11241:11247   */\n      dup3\n        /* \"#utility.yul\":11237:11251   */\n      add\n        /* \"#utility.yul\":11230:11288   */\n      mstore\n        /* \"#utility.yul\":11322:11341   */\n      0x68616d617220657373612066756e63616f000000000000000000000000000000\n        /* \"#utility.yul\":11317:11319   */\n      0x20\n        /* \"#utility.yul\":11309:11315   */\n      dup3\n        /* \"#utility.yul\":11305:11320   */\n      add\n        /* \"#utility.yul\":11298:11342   */\n      mstore\n        /* \"#utility.yul\":11113:11349   */\n      pop\n      jump\t// out\n        /* \"#utility.yul\":11355:11721   */\n    tag_184:\n        /* \"#utility.yul\":11497:11500   */\n      0x00\n        /* \"#utility.yul\":11518:11585   */\n      tag_296\n        /* \"#utility.yul\":11582:11584   */\n      0x31\n        /* \"#utility.yul\":11577:11580   */\n      dup4\n        /* \"#utility.yul\":11518:11585   */\n      tag_166\n      jump\t// in\n    tag_296:\n        /* \"#utility.yul\":11511:11585   */\n      swap2\n      pop\n        /* \"#utility.yul\":11594:11687   */\n      tag_297\n        /* \"#utility.yul\":11683:11686   */\n      dup3\n        /* \"#utility.yul\":11594:11687   */\n      tag_183\n      jump\t// in\n    tag_297:\n        /* \"#utility.yul\":11712:11714   */\n      0x40\n        /* \"#utility.yul\":11707:11710   */\n      dup3\n        /* \"#utility.yul\":11703:11715   */\n      add\n        /* \"#utility.yul\":11696:11715   */\n      swap1\n      pop\n        /* \"#utility.yul\":11355:11721   */\n      swap2\n      swap1\n      pop\n      jump\t// out\n        /* \"#utility.yul\":11727:12146   */\n    tag_119:\n        /* \"#utility.yul\":11893:11897   */\n      0x00\n        /* \"#utility.yul\":11931:11933   */\n      0x20\n        /* \"#utility.yul\":11920:11929   */\n      dup3\n        /* \"#utility.yul\":11916:11934   */\n      add\n        /* \"#utility.yul\":11908:11934   */\n      swap1\n      pop\n        /* \"#utility.yul\":11980:11989   */\n      dup2\n        /* \"#utility.yul\":11974:11978   */\n      dup2\n        /* \"#utility.yul\":11970:11990   */\n      sub\n        /* \"#utility.yul\":11966:11967   */\n      0x00\n        /* \"#utility.yul\":11955:11964   */\n      dup4\n        /* \"#utility.yul\":11951:11968   */\n      add\n        /* \"#utility.yul\":11944:11991   */\n      mstore\n        /* \"#utility.yul\":12008:12139   */\n      tag_299\n        /* \"#utility.yul\":12134:12138   */\n      dup2\n        /* \"#utility.yul\":12008:12139   */\n      tag_184\n      jump\t// in\n    tag_299:\n        /* \"#utility.yul\":12000:12139   */\n      swap1\n      pop\n        /* \"#utility.yul\":11727:12146   */\n      swap2\n      swap1\n      pop\n      jump\t// out\n        /* \"#utility.yul\":12152:12396   */\n    tag_185:\n        /* \"#utility.yul\":12292:12326   */\n      0x44617461206465206162657274757261206461732070726f706f737461732070\n        /* \"#utility.yul\":12288:12289   */\n      0x00\n        /* \"#utility.yul\":12280:12286   */\n      dup3\n        /* \"#utility.yul\":12276:12290   */\n      add\n        /* \"#utility.yul\":12269:12327   */\n      mstore\n        /* \"#utility.yul\":12361:12388   */\n      0x75626c696361646f2061696e6461206e616f20636865676f7500000000000000\n        /* \"#utility.yul\":12356:12358   */\n      0x20\n        /* \"#utility.yul\":12348:12354   */\n      dup3\n        /* \"#utility.yul\":12344:12359   */\n      add\n        /* \"#utility.yul\":12337:12389   */\n      mstore\n        /* \"#utility.yul\":12152:12396   */\n      pop\n      jump\t// out\n        /* \"#utility.yul\":12402:12768   */\n    tag_186:\n        /* \"#utility.yul\":12544:12547   */\n      0x00\n        /* \"#utility.yul\":12565:12632   */\n      tag_302\n        /* \"#utility.yul\":12629:12631   */\n      0x39\n        /* \"#utility.yul\":12624:12627   */\n      dup4\n        /* \"#utility.yul\":12565:12632   */\n      tag_166\n      jump\t// in\n    tag_302:\n        /* \"#utility.yul\":12558:12632   */\n      swap2\n      pop\n        /* \"#utility.yul\":12641:12734   */\n      tag_303\n        /* \"#utility.yul\":12730:12733   */\n      dup3\n        /* \"#utility.yul\":12641:12734   */\n      tag_185\n      jump\t// in\n    tag_303:\n        /* \"#utility.yul\":12759:12761   */\n      0x40\n        /* \"#utility.yul\":12754:12757   */\n      dup3\n        /* \"#utility.yul\":12750:12762   */\n      add\n        /* \"#utility.yul\":12743:12762   */\n      swap1\n      pop\n        /* \"#utility.yul\":12402:12768   */\n      swap2\n      swap1\n      pop\n      jump\t// out\n        /* \"#utility.yul\":12774:13193   */\n    tag_123:\n        /* \"#utility.yul\":12940:12944   */\n      0x00\n        /* \"#utility.yul\":12978:12980   */\n      0x20\n        /* \"#utility.yul\":12967:12976   */\n      dup3\n        /* \"#utility.yul\":12963:12981   */\n      add\n        /* \"#utility.yul\":12955:12981   */\n      swap1\n      pop\n        /* \"#utility.yul\":13027:13036   */\n      dup2\n        /* \"#utility.yul\":13021:13025   */\n      dup2\n        /* \"#utility.yul\":13017:13037   */\n      sub\n        /* \"#utility.yul\":13013:13014   */\n      0x00\n        /* \"#utility.yul\":13002:13011   */\n      dup4\n        /* \"#utility.yul\":12998:13015   */\n      add\n        /* \"#utility.yul\":12991:13038   */\n      mstore\n        /* \"#utility.yul\":13055:13186   */\n      tag_305\n        /* \"#utility.yul\":13181:13185   */\n      dup2\n        /* \"#utility.yul\":13055:13186   */\n      tag_186\n      jump\t// in\n    tag_305:\n        /* \"#utility.yul\":13047:13186   */\n      swap1\n      pop\n        /* \"#utility.yul\":12774:13193   */\n      swap2\n      swap1\n      pop\n      jump\t// out\n        /* \"#utility.yul\":13199:13428   */\n    tag_187:\n        /* \"#utility.yul\":13339:13373   */\n      0x4162657274757261206461732070726f706f737461732061696e6461206e616f\n        /* \"#utility.yul\":13335:13336   */\n      0x00\n        /* \"#utility.yul\":13327:13333   */\n      dup3\n        /* \"#utility.yul\":13323:13337   */\n      add\n        /* \"#utility.yul\":13316:13374   */\n      mstore\n        /* \"#utility.yul\":13408:13420   */\n      0x207265616c697a61646100000000000000000000000000000000000000000000\n        /* \"#utility.yul\":13403:13405   */\n      0x20\n        /* \"#utility.yul\":13395:13401   */\n      dup3\n        /* \"#utility.yul\":13391:13406   */\n      add\n        /* \"#utility.yul\":13384:13421   */\n      mstore\n        /* \"#utility.yul\":13199:13428   */\n      pop\n      jump\t// out\n        /* \"#utility.yul\":13434:13800   */\n    tag_188:\n        /* \"#utility.yul\":13576:13579   */\n      0x00\n        /* \"#utility.yul\":13597:13664   */\n      tag_308\n        /* \"#utility.yul\":13661:13663   */\n      0x2a\n        /* \"#utility.yul\":13656:13659   */\n      dup4\n        /* \"#utility.yul\":13597:13664   */\n      tag_166\n      jump\t// in\n    tag_308:\n        /* \"#utility.yul\":13590:13664   */\n      swap2\n      pop\n        /* \"#utility.yul\":13673:13766   */\n      tag_309\n        /* \"#utility.yul\":13762:13765   */\n      dup3\n        /* \"#utility.yul\":13673:13766   */\n      tag_187\n      jump\t// in\n    tag_309:\n        /* \"#utility.yul\":13791:13793   */\n      0x40\n        /* \"#utility.yul\":13786:13789   */\n      dup3\n        /* \"#utility.yul\":13782:13794   */\n      add\n        /* \"#utility.yul\":13775:13794   */\n      swap1\n      pop\n        /* \"#utility.yul\":13434:13800   */\n      swap2\n      swap1\n      pop\n      jump\t// out\n        /* \"#utility.yul\":13806:14225   */\n    tag_130:\n        /* \"#utility.yul\":13972:13976   */\n      0x00\n        /* \"#utility.yul\":14010:14012   */\n      0x20\n        /* \"#utility.yul\":13999:14008   */\n      dup3\n        /* \"#utility.yul\":13995:14013   */\n      add\n        /* \"#utility.yul\":13987:14013   */\n      swap1\n      pop\n        /* \"#utility.yul\":14059:14068   */\n      dup2\n        /* \"#utility.yul\":14053:14057   */\n      dup2\n        /* \"#utility.yul\":14049:14069   */\n      sub\n        /* \"#utility.yul\":14045:14046   */\n      0x00\n        /* \"#utility.yul\":14034:14043   */\n      dup4\n        /* \"#utility.yul\":14030:14047   */\n      add\n        /* \"#utility.yul\":14023:14070   */\n      mstore\n        /* \"#utility.yul\":14087:14218   */\n      tag_311\n        /* \"#utility.yul\":14213:14217   */\n      dup2\n        /* \"#utility.yul\":14087:14218   */\n      tag_188\n      jump\t// in\n    tag_311:\n        /* \"#utility.yul\":14079:14218   */\n      swap1\n      pop\n        /* \"#utility.yul\":13806:14225   */\n      swap2\n      swap1\n      pop\n      jump\t// out\n        /* \"#utility.yul\":14231:14461   */\n    tag_189:\n        /* \"#utility.yul\":14371:14405   */\n      0x4e616f206861206e656e68756d206c69636974616e7465207061726120657374\n        /* \"#utility.yul\":14367:14368   */\n      0x00\n        /* \"#utility.yul\":14359:14365   */\n      dup3\n        /* \"#utility.yul\":14355:14369   */\n      add\n        /* \"#utility.yul\":14348:14406   */\n      mstore\n        /* \"#utility.yul\":14440:14453   */\n      0x61206c696369746163616f000000000000000000000000000000000000000000\n        /* \"#utility.yul\":14435:14437   */\n      0x20\n        /* \"#utility.yul\":14427:14433   */\n      dup3\n        /* \"#utility.yul\":14423:14438   */\n      add\n        /* \"#utility.yul\":14416:14454   */\n      mstore\n        /* \"#utility.yul\":14231:14461   */\n      pop\n      jump\t// out\n        /* \"#utility.yul\":14467:14833   */\n    tag_190:\n        /* \"#utility.yul\":14609:14612   */\n      0x00\n        /* \"#utility.yul\":14630:14697   */\n      tag_314\n        /* \"#utility.yul\":14694:14696   */\n      0x2b\n        /* \"#utility.yul\":14689:14692   */\n      dup4\n        /* \"#utility.yul\":14630:14697   */\n      tag_166\n      jump\t// in\n    tag_314:\n        /* \"#utility.yul\":14623:14697   */\n      swap2\n      pop\n        /* \"#utility.yul\":14706:14799   */\n      tag_315\n        /* \"#utility.yul\":14795:14798   */\n      dup3\n        /* \"#utility.yul\":14706:14799   */\n      tag_189\n      jump\t// in\n    tag_315:\n        /* \"#utility.yul\":14824:14826   */\n      0x40\n        /* \"#utility.yul\":14819:14822   */\n      dup3\n        /* \"#utility.yul\":14815:14827   */\n      add\n        /* \"#utility.yul\":14808:14827   */\n      swap1\n      pop\n        /* \"#utility.yul\":14467:14833   */\n      swap2\n      swap1\n      pop\n      jump\t// out\n        /* \"#utility.yul\":14839:15258   */\n    tag_134:\n        /* \"#utility.yul\":15005:15009   */\n      0x00\n        /* \"#utility.yul\":15043:15045   */\n      0x20\n        /* \"#utility.yul\":15032:15041   */\n      dup3\n        /* \"#utility.yul\":15028:15046   */\n      add\n        /* \"#utility.yul\":15020:15046   */\n      swap1\n      pop\n        /* \"#utility.yul\":15092:15101   */\n      dup2\n        /* \"#utility.yul\":15086:15090   */\n      dup2\n        /* \"#utility.yul\":15082:15102   */\n      sub\n        /* \"#utility.yul\":15078:15079   */\n      0x00\n        /* \"#utility.yul\":15067:15076   */\n      dup4\n        /* \"#utility.yul\":15063:15080   */\n      add\n        /* \"#utility.yul\":15056:15103   */\n      mstore\n        /* \"#utility.yul\":15120:15251   */\n      tag_317\n        /* \"#utility.yul\":15246:15250   */\n      dup2\n        /* \"#utility.yul\":15120:15251   */\n      tag_190\n      jump\t// in\n    tag_317:\n        /* \"#utility.yul\":15112:15251   */\n      swap1\n      pop\n        /* \"#utility.yul\":14839:15258   */\n      swap2\n      swap1\n      pop\n      jump\t// out\n\n    auxdata: 0xa26469706673582212208f4efd3e561dedfd25e06e38980e1920d375cf08f3e868764dd703ce95abc2dc64736f6c63430008110033\n}\n","bytecode":{"linkReferences":{},"object":"60806040523480156200001157600080fd5b5060405162001c8b38038062001c8b83398181016040528101906200003791906200043f565b85600460006101000a81548173ffffffffffffffffffffffffffffffffffffffff021916908373ffffffffffffffffffffffffffffffffffffffff160217905550826005908162000089919062000779565b5081600690816200009b919062000779565b5083600381905550846002819055508060076000820151816000019081620000c4919062000779565b506020820151816001019081620000dc919062000779565b5060408201518160020160006101000a81548161ffff021916908361ffff1602179055509050504260018190555050505050505062000860565b6000604051905090565b600080fd5b600080fd5b600073ffffffffffffffffffffffffffffffffffffffff82169050919050565b600062000157826200012a565b9050919050565b62000169816200014a565b81146200017557600080fd5b50565b60008151905062000189816200015e565b92915050565b6000819050919050565b620001a4816200018f565b8114620001b057600080fd5b50565b600081519050620001c48162000199565b92915050565b600080fd5b600080fd5b6000601f19601f8301169050919050565b7f4e487b7100000000000000000000000000000000000000000000000000000000600052604160045260246000fd5b6200021f82620001d4565b810181811067ffffffffffffffff82111715620002415762000240620001e5565b5b80604052505050565b60006200025662000116565b905062000264828262000214565b919050565b600067ffffffffffffffff821115620002875762000286620001e5565b5b6200029282620001d4565b9050602081019050919050565b60005b83811015620002bf578082015181840152602081019050620002a2565b60008484015250505050565b6000620002e2620002dc8462000269565b6200024a565b905082815260208101848484011115620003015762000300620001cf565b5b6200030e8482856200029f565b509392505050565b600082601f8301126200032e576200032d620001ca565b5b815162000340848260208601620002cb565b91505092915050565b600080fd5b600080fd5b600061ffff82169050919050565b6200036c8162000353565b81146200037857600080fd5b50565b6000815190506200038c8162000361565b92915050565b600060608284031215620003ab57620003aa62000349565b5b620003b760606200024a565b9050600082015167ffffffffffffffff811115620003da57620003d96200034e565b5b620003e88482850162000316565b600083015250602082015167ffffffffffffffff8111156200040f576200040e6200034e565b5b6200041d8482850162000316565b602083015250604062000433848285016200037b565b60408301525092915050565b60008060008060008060c087890312156200045f576200045e62000120565b5b60006200046f89828a0162000178565b96505060206200048289828a01620001b3565b95505060406200049589828a01620001b3565b945050606087015167ffffffffffffffff811115620004b957620004b862000125565b5b620004c789828a0162000316565b935050608087015167ffffffffffffffff811115620004eb57620004ea62000125565b5b620004f989828a0162000316565b92505060a087015167ffffffffffffffff8111156200051d576200051c62000125565b5b6200052b89828a0162000392565b9150509295509295509295565b600081519050919050565b7f4e487b7100000000000000000000000000000000000000000000000000000000600052602260045260246000fd5b600060028204905060018216806200058b57607f821691505b602082108103620005a157620005a062000543565b5b50919050565b60008190508160005260206000209050919050565b60006020601f8301049050919050565b600082821b905092915050565b6000600883026200060b7fffffffffffffffffffffffffffffffffffffffffffffffffffffffffffffffff82620005cc565b620006178683620005cc565b95508019841693508086168417925050509392505050565b6000819050919050565b60006200065a620006546200064e846200018f565b6200062f565b6200018f565b9050919050565b6000819050919050565b620006768362000639565b6200068e620006858262000661565b848454620005d9565b825550505050565b600090565b620006a562000696565b620006b28184846200066b565b505050565b5b81811015620006da57620006ce6000826200069b565b600181019050620006b8565b5050565b601f8211156200072957620006f381620005a7565b620006fe84620005bc565b810160208510156200070e578190505b620007266200071d85620005bc565b830182620006b7565b50505b505050565b600082821c905092915050565b60006200074e600019846008026200072e565b1980831691505092915050565b60006200076983836200073b565b9150826002028217905092915050565b620007848262000538565b67ffffffffffffffff811115620007a0576200079f620001e5565b5b620007ac825462000572565b620007b9828285620006de565b600060209050601f831160018114620007f15760008415620007dc578287015190505b620007e885826200075b565b86555062000858565b601f1984166200080186620005a7565b60005b828110156200082b5784890151825560018201915060208501945060208101905062000804565b868310156200084b578489015162000847601f8916826200073b565b8355505b6001600288020188555050505b505050505050565b61141b80620008706000396000f3fe608060405234801561001057600080fd5b50600436106100cf5760003560e01c80639974da361161008c578063f0dd3eac11610066578063f0dd3eac146101e7578063f2a4a82e14610205578063f2da002014610225578063f6c3a97414610243576100cf565b80639974da361461018d578063af16e3ea146101ab578063da9968af146101c9576100cf565b8063012e0d44146100d457806315d8ae5014610105578063169637a3146101235780635a9b0b891461013f5780636d68a7aa146101655780638ac4991414610183575b600080fd5b6100ee60048036038101906100e99190610c39565b610261565b6040516100fc929190610cb6565b60405180910390f35b61010d6102b5565b60405161011a9190610cfa565b60405180910390f35b61013d60048036038101906101389190610c39565b6102c6565b005b6101476103f9565b60405161015c99989796959493929190610e63565b60405180910390f35b61016d6106f2565b60405161017a9190610f05565b60405180910390f35b61018b610780565b005b610195610870565b6040516101a29190610f74565b60405180910390f35b6101b36109ad565b6040516101c09190610f8f565b60405180910390f35b6101d16109b3565b6040516101de9190610f05565b60405180910390f35b6101ef610a41565b6040516101fc9190610f8f565b60405180910390f35b61020d610a47565b60405161021c93929190610fb9565b60405180910390f35b61022d610b7d565b60405161023a9190610ffe565b60405180910390f35b61024b610ba3565b6040516102589190610f8f565b60405180910390f35b600a818154811061027157600080fd5b90600052602060002090600202016000915090508060000160009054906101000a900473ffffffffffffffffffffffffffffffffffffffff16908060010154905082565b60008054906101000a900460ff1681565b426003541180156102d8575042600254105b80156102ef575060008054906101000a900460ff16155b80156102fe5750600060015414155b61033d576040517f08c379a00000000000000000000000000000000000000000000000000000000081526004016103349061108b565b60405180910390fd5b6000600a6001816001815401808255809150500390600052602060002090600202019050338160000160006101000a81548173ffffffffffffffffffffffffffffffffffffffff021916908373ffffffffffffffffffffffffffffffffffffffff160217905550818160010181905550600a600b54815481106103c3576103c26110ab565b5b9060005260206000209060020201600101548210156103f5576001600a805490506103ee9190611109565b600b819055505b5050565b60008060008060608061040a610ba9565b600080600154600254600354600460009054906101000a900473ffffffffffffffffffffffffffffffffffffffff16600560066007600a8054905060008054906101000a900460ff1661045e57600061046b565b610466610870565b600001515b8480546104779061116c565b80601f01602080910402602001604051908101604052809291908181526020018280546104a39061116c565b80156104f05780601f106104c5576101008083540402835291602001916104f0565b820191906000526020600020905b8154815290600101906020018083116104d357829003601f168201915b505050505094508380546105039061116c565b80601f016020809104026020016040519081016040528092919081815260200182805461052f9061116c565b801561057c5780601f106105515761010080835404028352916020019161057c565b820191906000526020600020905b81548152906001019060200180831161055f57829003601f168201915b505050505093508260405180606001604052908160008201805461059f9061116c565b80601f01602080910402602001604051908101604052809291908181526020018280546105cb9061116c565b80156106185780601f106105ed57610100808354040283529160200191610618565b820191906000526020600020905b8154815290600101906020018083116105fb57829003601f168201915b505050505081526020016001820180546106319061116c565b80601f016020809104026020016040519081016040528092919081815260200182805461065d9061116c565b80156106aa5780601f1061067f576101008083540402835291602001916106aa565b820191906000526020600020905b81548152906001019060200180831161068d57829003601f168201915b505050505081526020016002820160009054906101000a900461ffff1661ffff1661ffff16815250509250985098509850985098509850985098509850909192939495969798565b600580546106ff9061116c565b80601f016020809104026020016040519081016040528092919081815260200182805461072b9061116c565b80156107785780601f1061074d57610100808354040283529160200191610778565b820191906000526020600020905b81548152906001019060200180831161075b57829003601f168201915b505050505081565b600460009054906101000a900473ffffffffffffffffffffffffffffffffffffffff1673ffffffffffffffffffffffffffffffffffffffff163373ffffffffffffffffffffffffffffffffffffffff1614610810576040517f08c379a00000000000000000000000000000000000000000000000000000000081526004016108079061120f565b60405180910390fd5b4260035410610854576040517f08c379a000000000000000000000000000000000000000000000000000000000815260040161084b906112a1565b60405180910390fd5b60016000806101000a81548160ff021916908315150217905550565b610878610bce565b426003541080610892575060008054906101000a900460ff165b6108d1576040517f08c379a00000000000000000000000000000000000000000000000000000000081526004016108c890611333565b60405180910390fd5b6000600a8054905003610919576040517f08c379a0000000000000000000000000000000000000000000000000000000008152600401610910906113c5565b60405180910390fd5b600a600b548154811061092f5761092e6110ab565b5b90600052602060002090600202016040518060400160405290816000820160009054906101000a900473ffffffffffffffffffffffffffffffffffffffff1673ffffffffffffffffffffffffffffffffffffffff1673ffffffffffffffffffffffffffffffffffffffff168152602001600182015481525050905090565b60015481565b600680546109c09061116c565b80601f01602080910402602001604051908101604052809291908181526020018280546109ec9061116c565b8015610a395780601f10610a0e57610100808354040283529160200191610a39565b820191906000526020600020905b815481529060010190602001808311610a1c57829003601f168201915b505050505081565b60025481565b6007806000018054610a589061116c565b80601f0160208091040260200160405190810160405280929190818152602001828054610a849061116c565b8015610ad15780601f10610aa657610100808354040283529160200191610ad1565b820191906000526020600020905b815481529060010190602001808311610ab457829003601f168201915b505050505090806001018054610ae69061116c565b80601f0160208091040260200160405190810160405280929190818152602001828054610b129061116c565b8015610b5f5780601f10610b3457610100808354040283529160200191610b5f565b820191906000526020600020905b815481529060010190602001808311610b4257829003601f168201915b5050505050908060020160009054906101000a900461ffff16905083565b600460009054906101000a900473ffffffffffffffffffffffffffffffffffffffff1681565b60035481565b60405180606001604052806060815260200160608152602001600061ffff1681525090565b6040518060400160405280600073ffffffffffffffffffffffffffffffffffffffff168152602001600081525090565b600080fd5b6000819050919050565b610c1681610c03565b8114610c2157600080fd5b50565b600081359050610c3381610c0d565b92915050565b600060208284031215610c4f57610c4e610bfe565b5b6000610c5d84828501610c24565b91505092915050565b600073ffffffffffffffffffffffffffffffffffffffff82169050919050565b6000610c9182610c66565b9050919050565b610ca181610c86565b82525050565b610cb081610c03565b82525050565b6000604082019050610ccb6000830185610c98565b610cd86020830184610ca7565b9392505050565b60008115159050919050565b610cf481610cdf565b82525050565b6000602082019050610d0f6000830184610ceb565b92915050565b600081519050919050565b600082825260208201905092915050565b60005b83811015610d4f578082015181840152602081019050610d34565b60008484015250505050565b6000601f19601f8301169050919050565b6000610d7782610d15565b610d818185610d20565b9350610d91818560208601610d31565b610d9a81610d5b565b840191505092915050565b600082825260208201905092915050565b6000610dc182610d15565b610dcb8185610da5565b9350610ddb818560208601610d31565b610de481610d5b565b840191505092915050565b600061ffff82169050919050565b610e0681610def565b82525050565b60006060830160008301518482036000860152610e298282610db6565b91505060208301518482036020860152610e438282610db6565b9150506040830151610e586040860182610dfd565b508091505092915050565b600061012082019050610e79600083018c610ca7565b610e86602083018b610ca7565b610e93604083018a610ca7565b610ea06060830189610c98565b8181036080830152610eb28188610d6c565b905081810360a0830152610ec68187610d6c565b905081810360c0830152610eda8186610e0c565b9050610ee960e0830185610ca7565b610ef7610100830184610c98565b9a9950505050505050505050565b60006020820190508181036000830152610f1f8184610d6c565b905092915050565b610f3081610c86565b82525050565b610f3f81610c03565b82525050565b604082016000820151610f5b6000850182610f27565b506020820151610f6e6020850182610f36565b50505050565b6000604082019050610f896000830184610f45565b92915050565b6000602082019050610fa46000830184610ca7565b92915050565b610fb381610def565b82525050565b60006060820190508181036000830152610fd38186610d6c565b90508181036020830152610fe78185610d6c565b9050610ff66040830184610faa565b949350505050565b60006020820190506110136000830184610c98565b92915050565b7f4c696369746163616f206e616f2065737461206163656974616e646f2070726f60008201527f706f737461730000000000000000000000000000000000000000000000000000602082015250565b6000611075602683610d20565b915061108082611019565b604082019050919050565b600060208201905081810360008301526110a481611068565b9050919050565b7f4e487b7100000000000000000000000000000000000000000000000000000000600052603260045260246000fd5b7f4e487b7100000000000000000000000000000000000000000000000000000000600052601160045260246000fd5b600061111482610c03565b915061111f83610c03565b9250828203905081811115611137576111366110da565b5b92915050565b7f4e487b7100000000000000000000000000000000000000000000000000000000600052602260045260246000fd5b6000600282049050600182168061118457607f821691505b6020821081036111975761119661113d565b5b50919050565b7f4170656e6173206f206f7267616f20726571756572656e746520706f6465206360008201527f68616d617220657373612066756e63616f000000000000000000000000000000602082015250565b60006111f9603183610d20565b91506112048261119d565b604082019050919050565b60006020820190508181036000830152611228816111ec565b9050919050565b7f44617461206465206162657274757261206461732070726f706f73746173207060008201527f75626c696361646f2061696e6461206e616f20636865676f7500000000000000602082015250565b600061128b603983610d20565b91506112968261122f565b604082019050919050565b600060208201905081810360008301526112ba8161127e565b9050919050565b7f4162657274757261206461732070726f706f737461732061696e6461206e616f60008201527f207265616c697a61646100000000000000000000000000000000000000000000602082015250565b600061131d602a83610d20565b9150611328826112c1565b604082019050919050565b6000602082019050818103600083015261134c81611310565b9050919050565b7f4e616f206861206e656e68756d206c69636974616e746520706172612065737460008201527f61206c696369746163616f000000000000000000000000000000000000000000602082015250565b60006113af602b83610d20565b91506113ba82611353565b604082019050919050565b600060208201905081810360008301526113de816113a2565b905091905056fea26469706673582212208f4efd3e561dedfd25e06e38980e1920d375cf08f3e868764dd703ce95abc2dc64736f6c63430008110033","opcodes":"PUSH1 0x80 PUSH1 0x40 MSTORE CALLVALUE DUP1 ISZERO PUSH3 0x11 JUMPI PUSH1 0x0 DUP1 REVERT JUMPDEST POP PUSH1 0x40 MLOAD PUSH3 0x1C8B CODESIZE SUB DUP1 PUSH3 0x1C8B DUP4 CODECOPY DUP2 DUP2 ADD PUSH1 0x40 MSTORE DUP2 ADD SWAP1 PUSH3 0x37 SWAP2 SWAP1 PUSH3 0x43F JUMP JUMPDEST DUP6 PUSH1 0x4 PUSH1 0x0 PUSH2 0x100 EXP DUP2 SLOAD DUP2 PUSH20 0xFFFFFFFFFFFFFFFFFFFFFFFFFFFFFFFFFFFFFFFF MUL NOT AND SWAP1 DUP4 PUSH20 0xFFFFFFFFFFFFFFFFFFFFFFFFFFFFFFFFFFFFFFFF AND MUL OR SWAP1 SSTORE POP DUP3 PUSH1 0x5 SWAP1 DUP2 PUSH3 0x89 SWAP2 SWAP1 PUSH3 0x779 JUMP JUMPDEST POP DUP2 PUSH1 0x6 SWAP1 DUP2 PUSH3 0x9B SWAP2 SWAP1 PUSH3 0x779 JUMP JUMPDEST POP DUP4 PUSH1 0x3 DUP2 SWAP1 SSTORE POP DUP5 PUSH1 0x2 DUP2 SWAP1 SSTORE POP DUP1 PUSH1 0x7 PUSH1 0x0 DUP3 ADD MLOAD DUP2 PUSH1 0x0 ADD SWAP1 DUP2 PUSH3 0xC4 SWAP2 SWAP1 PUSH3 0x779 JUMP JUMPDEST POP PUSH1 0x20 DUP3 ADD MLOAD DUP2 PUSH1 0x1 ADD SWAP1 DUP2 PUSH3 0xDC SWAP2 SWAP1 PUSH3 0x779 JUMP JUMPDEST POP PUSH1 0x40 DUP3 ADD MLOAD DUP2 PUSH1 0x2 ADD PUSH1 0x0 PUSH2 0x100 EXP DUP2 SLOAD DUP2 PUSH2 0xFFFF MUL NOT AND SWAP1 DUP4 PUSH2 0xFFFF AND MUL OR SWAP1 SSTORE POP SWAP1 POP POP TIMESTAMP PUSH1 0x1 DUP2 SWAP1 SSTORE POP POP POP POP POP POP POP PUSH3 0x860 JUMP JUMPDEST PUSH1 0x0 PUSH1 0x40 MLOAD SWAP1 POP SWAP1 JUMP JUMPDEST PUSH1 0x0 DUP1 REVERT JUMPDEST PUSH1 0x0 DUP1 REVERT JUMPDEST PUSH1 0x0 PUSH20 0xFFFFFFFFFFFFFFFFFFFFFFFFFFFFFFFFFFFFFFFF DUP3 AND SWAP1 POP SWAP2 SWAP1 POP JUMP JUMPDEST PUSH1 0x0 PUSH3 0x157 DUP3 PUSH3 0x12A JUMP JUMPDEST SWAP1 POP SWAP2 SWAP1 POP JUMP JUMPDEST PUSH3 0x169 DUP2 PUSH3 0x14A JUMP JUMPDEST DUP2 EQ PUSH3 0x175 JUMPI PUSH1 0x0 DUP1 REVERT JUMPDEST POP JUMP JUMPDEST PUSH1 0x0 DUP2 MLOAD SWAP1 POP PUSH3 0x189 DUP2 PUSH3 0x15E JUMP JUMPDEST SWAP3 SWAP2 POP POP JUMP JUMPDEST PUSH1 0x0 DUP2 SWAP1 POP SWAP2 SWAP1 POP JUMP JUMPDEST PUSH3 0x1A4 DUP2 PUSH3 0x18F JUMP JUMPDEST DUP2 EQ PUSH3 0x1B0 JUMPI PUSH1 0x0 DUP1 REVERT JUMPDEST POP JUMP JUMPDEST PUSH1 0x0 DUP2 MLOAD SWAP1 POP PUSH3 0x1C4 DUP2 PUSH3 0x199 JUMP JUMPDEST SWAP3 SWAP2 POP POP JUMP JUMPDEST PUSH1 0x0 DUP1 REVERT JUMPDEST PUSH1 0x0 DUP1 REVERT JUMPDEST PUSH1 0x0 PUSH1 0x1F NOT PUSH1 0x1F DUP4 ADD AND SWAP1 POP SWAP2 SWAP1 POP JUMP JUMPDEST PUSH32 0x4E487B7100000000000000000000000000000000000000000000000000000000 PUSH1 0x0 MSTORE PUSH1 0x41 PUSH1 0x4 MSTORE PUSH1 0x24 PUSH1 0x0 REVERT JUMPDEST PUSH3 0x21F DUP3 PUSH3 0x1D4 JUMP JUMPDEST DUP2 ADD DUP2 DUP2 LT PUSH8 0xFFFFFFFFFFFFFFFF DUP3 GT OR ISZERO PUSH3 0x241 JUMPI PUSH3 0x240 PUSH3 0x1E5 JUMP JUMPDEST JUMPDEST DUP1 PUSH1 0x40 MSTORE POP POP POP JUMP JUMPDEST PUSH1 0x0 PUSH3 0x256 PUSH3 0x116 JUMP JUMPDEST SWAP1 POP PUSH3 0x264 DUP3 DUP3 PUSH3 0x214 JUMP JUMPDEST SWAP2 SWAP1 POP JUMP JUMPDEST PUSH1 0x0 PUSH8 0xFFFFFFFFFFFFFFFF DUP3 GT ISZERO PUSH3 0x287 JUMPI PUSH3 0x286 PUSH3 0x1E5 JUMP JUMPDEST JUMPDEST PUSH3 0x292 DUP3 PUSH3 0x1D4 JUMP JUMPDEST SWAP1 POP PUSH1 0x20 DUP2 ADD SWAP1 POP SWAP2 SWAP1 POP JUMP JUMPDEST PUSH1 0x0 JUMPDEST DUP4 DUP2 LT ISZERO PUSH3 0x2BF JUMPI DUP1 DUP3 ADD MLOAD DUP2 DUP5 ADD MSTORE PUSH1 0x20 DUP2 ADD SWAP1 POP PUSH3 0x2A2 JUMP JUMPDEST PUSH1 0x0 DUP5 DUP5 ADD MSTORE POP POP POP POP JUMP JUMPDEST PUSH1 0x0 PUSH3 0x2E2 PUSH3 0x2DC DUP5 PUSH3 0x269 JUMP JUMPDEST PUSH3 0x24A JUMP JUMPDEST SWAP1 POP DUP3 DUP2 MSTORE PUSH1 0x20 DUP2 ADD DUP5 DUP5 DUP5 ADD GT ISZERO PUSH3 0x301 JUMPI PUSH3 0x300 PUSH3 0x1CF JUMP JUMPDEST JUMPDEST PUSH3 0x30E DUP5 DUP3 DUP6 PUSH3 0x29F JUMP JUMPDEST POP SWAP4 SWAP3 POP POP POP JUMP JUMPDEST PUSH1 0x0 DUP3 PUSH1 0x1F DUP4 ADD SLT PUSH3 0x32E JUMPI PUSH3 0x32D PUSH3 0x1CA JUMP JUMPDEST JUMPDEST DUP2 MLOAD PUSH3 0x340 DUP5 DUP3 PUSH1 0x20 DUP7 ADD PUSH3 0x2CB JUMP JUMPDEST SWAP2 POP POP SWAP3 SWAP2 POP POP JUMP JUMPDEST PUSH1 0x0 DUP1 REVERT JUMPDEST PUSH1 0x0 DUP1 REVERT JUMPDEST PUSH1 0x0 PUSH2 0xFFFF DUP3 AND SWAP1 POP SWAP2 SWAP1 POP JUMP JUMPDEST PUSH3 0x36C DUP2 PUSH3 0x353 JUMP JUMPDEST DUP2 EQ PUSH3 0x378 JUMPI PUSH1 0x0 DUP1 REVERT JUMPDEST POP JUMP JUMPDEST PUSH1 0x0 DUP2 MLOAD SWAP1 POP PUSH3 0x38C DUP2 PUSH3 0x361 JUMP JUMPDEST SWAP3 SWAP2 POP POP JUMP JUMPDEST PUSH1 0x0 PUSH1 0x60 DUP3 DUP5 SUB SLT ISZERO PUSH3 0x3AB JUMPI PUSH3 0x3AA PUSH3 0x349 JUMP JUMPDEST JUMPDEST PUSH3 0x3B7 PUSH1 0x60 PUSH3 0x24A JUMP JUMPDEST SWAP1 POP PUSH1 0x0 DUP3 ADD MLOAD PUSH8 0xFFFFFFFFFFFFFFFF DUP2 GT ISZERO PUSH3 0x3DA JUMPI PUSH3 0x3D9 PUSH3 0x34E JUMP JUMPDEST JUMPDEST PUSH3 0x3E8 DUP5 DUP3 DUP6 ADD PUSH3 0x316 JUMP JUMPDEST PUSH1 0x0 DUP4 ADD MSTORE POP PUSH1 0x20 DUP3 ADD MLOAD PUSH8 0xFFFFFFFFFFFFFFFF DUP2 GT ISZERO PUSH3 0x40F JUMPI PUSH3 0x40E PUSH3 0x34E JUMP JUMPDEST JUMPDEST PUSH3 0x41D DUP5 DUP3 DUP6 ADD PUSH3 0x316 JUMP JUMPDEST PUSH1 0x20 DUP4 ADD MSTORE POP PUSH1 0x40 PUSH3 0x433 DUP5 DUP3 DUP6 ADD PUSH3 0x37B JUMP JUMPDEST PUSH1 0x40 DUP4 ADD MSTORE POP SWAP3 SWAP2 POP POP JUMP JUMPDEST PUSH1 0x0 DUP1 PUSH1 0x0 DUP1 PUSH1 0x0 DUP1 PUSH1 0xC0 DUP8 DUP10 SUB SLT ISZERO PUSH3 0x45F JUMPI PUSH3 0x45E PUSH3 0x120 JUMP JUMPDEST JUMPDEST PUSH1 0x0 PUSH3 0x46F DUP10 DUP3 DUP11 ADD PUSH3 0x178 JUMP JUMPDEST SWAP7 POP POP PUSH1 0x20 PUSH3 0x482 DUP10 DUP3 DUP11 ADD PUSH3 0x1B3 JUMP JUMPDEST SWAP6 POP POP PUSH1 0x40 PUSH3 0x495 DUP10 DUP3 DUP11 ADD PUSH3 0x1B3 JUMP JUMPDEST SWAP5 POP POP PUSH1 0x60 DUP8 ADD MLOAD PUSH8 0xFFFFFFFFFFFFFFFF DUP2 GT ISZERO PUSH3 0x4B9 JUMPI PUSH3 0x4B8 PUSH3 0x125 JUMP JUMPDEST JUMPDEST PUSH3 0x4C7 DUP10 DUP3 DUP11 ADD PUSH3 0x316 JUMP JUMPDEST SWAP4 POP POP PUSH1 0x80 DUP8 ADD MLOAD PUSH8 0xFFFFFFFFFFFFFFFF DUP2 GT ISZERO PUSH3 0x4EB JUMPI PUSH3 0x4EA PUSH3 0x125 JUMP JUMPDEST JUMPDEST PUSH3 0x4F9 DUP10 DUP3 DUP11 ADD PUSH3 0x316 JUMP JUMPDEST SWAP3 POP POP PUSH1 0xA0 DUP8 ADD MLOAD PUSH8 0xFFFFFFFFFFFFFFFF DUP2 GT ISZERO PUSH3 0x51D JUMPI PUSH3 0x51C PUSH3 0x125 JUMP JUMPDEST JUMPDEST PUSH3 0x52B DUP10 DUP3 DUP11 ADD PUSH3 0x392 JUMP JUMPDEST SWAP2 POP POP SWAP3 SWAP6 POP SWAP3 SWAP6 POP SWAP3 SWAP6 JUMP JUMPDEST PUSH1 0x0 DUP2 MLOAD SWAP1 POP SWAP2 SWAP1 POP JUMP JUMPDEST PUSH32 0x4E487B7100000000000000000000000000000000000000000000000000000000 PUSH1 0x0 MSTORE PUSH1 0x22 PUSH1 0x4 MSTORE PUSH1 0x24 PUSH1 0x0 REVERT JUMPDEST PUSH1 0x0 PUSH1 0x2 DUP3 DIV SWAP1 POP PUSH1 0x1 DUP3 AND DUP1 PUSH3 0x58B JUMPI PUSH1 0x7F DUP3 AND SWAP2 POP JUMPDEST PUSH1 0x20 DUP3 LT DUP2 SUB PUSH3 0x5A1 JUMPI PUSH3 0x5A0 PUSH3 0x543 JUMP JUMPDEST JUMPDEST POP SWAP2 SWAP1 POP JUMP JUMPDEST PUSH1 0x0 DUP2 SWAP1 POP DUP2 PUSH1 0x0 MSTORE PUSH1 0x20 PUSH1 0x0 KECCAK256 SWAP1 POP SWAP2 SWAP1 POP JUMP JUMPDEST PUSH1 0x0 PUSH1 0x20 PUSH1 0x1F DUP4 ADD DIV SWAP1 POP SWAP2 SWAP1 POP JUMP JUMPDEST PUSH1 0x0 DUP3 DUP3 SHL SWAP1 POP SWAP3 SWAP2 POP POP JUMP JUMPDEST PUSH1 0x0 PUSH1 0x8 DUP4 MUL PUSH3 0x60B PUSH32 0xFFFFFFFFFFFFFFFFFFFFFFFFFFFFFFFFFFFFFFFFFFFFFFFFFFFFFFFFFFFFFFFF DUP3 PUSH3 0x5CC JUMP JUMPDEST PUSH3 0x617 DUP7 DUP4 PUSH3 0x5CC JUMP JUMPDEST SWAP6 POP DUP1 NOT DUP5 AND SWAP4 POP DUP1 DUP7 AND DUP5 OR SWAP3 POP POP POP SWAP4 SWAP3 POP POP POP JUMP JUMPDEST PUSH1 0x0 DUP2 SWAP1 POP SWAP2 SWAP1 POP JUMP JUMPDEST PUSH1 0x0 PUSH3 0x65A PUSH3 0x654 PUSH3 0x64E DUP5 PUSH3 0x18F JUMP JUMPDEST PUSH3 0x62F JUMP JUMPDEST PUSH3 0x18F JUMP JUMPDEST SWAP1 POP SWAP2 SWAP1 POP JUMP JUMPDEST PUSH1 0x0 DUP2 SWAP1 POP SWAP2 SWAP1 POP JUMP JUMPDEST PUSH3 0x676 DUP4 PUSH3 0x639 JUMP JUMPDEST PUSH3 0x68E PUSH3 0x685 DUP3 PUSH3 0x661 JUMP JUMPDEST DUP5 DUP5 SLOAD PUSH3 0x5D9 JUMP JUMPDEST DUP3 SSTORE POP POP POP POP JUMP JUMPDEST PUSH1 0x0 SWAP1 JUMP JUMPDEST PUSH3 0x6A5 PUSH3 0x696 JUMP JUMPDEST PUSH3 0x6B2 DUP2 DUP5 DUP5 PUSH3 0x66B JUMP JUMPDEST POP POP POP JUMP JUMPDEST JUMPDEST DUP2 DUP2 LT ISZERO PUSH3 0x6DA JUMPI PUSH3 0x6CE PUSH1 0x0 DUP3 PUSH3 0x69B JUMP JUMPDEST PUSH1 0x1 DUP2 ADD SWAP1 POP PUSH3 0x6B8 JUMP JUMPDEST POP POP JUMP JUMPDEST PUSH1 0x1F DUP3 GT ISZERO PUSH3 0x729 JUMPI PUSH3 0x6F3 DUP2 PUSH3 0x5A7 JUMP JUMPDEST PUSH3 0x6FE DUP5 PUSH3 0x5BC JUMP JUMPDEST DUP2 ADD PUSH1 0x20 DUP6 LT ISZERO PUSH3 0x70E JUMPI DUP2 SWAP1 POP JUMPDEST PUSH3 0x726 PUSH3 0x71D DUP6 PUSH3 0x5BC JUMP JUMPDEST DUP4 ADD DUP3 PUSH3 0x6B7 JUMP JUMPDEST POP POP JUMPDEST POP POP POP JUMP JUMPDEST PUSH1 0x0 DUP3 DUP3 SHR SWAP1 POP SWAP3 SWAP2 POP POP JUMP JUMPDEST PUSH1 0x0 PUSH3 0x74E PUSH1 0x0 NOT DUP5 PUSH1 0x8 MUL PUSH3 0x72E JUMP JUMPDEST NOT DUP1 DUP4 AND SWAP2 POP POP SWAP3 SWAP2 POP POP JUMP JUMPDEST PUSH1 0x0 PUSH3 0x769 DUP4 DUP4 PUSH3 0x73B JUMP JUMPDEST SWAP2 POP DUP3 PUSH1 0x2 MUL DUP3 OR SWAP1 POP SWAP3 SWAP2 POP POP JUMP JUMPDEST PUSH3 0x784 DUP3 PUSH3 0x538 JUMP JUMPDEST PUSH8 0xFFFFFFFFFFFFFFFF DUP2 GT ISZERO PUSH3 0x7A0 JUMPI PUSH3 0x79F PUSH3 0x1E5 JUMP JUMPDEST JUMPDEST PUSH3 0x7AC DUP3 SLOAD PUSH3 0x572 JUMP JUMPDEST PUSH3 0x7B9 DUP3 DUP3 DUP6 PUSH3 0x6DE JUMP JUMPDEST PUSH1 0x0 PUSH1 0x20 SWAP1 POP PUSH1 0x1F DUP4 GT PUSH1 0x1 DUP2 EQ PUSH3 0x7F1 JUMPI PUSH1 0x0 DUP5 ISZERO PUSH3 0x7DC JUMPI DUP3 DUP8 ADD MLOAD SWAP1 POP JUMPDEST PUSH3 0x7E8 DUP6 DUP3 PUSH3 0x75B JUMP JUMPDEST DUP7 SSTORE POP PUSH3 0x858 JUMP JUMPDEST PUSH1 0x1F NOT DUP5 AND PUSH3 0x801 DUP7 PUSH3 0x5A7 JUMP JUMPDEST PUSH1 0x0 JUMPDEST DUP3 DUP2 LT ISZERO PUSH3 0x82B JUMPI DUP5 DUP10 ADD MLOAD DUP3 SSTORE PUSH1 0x1 DUP3 ADD SWAP2 POP PUSH1 0x20 DUP6 ADD SWAP5 POP PUSH1 0x20 DUP2 ADD SWAP1 POP PUSH3 0x804 JUMP JUMPDEST DUP7 DUP4 LT ISZERO PUSH3 0x84B JUMPI DUP5 DUP10 ADD MLOAD PUSH3 0x847 PUSH1 0x1F DUP10 AND DUP3 PUSH3 0x73B JUMP JUMPDEST DUP4 SSTORE POP JUMPDEST PUSH1 0x1 PUSH1 0x2 DUP9 MUL ADD DUP9 SSTORE POP POP POP JUMPDEST POP POP POP POP POP POP JUMP JUMPDEST PUSH2 0x141B DUP1 PUSH3 0x870 PUSH1 0x0 CODECOPY PUSH1 0x0 RETURN INVALID PUSH1 0x80 PUSH1 0x40 MSTORE CALLVALUE DUP1 ISZERO PUSH2 0x10 JUMPI PUSH1 0x0 DUP1 REVERT JUMPDEST POP PUSH1 0x4 CALLDATASIZE LT PUSH2 0xCF JUMPI PUSH1 0x0 CALLDATALOAD PUSH1 0xE0 SHR DUP1 PUSH4 0x9974DA36 GT PUSH2 0x8C JUMPI DUP1 PUSH4 0xF0DD3EAC GT PUSH2 0x66 JUMPI DUP1 PUSH4 0xF0DD3EAC EQ PUSH2 0x1E7 JUMPI DUP1 PUSH4 0xF2A4A82E EQ PUSH2 0x205 JUMPI DUP1 PUSH4 0xF2DA0020 EQ PUSH2 0x225 JUMPI DUP1 PUSH4 0xF6C3A974 EQ PUSH2 0x243 JUMPI PUSH2 0xCF JUMP JUMPDEST DUP1 PUSH4 0x9974DA36 EQ PUSH2 0x18D JUMPI DUP1 PUSH4 0xAF16E3EA EQ PUSH2 0x1AB JUMPI DUP1 PUSH4 0xDA9968AF EQ PUSH2 0x1C9 JUMPI PUSH2 0xCF JUMP JUMPDEST DUP1 PUSH4 0x12E0D44 EQ PUSH2 0xD4 JUMPI DUP1 PUSH4 0x15D8AE50 EQ PUSH2 0x105 JUMPI DUP1 PUSH4 0x169637A3 EQ PUSH2 0x123 JUMPI DUP1 PUSH4 0x5A9B0B89 EQ PUSH2 0x13F JUMPI DUP1 PUSH4 0x6D68A7AA EQ PUSH2 0x165 JUMPI DUP1 PUSH4 0x8AC49914 EQ PUSH2 0x183 JUMPI JUMPDEST PUSH1 0x0 DUP1 REVERT JUMPDEST PUSH2 0xEE PUSH1 0x4 DUP1 CALLDATASIZE SUB DUP2 ADD SWAP1 PUSH2 0xE9 SWAP2 SWAP1 PUSH2 0xC39 JUMP JUMPDEST PUSH2 0x261 JUMP JUMPDEST PUSH1 0x40 MLOAD PUSH2 0xFC SWAP3 SWAP2 SWAP1 PUSH2 0xCB6 JUMP JUMPDEST PUSH1 0x40 MLOAD DUP1 SWAP2 SUB SWAP1 RETURN JUMPDEST PUSH2 0x10D PUSH2 0x2B5 JUMP JUMPDEST PUSH1 0x40 MLOAD PUSH2 0x11A SWAP2 SWAP1 PUSH2 0xCFA JUMP JUMPDEST PUSH1 0x40 MLOAD DUP1 SWAP2 SUB SWAP1 RETURN JUMPDEST PUSH2 0x13D PUSH1 0x4 DUP1 CALLDATASIZE SUB DUP2 ADD SWAP1 PUSH2 0x138 SWAP2 SWAP1 PUSH2 0xC39 JUMP JUMPDEST PUSH2 0x2C6 JUMP JUMPDEST STOP JUMPDEST PUSH2 0x147 PUSH2 0x3F9 JUMP JUMPDEST PUSH1 0x40 MLOAD PUSH2 0x15C SWAP10 SWAP9 SWAP8 SWAP7 SWAP6 SWAP5 SWAP4 SWAP3 SWAP2 SWAP1 PUSH2 0xE63 JUMP JUMPDEST PUSH1 0x40 MLOAD DUP1 SWAP2 SUB SWAP1 RETURN JUMPDEST PUSH2 0x16D PUSH2 0x6F2 JUMP JUMPDEST PUSH1 0x40 MLOAD PUSH2 0x17A SWAP2 SWAP1 PUSH2 0xF05 JUMP JUMPDEST PUSH1 0x40 MLOAD DUP1 SWAP2 SUB SWAP1 RETURN JUMPDEST PUSH2 0x18B PUSH2 0x780 JUMP JUMPDEST STOP JUMPDEST PUSH2 0x195 PUSH2 0x870 JUMP JUMPDEST PUSH1 0x40 MLOAD PUSH2 0x1A2 SWAP2 SWAP1 PUSH2 0xF74 JUMP JUMPDEST PUSH1 0x40 MLOAD DUP1 SWAP2 SUB SWAP1 RETURN JUMPDEST PUSH2 0x1B3 PUSH2 0x9AD JUMP JUMPDEST PUSH1 0x40 MLOAD PUSH2 0x1C0 SWAP2 SWAP1 PUSH2 0xF8F JUMP JUMPDEST PUSH1 0x40 MLOAD DUP1 SWAP2 SUB SWAP1 RETURN JUMPDEST PUSH2 0x1D1 PUSH2 0x9B3 JUMP JUMPDEST PUSH1 0x40 MLOAD PUSH2 0x1DE SWAP2 SWAP1 PUSH2 0xF05 JUMP JUMPDEST PUSH1 0x40 MLOAD DUP1 SWAP2 SUB SWAP1 RETURN JUMPDEST PUSH2 0x1EF PUSH2 0xA41 JUMP JUMPDEST PUSH1 0x40 MLOAD PUSH2 0x1FC SWAP2 SWAP1 PUSH2 0xF8F JUMP JUMPDEST PUSH1 0x40 MLOAD DUP1 SWAP2 SUB SWAP1 RETURN JUMPDEST PUSH2 0x20D PUSH2 0xA47 JUMP JUMPDEST PUSH1 0x40 MLOAD PUSH2 0x21C SWAP4 SWAP3 SWAP2 SWAP1 PUSH2 0xFB9 JUMP JUMPDEST PUSH1 0x40 MLOAD DUP1 SWAP2 SUB SWAP1 RETURN JUMPDEST PUSH2 0x22D PUSH2 0xB7D JUMP JUMPDEST PUSH1 0x40 MLOAD PUSH2 0x23A SWAP2 SWAP1 PUSH2 0xFFE JUMP JUMPDEST PUSH1 0x40 MLOAD DUP1 SWAP2 SUB SWAP1 RETURN JUMPDEST PUSH2 0x24B PUSH2 0xBA3 JUMP JUMPDEST PUSH1 0x40 MLOAD PUSH2 0x258 SWAP2 SWAP1 PUSH2 0xF8F JUMP JUMPDEST PUSH1 0x40 MLOAD DUP1 SWAP2 SUB SWAP1 RETURN JUMPDEST PUSH1 0xA DUP2 DUP2 SLOAD DUP2 LT PUSH2 0x271 JUMPI PUSH1 0x0 DUP1 REVERT JUMPDEST SWAP1 PUSH1 0x0 MSTORE PUSH1 0x20 PUSH1 0x0 KECCAK256 SWAP1 PUSH1 0x2 MUL ADD PUSH1 0x0 SWAP2 POP SWAP1 POP DUP1 PUSH1 0x0 ADD PUSH1 0x0 SWAP1 SLOAD SWAP1 PUSH2 0x100 EXP SWAP1 DIV PUSH20 0xFFFFFFFFFFFFFFFFFFFFFFFFFFFFFFFFFFFFFFFF AND SWAP1 DUP1 PUSH1 0x1 ADD SLOAD SWAP1 POP DUP3 JUMP JUMPDEST PUSH1 0x0 DUP1 SLOAD SWAP1 PUSH2 0x100 EXP SWAP1 DIV PUSH1 0xFF AND DUP2 JUMP JUMPDEST TIMESTAMP PUSH1 0x3 SLOAD GT DUP1 ISZERO PUSH2 0x2D8 JUMPI POP TIMESTAMP PUSH1 0x2 SLOAD LT JUMPDEST DUP1 ISZERO PUSH2 0x2EF JUMPI POP PUSH1 0x0 DUP1 SLOAD SWAP1 PUSH2 0x100 EXP SWAP1 DIV PUSH1 0xFF AND ISZERO JUMPDEST DUP1 ISZERO PUSH2 0x2FE JUMPI POP PUSH1 0x0 PUSH1 0x1 SLOAD EQ ISZERO JUMPDEST PUSH2 0x33D JUMPI PUSH1 0x40 MLOAD PUSH32 0x8C379A000000000000000000000000000000000000000000000000000000000 DUP2 MSTORE PUSH1 0x4 ADD PUSH2 0x334 SWAP1 PUSH2 0x108B JUMP JUMPDEST PUSH1 0x40 MLOAD DUP1 SWAP2 SUB SWAP1 REVERT JUMPDEST PUSH1 0x0 PUSH1 0xA PUSH1 0x1 DUP2 PUSH1 0x1 DUP2 SLOAD ADD DUP1 DUP3 SSTORE DUP1 SWAP2 POP POP SUB SWAP1 PUSH1 0x0 MSTORE PUSH1 0x20 PUSH1 0x0 KECCAK256 SWAP1 PUSH1 0x2 MUL ADD SWAP1 POP CALLER DUP2 PUSH1 0x0 ADD PUSH1 0x0 PUSH2 0x100 EXP DUP2 SLOAD DUP2 PUSH20 0xFFFFFFFFFFFFFFFFFFFFFFFFFFFFFFFFFFFFFFFF MUL NOT AND SWAP1 DUP4 PUSH20 0xFFFFFFFFFFFFFFFFFFFFFFFFFFFFFFFFFFFFFFFF AND MUL OR SWAP1 SSTORE POP DUP2 DUP2 PUSH1 0x1 ADD DUP2 SWAP1 SSTORE POP PUSH1 0xA PUSH1 0xB SLOAD DUP2 SLOAD DUP2 LT PUSH2 0x3C3 JUMPI PUSH2 0x3C2 PUSH2 0x10AB JUMP JUMPDEST JUMPDEST SWAP1 PUSH1 0x0 MSTORE PUSH1 0x20 PUSH1 0x0 KECCAK256 SWAP1 PUSH1 0x2 MUL ADD PUSH1 0x1 ADD SLOAD DUP3 LT ISZERO PUSH2 0x3F5 JUMPI PUSH1 0x1 PUSH1 0xA DUP1 SLOAD SWAP1 POP PUSH2 0x3EE SWAP2 SWAP1 PUSH2 0x1109 JUMP JUMPDEST PUSH1 0xB DUP2 SWAP1 SSTORE POP JUMPDEST POP POP JUMP JUMPDEST PUSH1 0x0 DUP1 PUSH1 0x0 DUP1 PUSH1 0x60 DUP1 PUSH2 0x40A PUSH2 0xBA9 JUMP JUMPDEST PUSH1 0x0 DUP1 PUSH1 0x1 SLOAD PUSH1 0x2 SLOAD PUSH1 0x3 SLOAD PUSH1 0x4 PUSH1 0x0 SWAP1 SLOAD SWAP1 PUSH2 0x100 EXP SWAP1 DIV PUSH20 0xFFFFFFFFFFFFFFFFFFFFFFFFFFFFFFFFFFFFFFFF AND PUSH1 0x5 PUSH1 0x6 PUSH1 0x7 PUSH1 0xA DUP1 SLOAD SWAP1 POP PUSH1 0x0 DUP1 SLOAD SWAP1 PUSH2 0x100 EXP SWAP1 DIV PUSH1 0xFF AND PUSH2 0x45E JUMPI PUSH1 0x0 PUSH2 0x46B JUMP JUMPDEST PUSH2 0x466 PUSH2 0x870 JUMP JUMPDEST PUSH1 0x0 ADD MLOAD JUMPDEST DUP5 DUP1 SLOAD PUSH2 0x477 SWAP1 PUSH2 0x116C JUMP JUMPDEST DUP1 PUSH1 0x1F ADD PUSH1 0x20 DUP1 SWAP2 DIV MUL PUSH1 0x20 ADD PUSH1 0x40 MLOAD SWAP1 DUP2 ADD PUSH1 0x40 MSTORE DUP1 SWAP3 SWAP2 SWAP1 DUP2 DUP2 MSTORE PUSH1 0x20 ADD DUP3 DUP1 SLOAD PUSH2 0x4A3 SWAP1 PUSH2 0x116C JUMP JUMPDEST DUP1 ISZERO PUSH2 0x4F0 JUMPI DUP1 PUSH1 0x1F LT PUSH2 0x4C5 JUMPI PUSH2 0x100 DUP1 DUP4 SLOAD DIV MUL DUP4 MSTORE SWAP2 PUSH1 0x20 ADD SWAP2 PUSH2 0x4F0 JUMP JUMPDEST DUP3 ADD SWAP2 SWAP1 PUSH1 0x0 MSTORE PUSH1 0x20 PUSH1 0x0 KECCAK256 SWAP1 JUMPDEST DUP2 SLOAD DUP2 MSTORE SWAP1 PUSH1 0x1 ADD SWAP1 PUSH1 0x20 ADD DUP1 DUP4 GT PUSH2 0x4D3 JUMPI DUP3 SWAP1 SUB PUSH1 0x1F AND DUP3 ADD SWAP2 JUMPDEST POP POP POP POP POP SWAP5 POP DUP4 DUP1 SLOAD PUSH2 0x503 SWAP1 PUSH2 0x116C JUMP JUMPDEST DUP1 PUSH1 0x1F ADD PUSH1 0x20 DUP1 SWAP2 DIV MUL PUSH1 0x20 ADD PUSH1 0x40 MLOAD SWAP1 DUP2 ADD PUSH1 0x40 MSTORE DUP1 SWAP3 SWAP2 SWAP1 DUP2 DUP2 MSTORE PUSH1 0x20 ADD DUP3 DUP1 SLOAD PUSH2 0x52F SWAP1 PUSH2 0x116C JUMP JUMPDEST DUP1 ISZERO PUSH2 0x57C JUMPI DUP1 PUSH1 0x1F LT PUSH2 0x551 JUMPI PUSH2 0x100 DUP1 DUP4 SLOAD DIV MUL DUP4 MSTORE SWAP2 PUSH1 0x20 ADD SWAP2 PUSH2 0x57C JUMP JUMPDEST DUP3 ADD SWAP2 SWAP1 PUSH1 0x0 MSTORE PUSH1 0x20 PUSH1 0x0 KECCAK256 SWAP1 JUMPDEST DUP2 SLOAD DUP2 MSTORE SWAP1 PUSH1 0x1 ADD SWAP1 PUSH1 0x20 ADD DUP1 DUP4 GT PUSH2 0x55F JUMPI DUP3 SWAP1 SUB PUSH1 0x1F AND DUP3 ADD SWAP2 JUMPDEST POP POP POP POP POP SWAP4 POP DUP3 PUSH1 0x40 MLOAD DUP1 PUSH1 0x60 ADD PUSH1 0x40 MSTORE SWAP1 DUP2 PUSH1 0x0 DUP3 ADD DUP1 SLOAD PUSH2 0x59F SWAP1 PUSH2 0x116C JUMP JUMPDEST DUP1 PUSH1 0x1F ADD PUSH1 0x20 DUP1 SWAP2 DIV MUL PUSH1 0x20 ADD PUSH1 0x40 MLOAD SWAP1 DUP2 ADD PUSH1 0x40 MSTORE DUP1 SWAP3 SWAP2 SWAP1 DUP2 DUP2 MSTORE PUSH1 0x20 ADD DUP3 DUP1 SLOAD PUSH2 0x5CB SWAP1 PUSH2 0x116C JUMP JUMPDEST DUP1 ISZERO PUSH2 0x618 JUMPI DUP1 PUSH1 0x1F LT PUSH2 0x5ED JUMPI PUSH2 0x100 DUP1 DUP4 SLOAD DIV MUL DUP4 MSTORE SWAP2 PUSH1 0x20 ADD SWAP2 PUSH2 0x618 JUMP JUMPDEST DUP3 ADD SWAP2 SWAP1 PUSH1 0x0 MSTORE PUSH1 0x20 PUSH1 0x0 KECCAK256 SWAP1 JUMPDEST DUP2 SLOAD DUP2 MSTORE SWAP1 PUSH1 0x1 ADD SWAP1 PUSH1 0x20 ADD DUP1 DUP4 GT PUSH2 0x5FB JUMPI DUP3 SWAP1 SUB PUSH1 0x1F AND DUP3 ADD SWAP2 JUMPDEST POP POP POP POP POP DUP2 MSTORE PUSH1 0x20 ADD PUSH1 0x1 DUP3 ADD DUP1 SLOAD PUSH2 0x631 SWAP1 PUSH2 0x116C JUMP JUMPDEST DUP1 PUSH1 0x1F ADD PUSH1 0x20 DUP1 SWAP2 DIV MUL PUSH1 0x20 ADD PUSH1 0x40 MLOAD SWAP1 DUP2 ADD PUSH1 0x40 MSTORE DUP1 SWAP3 SWAP2 SWAP1 DUP2 DUP2 MSTORE PUSH1 0x20 ADD DUP3 DUP1 SLOAD PUSH2 0x65D SWAP1 PUSH2 0x116C JUMP JUMPDEST DUP1 ISZERO PUSH2 0x6AA JUMPI DUP1 PUSH1 0x1F LT PUSH2 0x67F JUMPI PUSH2 0x100 DUP1 DUP4 SLOAD DIV MUL DUP4 MSTORE SWAP2 PUSH1 0x20 ADD SWAP2 PUSH2 0x6AA JUMP JUMPDEST DUP3 ADD SWAP2 SWAP1 PUSH1 0x0 MSTORE PUSH1 0x20 PUSH1 0x0 KECCAK256 SWAP1 JUMPDEST DUP2 SLOAD DUP2 MSTORE SWAP1 PUSH1 0x1 ADD SWAP1 PUSH1 0x20 ADD DUP1 DUP4 GT PUSH2 0x68D JUMPI DUP3 SWAP1 SUB PUSH1 0x1F AND DUP3 ADD SWAP2 JUMPDEST POP POP POP POP POP DUP2 MSTORE PUSH1 0x20 ADD PUSH1 0x2 DUP3 ADD PUSH1 0x0 SWAP1 SLOAD SWAP1 PUSH2 0x100 EXP SWAP1 DIV PUSH2 0xFFFF AND PUSH2 0xFFFF AND PUSH2 0xFFFF AND DUP2 MSTORE POP POP SWAP3 POP SWAP9 POP SWAP9 POP SWAP9 POP SWAP9 POP SWAP9 POP SWAP9 POP SWAP9 POP SWAP9 POP SWAP9 POP SWAP1 SWAP2 SWAP3 SWAP4 SWAP5 SWAP6 SWAP7 SWAP8 SWAP9 JUMP JUMPDEST PUSH1 0x5 DUP1 SLOAD PUSH2 0x6FF SWAP1 PUSH2 0x116C JUMP JUMPDEST DUP1 PUSH1 0x1F ADD PUSH1 0x20 DUP1 SWAP2 DIV MUL PUSH1 0x20 ADD PUSH1 0x40 MLOAD SWAP1 DUP2 ADD PUSH1 0x40 MSTORE DUP1 SWAP3 SWAP2 SWAP1 DUP2 DUP2 MSTORE PUSH1 0x20 ADD DUP3 DUP1 SLOAD PUSH2 0x72B SWAP1 PUSH2 0x116C JUMP JUMPDEST DUP1 ISZERO PUSH2 0x778 JUMPI DUP1 PUSH1 0x1F LT PUSH2 0x74D JUMPI PUSH2 0x100 DUP1 DUP4 SLOAD DIV MUL DUP4 MSTORE SWAP2 PUSH1 0x20 ADD SWAP2 PUSH2 0x778 JUMP JUMPDEST DUP3 ADD SWAP2 SWAP1 PUSH1 0x0 MSTORE PUSH1 0x20 PUSH1 0x0 KECCAK256 SWAP1 JUMPDEST DUP2 SLOAD DUP2 MSTORE SWAP1 PUSH1 0x1 ADD SWAP1 PUSH1 0x20 ADD DUP1 DUP4 GT PUSH2 0x75B JUMPI DUP3 SWAP1 SUB PUSH1 0x1F AND DUP3 ADD SWAP2 JUMPDEST POP POP POP POP POP DUP2 JUMP JUMPDEST PUSH1 0x4 PUSH1 0x0 SWAP1 SLOAD SWAP1 PUSH2 0x100 EXP SWAP1 DIV PUSH20 0xFFFFFFFFFFFFFFFFFFFFFFFFFFFFFFFFFFFFFFFF AND PUSH20 0xFFFFFFFFFFFFFFFFFFFFFFFFFFFFFFFFFFFFFFFF AND CALLER PUSH20 0xFFFFFFFFFFFFFFFFFFFFFFFFFFFFFFFFFFFFFFFF AND EQ PUSH2 0x810 JUMPI PUSH1 0x40 MLOAD PUSH32 0x8C379A000000000000000000000000000000000000000000000000000000000 DUP2 MSTORE PUSH1 0x4 ADD PUSH2 0x807 SWAP1 PUSH2 0x120F JUMP JUMPDEST PUSH1 0x40 MLOAD DUP1 SWAP2 SUB SWAP1 REVERT JUMPDEST TIMESTAMP PUSH1 0x3 SLOAD LT PUSH2 0x854 JUMPI PUSH1 0x40 MLOAD PUSH32 0x8C379A000000000000000000000000000000000000000000000000000000000 DUP2 MSTORE PUSH1 0x4 ADD PUSH2 0x84B SWAP1 PUSH2 0x12A1 JUMP JUMPDEST PUSH1 0x40 MLOAD DUP1 SWAP2 SUB SWAP1 REVERT JUMPDEST PUSH1 0x1 PUSH1 0x0 DUP1 PUSH2 0x100 EXP DUP2 SLOAD DUP2 PUSH1 0xFF MUL NOT AND SWAP1 DUP4 ISZERO ISZERO MUL OR SWAP1 SSTORE POP JUMP JUMPDEST PUSH2 0x878 PUSH2 0xBCE JUMP JUMPDEST TIMESTAMP PUSH1 0x3 SLOAD LT DUP1 PUSH2 0x892 JUMPI POP PUSH1 0x0 DUP1 SLOAD SWAP1 PUSH2 0x100 EXP SWAP1 DIV PUSH1 0xFF AND JUMPDEST PUSH2 0x8D1 JUMPI PUSH1 0x40 MLOAD PUSH32 0x8C379A000000000000000000000000000000000000000000000000000000000 DUP2 MSTORE PUSH1 0x4 ADD PUSH2 0x8C8 SWAP1 PUSH2 0x1333 JUMP JUMPDEST PUSH1 0x40 MLOAD DUP1 SWAP2 SUB SWAP1 REVERT JUMPDEST PUSH1 0x0 PUSH1 0xA DUP1 SLOAD SWAP1 POP SUB PUSH2 0x919 JUMPI PUSH1 0x40 MLOAD PUSH32 0x8C379A000000000000000000000000000000000000000000000000000000000 DUP2 MSTORE PUSH1 0x4 ADD PUSH2 0x910 SWAP1 PUSH2 0x13C5 JUMP JUMPDEST PUSH1 0x40 MLOAD DUP1 SWAP2 SUB SWAP1 REVERT JUMPDEST PUSH1 0xA PUSH1 0xB SLOAD DUP2 SLOAD DUP2 LT PUSH2 0x92F JUMPI PUSH2 0x92E PUSH2 0x10AB JUMP JUMPDEST JUMPDEST SWAP1 PUSH1 0x0 MSTORE PUSH1 0x20 PUSH1 0x0 KECCAK256 SWAP1 PUSH1 0x2 MUL ADD PUSH1 0x40 MLOAD DUP1 PUSH1 0x40 ADD PUSH1 0x40 MSTORE SWAP1 DUP2 PUSH1 0x0 DUP3 ADD PUSH1 0x0 SWAP1 SLOAD SWAP1 PUSH2 0x100 EXP SWAP1 DIV PUSH20 0xFFFFFFFFFFFFFFFFFFFFFFFFFFFFFFFFFFFFFFFF AND PUSH20 0xFFFFFFFFFFFFFFFFFFFFFFFFFFFFFFFFFFFFFFFF AND PUSH20 0xFFFFFFFFFFFFFFFFFFFFFFFFFFFFFFFFFFFFFFFF AND DUP2 MSTORE PUSH1 0x20 ADD PUSH1 0x1 DUP3 ADD SLOAD DUP2 MSTORE POP POP SWAP1 POP SWAP1 JUMP JUMPDEST PUSH1 0x1 SLOAD DUP2 JUMP JUMPDEST PUSH1 0x6 DUP1 SLOAD PUSH2 0x9C0 SWAP1 PUSH2 0x116C JUMP JUMPDEST DUP1 PUSH1 0x1F ADD PUSH1 0x20 DUP1 SWAP2 DIV MUL PUSH1 0x20 ADD PUSH1 0x40 MLOAD SWAP1 DUP2 ADD PUSH1 0x40 MSTORE DUP1 SWAP3 SWAP2 SWAP1 DUP2 DUP2 MSTORE PUSH1 0x20 ADD DUP3 DUP1 SLOAD PUSH2 0x9EC SWAP1 PUSH2 0x116C JUMP JUMPDEST DUP1 ISZERO PUSH2 0xA39 JUMPI DUP1 PUSH1 0x1F LT PUSH2 0xA0E JUMPI PUSH2 0x100 DUP1 DUP4 SLOAD DIV MUL DUP4 MSTORE SWAP2 PUSH1 0x20 ADD SWAP2 PUSH2 0xA39 JUMP JUMPDEST DUP3 ADD SWAP2 SWAP1 PUSH1 0x0 MSTORE PUSH1 0x20 PUSH1 0x0 KECCAK256 SWAP1 JUMPDEST DUP2 SLOAD DUP2 MSTORE SWAP1 PUSH1 0x1 ADD SWAP1 PUSH1 0x20 ADD DUP1 DUP4 GT PUSH2 0xA1C JUMPI DUP3 SWAP1 SUB PUSH1 0x1F AND DUP3 ADD SWAP2 JUMPDEST POP POP POP POP POP DUP2 JUMP JUMPDEST PUSH1 0x2 SLOAD DUP2 JUMP JUMPDEST PUSH1 0x7 DUP1 PUSH1 0x0 ADD DUP1 SLOAD PUSH2 0xA58 SWAP1 PUSH2 0x116C JUMP JUMPDEST DUP1 PUSH1 0x1F ADD PUSH1 0x20 DUP1 SWAP2 DIV MUL PUSH1 0x20 ADD PUSH1 0x40 MLOAD SWAP1 DUP2 ADD PUSH1 0x40 MSTORE DUP1 SWAP3 SWAP2 SWAP1 DUP2 DUP2 MSTORE PUSH1 0x20 ADD DUP3 DUP1 SLOAD PUSH2 0xA84 SWAP1 PUSH2 0x116C JUMP JUMPDEST DUP1 ISZERO PUSH2 0xAD1 JUMPI DUP1 PUSH1 0x1F LT PUSH2 0xAA6 JUMPI PUSH2 0x100 DUP1 DUP4 SLOAD DIV MUL DUP4 MSTORE SWAP2 PUSH1 0x20 ADD SWAP2 PUSH2 0xAD1 JUMP JUMPDEST DUP3 ADD SWAP2 SWAP1 PUSH1 0x0 MSTORE PUSH1 0x20 PUSH1 0x0 KECCAK256 SWAP1 JUMPDEST DUP2 SLOAD DUP2 MSTORE SWAP1 PUSH1 0x1 ADD SWAP1 PUSH1 0x20 ADD DUP1 DUP4 GT PUSH2 0xAB4 JUMPI DUP3 SWAP1 SUB PUSH1 0x1F AND DUP3 ADD SWAP2 JUMPDEST POP POP POP POP POP SWAP1 DUP1 PUSH1 0x1 ADD DUP1 SLOAD PUSH2 0xAE6 SWAP1 PUSH2 0x116C JUMP JUMPDEST DUP1 PUSH1 0x1F ADD PUSH1 0x20 DUP1 SWAP2 DIV MUL PUSH1 0x20 ADD PUSH1 0x40 MLOAD SWAP1 DUP2 ADD PUSH1 0x40 MSTORE DUP1 SWAP3 SWAP2 SWAP1 DUP2 DUP2 MSTORE PUSH1 0x20 ADD DUP3 DUP1 SLOAD PUSH2 0xB12 SWAP1 PUSH2 0x116C JUMP JUMPDEST DUP1 ISZERO PUSH2 0xB5F JUMPI DUP1 PUSH1 0x1F LT PUSH2 0xB34 JUMPI PUSH2 0x100 DUP1 DUP4 SLOAD DIV MUL DUP4 MSTORE SWAP2 PUSH1 0x20 ADD SWAP2 PUSH2 0xB5F JUMP JUMPDEST DUP3 ADD SWAP2 SWAP1 PUSH1 0x0 MSTORE PUSH1 0x20 PUSH1 0x0 KECCAK256 SWAP1 JUMPDEST DUP2 SLOAD DUP2 MSTORE SWAP1 PUSH1 0x1 ADD SWAP1 PUSH1 0x20 ADD DUP1 DUP4 GT PUSH2 0xB42 JUMPI DUP3 SWAP1 SUB PUSH1 0x1F AND DUP3 ADD SWAP2 JUMPDEST POP POP POP POP POP SWAP1 DUP1 PUSH1 0x2 ADD PUSH1 0x0 SWAP1 SLOAD SWAP1 PUSH2 0x100 EXP SWAP1 DIV PUSH2 0xFFFF AND SWAP1 POP DUP4 JUMP JUMPDEST PUSH1 0x4 PUSH1 0x0 SWAP1 SLOAD SWAP1 PUSH2 0x100 EXP SWAP1 DIV PUSH20 0xFFFFFFFFFFFFFFFFFFFFFFFFFFFFFFFFFFFFFFFF AND DUP2 JUMP JUMPDEST PUSH1 0x3 SLOAD DUP2 JUMP JUMPDEST PUSH1 0x40 MLOAD DUP1 PUSH1 0x60 ADD PUSH1 0x40 MSTORE DUP1 PUSH1 0x60 DUP2 MSTORE PUSH1 0x20 ADD PUSH1 0x60 DUP2 MSTORE PUSH1 0x20 ADD PUSH1 0x0 PUSH2 0xFFFF AND DUP2 MSTORE POP SWAP1 JUMP JUMPDEST PUSH1 0x40 MLOAD DUP1 PUSH1 0x40 ADD PUSH1 0x40 MSTORE DUP1 PUSH1 0x0 PUSH20 0xFFFFFFFFFFFFFFFFFFFFFFFFFFFFFFFFFFFFFFFF AND DUP2 MSTORE PUSH1 0x20 ADD PUSH1 0x0 DUP2 MSTORE POP SWAP1 JUMP JUMPDEST PUSH1 0x0 DUP1 REVERT JUMPDEST PUSH1 0x0 DUP2 SWAP1 POP SWAP2 SWAP1 POP JUMP JUMPDEST PUSH2 0xC16 DUP2 PUSH2 0xC03 JUMP JUMPDEST DUP2 EQ PUSH2 0xC21 JUMPI PUSH1 0x0 DUP1 REVERT JUMPDEST POP JUMP JUMPDEST PUSH1 0x0 DUP2 CALLDATALOAD SWAP1 POP PUSH2 0xC33 DUP2 PUSH2 0xC0D JUMP JUMPDEST SWAP3 SWAP2 POP POP JUMP JUMPDEST PUSH1 0x0 PUSH1 0x20 DUP3 DUP5 SUB SLT ISZERO PUSH2 0xC4F JUMPI PUSH2 0xC4E PUSH2 0xBFE JUMP JUMPDEST JUMPDEST PUSH1 0x0 PUSH2 0xC5D DUP5 DUP3 DUP6 ADD PUSH2 0xC24 JUMP JUMPDEST SWAP2 POP POP SWAP3 SWAP2 POP POP JUMP JUMPDEST PUSH1 0x0 PUSH20 0xFFFFFFFFFFFFFFFFFFFFFFFFFFFFFFFFFFFFFFFF DUP3 AND SWAP1 POP SWAP2 SWAP1 POP JUMP JUMPDEST PUSH1 0x0 PUSH2 0xC91 DUP3 PUSH2 0xC66 JUMP JUMPDEST SWAP1 POP SWAP2 SWAP1 POP JUMP JUMPDEST PUSH2 0xCA1 DUP2 PUSH2 0xC86 JUMP JUMPDEST DUP3 MSTORE POP POP JUMP JUMPDEST PUSH2 0xCB0 DUP2 PUSH2 0xC03 JUMP JUMPDEST DUP3 MSTORE POP POP JUMP JUMPDEST PUSH1 0x0 PUSH1 0x40 DUP3 ADD SWAP1 POP PUSH2 0xCCB PUSH1 0x0 DUP4 ADD DUP6 PUSH2 0xC98 JUMP JUMPDEST PUSH2 0xCD8 PUSH1 0x20 DUP4 ADD DUP5 PUSH2 0xCA7 JUMP JUMPDEST SWAP4 SWAP3 POP POP POP JUMP JUMPDEST PUSH1 0x0 DUP2 ISZERO ISZERO SWAP1 POP SWAP2 SWAP1 POP JUMP JUMPDEST PUSH2 0xCF4 DUP2 PUSH2 0xCDF JUMP JUMPDEST DUP3 MSTORE POP POP JUMP JUMPDEST PUSH1 0x0 PUSH1 0x20 DUP3 ADD SWAP1 POP PUSH2 0xD0F PUSH1 0x0 DUP4 ADD DUP5 PUSH2 0xCEB JUMP JUMPDEST SWAP3 SWAP2 POP POP JUMP JUMPDEST PUSH1 0x0 DUP2 MLOAD SWAP1 POP SWAP2 SWAP1 POP JUMP JUMPDEST PUSH1 0x0 DUP3 DUP3 MSTORE PUSH1 0x20 DUP3 ADD SWAP1 POP SWAP3 SWAP2 POP POP JUMP JUMPDEST PUSH1 0x0 JUMPDEST DUP4 DUP2 LT ISZERO PUSH2 0xD4F JUMPI DUP1 DUP3 ADD MLOAD DUP2 DUP5 ADD MSTORE PUSH1 0x20 DUP2 ADD SWAP1 POP PUSH2 0xD34 JUMP JUMPDEST PUSH1 0x0 DUP5 DUP5 ADD MSTORE POP POP POP POP JUMP JUMPDEST PUSH1 0x0 PUSH1 0x1F NOT PUSH1 0x1F DUP4 ADD AND SWAP1 POP SWAP2 SWAP1 POP JUMP JUMPDEST PUSH1 0x0 PUSH2 0xD77 DUP3 PUSH2 0xD15 JUMP JUMPDEST PUSH2 0xD81 DUP2 DUP6 PUSH2 0xD20 JUMP JUMPDEST SWAP4 POP PUSH2 0xD91 DUP2 DUP6 PUSH1 0x20 DUP7 ADD PUSH2 0xD31 JUMP JUMPDEST PUSH2 0xD9A DUP2 PUSH2 0xD5B JUMP JUMPDEST DUP5 ADD SWAP2 POP POP SWAP3 SWAP2 POP POP JUMP JUMPDEST PUSH1 0x0 DUP3 DUP3 MSTORE PUSH1 0x20 DUP3 ADD SWAP1 POP SWAP3 SWAP2 POP POP JUMP JUMPDEST PUSH1 0x0 PUSH2 0xDC1 DUP3 PUSH2 0xD15 JUMP JUMPDEST PUSH2 0xDCB DUP2 DUP6 PUSH2 0xDA5 JUMP JUMPDEST SWAP4 POP PUSH2 0xDDB DUP2 DUP6 PUSH1 0x20 DUP7 ADD PUSH2 0xD31 JUMP JUMPDEST PUSH2 0xDE4 DUP2 PUSH2 0xD5B JUMP JUMPDEST DUP5 ADD SWAP2 POP POP SWAP3 SWAP2 POP POP JUMP JUMPDEST PUSH1 0x0 PUSH2 0xFFFF DUP3 AND SWAP1 POP SWAP2 SWAP1 POP JUMP JUMPDEST PUSH2 0xE06 DUP2 PUSH2 0xDEF JUMP JUMPDEST DUP3 MSTORE POP POP JUMP JUMPDEST PUSH1 0x0 PUSH1 0x60 DUP4 ADD PUSH1 0x0 DUP4 ADD MLOAD DUP5 DUP3 SUB PUSH1 0x0 DUP7 ADD MSTORE PUSH2 0xE29 DUP3 DUP3 PUSH2 0xDB6 JUMP JUMPDEST SWAP2 POP POP PUSH1 0x20 DUP4 ADD MLOAD DUP5 DUP3 SUB PUSH1 0x20 DUP7 ADD MSTORE PUSH2 0xE43 DUP3 DUP3 PUSH2 0xDB6 JUMP JUMPDEST SWAP2 POP POP PUSH1 0x40 DUP4 ADD MLOAD PUSH2 0xE58 PUSH1 0x40 DUP7 ADD DUP3 PUSH2 0xDFD JUMP JUMPDEST POP DUP1 SWAP2 POP POP SWAP3 SWAP2 POP POP JUMP JUMPDEST PUSH1 0x0 PUSH2 0x120 DUP3 ADD SWAP1 POP PUSH2 0xE79 PUSH1 0x0 DUP4 ADD DUP13 PUSH2 0xCA7 JUMP JUMPDEST PUSH2 0xE86 PUSH1 0x20 DUP4 ADD DUP12 PUSH2 0xCA7 JUMP JUMPDEST PUSH2 0xE93 PUSH1 0x40 DUP4 ADD DUP11 PUSH2 0xCA7 JUMP JUMPDEST PUSH2 0xEA0 PUSH1 0x60 DUP4 ADD DUP10 PUSH2 0xC98 JUMP JUMPDEST DUP2 DUP2 SUB PUSH1 0x80 DUP4 ADD MSTORE PUSH2 0xEB2 DUP2 DUP9 PUSH2 0xD6C JUMP JUMPDEST SWAP1 POP DUP2 DUP2 SUB PUSH1 0xA0 DUP4 ADD MSTORE PUSH2 0xEC6 DUP2 DUP8 PUSH2 0xD6C JUMP JUMPDEST SWAP1 POP DUP2 DUP2 SUB PUSH1 0xC0 DUP4 ADD MSTORE PUSH2 0xEDA DUP2 DUP7 PUSH2 0xE0C JUMP JUMPDEST SWAP1 POP PUSH2 0xEE9 PUSH1 0xE0 DUP4 ADD DUP6 PUSH2 0xCA7 JUMP JUMPDEST PUSH2 0xEF7 PUSH2 0x100 DUP4 ADD DUP5 PUSH2 0xC98 JUMP JUMPDEST SWAP11 SWAP10 POP POP POP POP POP POP POP POP POP POP JUMP JUMPDEST PUSH1 0x0 PUSH1 0x20 DUP3 ADD SWAP1 POP DUP2 DUP2 SUB PUSH1 0x0 DUP4 ADD MSTORE PUSH2 0xF1F DUP2 DUP5 PUSH2 0xD6C JUMP JUMPDEST SWAP1 POP SWAP3 SWAP2 POP POP JUMP JUMPDEST PUSH2 0xF30 DUP2 PUSH2 0xC86 JUMP JUMPDEST DUP3 MSTORE POP POP JUMP JUMPDEST PUSH2 0xF3F DUP2 PUSH2 0xC03 JUMP JUMPDEST DUP3 MSTORE POP POP JUMP JUMPDEST PUSH1 0x40 DUP3 ADD PUSH1 0x0 DUP3 ADD MLOAD PUSH2 0xF5B PUSH1 0x0 DUP6 ADD DUP3 PUSH2 0xF27 JUMP JUMPDEST POP PUSH1 0x20 DUP3 ADD MLOAD PUSH2 0xF6E PUSH1 0x20 DUP6 ADD DUP3 PUSH2 0xF36 JUMP JUMPDEST POP POP POP POP JUMP JUMPDEST PUSH1 0x0 PUSH1 0x40 DUP3 ADD SWAP1 POP PUSH2 0xF89 PUSH1 0x0 DUP4 ADD DUP5 PUSH2 0xF45 JUMP JUMPDEST SWAP3 SWAP2 POP POP JUMP JUMPDEST PUSH1 0x0 PUSH1 0x20 DUP3 ADD SWAP1 POP PUSH2 0xFA4 PUSH1 0x0 DUP4 ADD DUP5 PUSH2 0xCA7 JUMP JUMPDEST SWAP3 SWAP2 POP POP JUMP JUMPDEST PUSH2 0xFB3 DUP2 PUSH2 0xDEF JUMP JUMPDEST DUP3 MSTORE POP POP JUMP JUMPDEST PUSH1 0x0 PUSH1 0x60 DUP3 ADD SWAP1 POP DUP2 DUP2 SUB PUSH1 0x0 DUP4 ADD MSTORE PUSH2 0xFD3 DUP2 DUP7 PUSH2 0xD6C JUMP JUMPDEST SWAP1 POP DUP2 DUP2 SUB PUSH1 0x20 DUP4 ADD MSTORE PUSH2 0xFE7 DUP2 DUP6 PUSH2 0xD6C JUMP JUMPDEST SWAP1 POP PUSH2 0xFF6 PUSH1 0x40 DUP4 ADD DUP5 PUSH2 0xFAA JUMP JUMPDEST SWAP5 SWAP4 POP POP POP POP JUMP JUMPDEST PUSH1 0x0 PUSH1 0x20 DUP3 ADD SWAP1 POP PUSH2 0x1013 PUSH1 0x0 DUP4 ADD DUP5 PUSH2 0xC98 JUMP JUMPDEST SWAP3 SWAP2 POP POP JUMP JUMPDEST PUSH32 0x4C696369746163616F206E616F2065737461206163656974616E646F2070726F PUSH1 0x0 DUP3 ADD MSTORE PUSH32 0x706F737461730000000000000000000000000000000000000000000000000000 PUSH1 0x20 DUP3 ADD MSTORE POP JUMP JUMPDEST PUSH1 0x0 PUSH2 0x1075 PUSH1 0x26 DUP4 PUSH2 0xD20 JUMP JUMPDEST SWAP2 POP PUSH2 0x1080 DUP3 PUSH2 0x1019 JUMP JUMPDEST PUSH1 0x40 DUP3 ADD SWAP1 POP SWAP2 SWAP1 POP JUMP JUMPDEST PUSH1 0x0 PUSH1 0x20 DUP3 ADD SWAP1 POP DUP2 DUP2 SUB PUSH1 0x0 DUP4 ADD MSTORE PUSH2 0x10A4 DUP2 PUSH2 0x1068 JUMP JUMPDEST SWAP1 POP SWAP2 SWAP1 POP JUMP JUMPDEST PUSH32 0x4E487B7100000000000000000000000000000000000000000000000000000000 PUSH1 0x0 MSTORE PUSH1 0x32 PUSH1 0x4 MSTORE PUSH1 0x24 PUSH1 0x0 REVERT JUMPDEST PUSH32 0x4E487B7100000000000000000000000000000000000000000000000000000000 PUSH1 0x0 MSTORE PUSH1 0x11 PUSH1 0x4 MSTORE PUSH1 0x24 PUSH1 0x0 REVERT JUMPDEST PUSH1 0x0 PUSH2 0x1114 DUP3 PUSH2 0xC03 JUMP JUMPDEST SWAP2 POP PUSH2 0x111F DUP4 PUSH2 0xC03 JUMP JUMPDEST SWAP3 POP DUP3 DUP3 SUB SWAP1 POP DUP2 DUP2 GT ISZERO PUSH2 0x1137 JUMPI PUSH2 0x1136 PUSH2 0x10DA JUMP JUMPDEST JUMPDEST SWAP3 SWAP2 POP POP JUMP JUMPDEST PUSH32 0x4E487B7100000000000000000000000000000000000000000000000000000000 PUSH1 0x0 MSTORE PUSH1 0x22 PUSH1 0x4 MSTORE PUSH1 0x24 PUSH1 0x0 REVERT JUMPDEST PUSH1 0x0 PUSH1 0x2 DUP3 DIV SWAP1 POP PUSH1 0x1 DUP3 AND DUP1 PUSH2 0x1184 JUMPI PUSH1 0x7F DUP3 AND SWAP2 POP JUMPDEST PUSH1 0x20 DUP3 LT DUP2 SUB PUSH2 0x1197 JUMPI PUSH2 0x1196 PUSH2 0x113D JUMP JUMPDEST JUMPDEST POP SWAP2 SWAP1 POP JUMP JUMPDEST PUSH32 0x4170656E6173206F206F7267616F20726571756572656E746520706F64652063 PUSH1 0x0 DUP3 ADD MSTORE PUSH32 0x68616D617220657373612066756E63616F000000000000000000000000000000 PUSH1 0x20 DUP3 ADD MSTORE POP JUMP JUMPDEST PUSH1 0x0 PUSH2 0x11F9 PUSH1 0x31 DUP4 PUSH2 0xD20 JUMP JUMPDEST SWAP2 POP PUSH2 0x1204 DUP3 PUSH2 0x119D JUMP JUMPDEST PUSH1 0x40 DUP3 ADD SWAP1 POP SWAP2 SWAP1 POP JUMP JUMPDEST PUSH1 0x0 PUSH1 0x20 DUP3 ADD SWAP1 POP DUP2 DUP2 SUB PUSH1 0x0 DUP4 ADD MSTORE PUSH2 0x1228 DUP2 PUSH2 0x11EC JUMP JUMPDEST SWAP1 POP SWAP2 SWAP1 POP JUMP JUMPDEST PUSH32 0x44617461206465206162657274757261206461732070726F706F737461732070 PUSH1 0x0 DUP3 ADD MSTORE PUSH32 0x75626C696361646F2061696E6461206E616F20636865676F7500000000000000 PUSH1 0x20 DUP3 ADD MSTORE POP JUMP JUMPDEST PUSH1 0x0 PUSH2 0x128B PUSH1 0x39 DUP4 PUSH2 0xD20 JUMP JUMPDEST SWAP2 POP PUSH2 0x1296 DUP3 PUSH2 0x122F JUMP JUMPDEST PUSH1 0x40 DUP3 ADD SWAP1 POP SWAP2 SWAP1 POP JUMP JUMPDEST PUSH1 0x0 PUSH1 0x20 DUP3 ADD SWAP1 POP DUP2 DUP2 SUB PUSH1 0x0 DUP4 ADD MSTORE PUSH2 0x12BA DUP2 PUSH2 0x127E JUMP JUMPDEST SWAP1 POP SWAP2 SWAP1 POP JUMP JUMPDEST PUSH32 0x4162657274757261206461732070726F706F737461732061696E6461206E616F PUSH1 0x0 DUP3 ADD MSTORE PUSH32 0x207265616C697A61646100000000000000000000000000000000000000000000 PUSH1 0x20 DUP3 ADD MSTORE POP JUMP JUMPDEST PUSH1 0x0 PUSH2 0x131D PUSH1 0x2A DUP4 PUSH2 0xD20 JUMP JUMPDEST SWAP2 POP PUSH2 0x1328 DUP3 PUSH2 0x12C1 JUMP JUMPDEST PUSH1 0x40 DUP3 ADD SWAP1 POP SWAP2 SWAP1 POP JUMP JUMPDEST PUSH1 0x0 PUSH1 0x20 DUP3 ADD SWAP1 POP DUP2 DUP2 SUB PUSH1 0x0 DUP4 ADD MSTORE PUSH2 0x134C DUP2 PUSH2 0x1310 JUMP JUMPDEST SWAP1 POP SWAP2 SWAP1 POP JUMP JUMPDEST PUSH32 0x4E616F206861206E656E68756D206C69636974616E7465207061726120657374 PUSH1 0x0 DUP3 ADD MSTORE PUSH32 0x61206C696369746163616F000000000000000000000000000000000000000000 PUSH1 0x20 DUP3 ADD MSTORE POP JUMP JUMPDEST PUSH1 0x0 PUSH2 0x13AF PUSH1 0x2B DUP4 PUSH2 0xD20 JUMP JUMPDEST SWAP2 POP PUSH2 0x13BA DUP3 PUSH2 0x1353 JUMP JUMPDEST PUSH1 0x40 DUP3 ADD SWAP1 POP SWAP2 SWAP1 POP JUMP JUMPDEST PUSH1 0x0 PUSH1 0x20 DUP3 ADD SWAP1 POP DUP2 DUP2 SUB PUSH1 0x0 DUP4 ADD MSTORE PUSH2 0x13DE DUP2 PUSH2 0x13A2 JUMP JUMPDEST SWAP1 POP SWAP2 SWAP1 POP JUMP INVALID LOG2 PUSH5 0x6970667358 0x22 SLT KECCAK256 DUP16 0x4E REVERT RETURNDATACOPY JUMP SAR 0xED REVERT 0x25 0xE0 PUSH15 0x38980E1920D375CF08F3E868764DD7 SUB 0xCE SWAP6 0xAB 0xC2 0xDC PUSH5 0x736F6C6343 STOP ADDMOD GT STOP CALLER "},"gasEstimates":{"creation":{"codeDepositCost":"1029400","executionCost":"infinite","totalCost":"infinite"},"external":{"abrirPropostas()":"28814","dataAberturaPropostas()":"2517","dataEntregaPropostas()":"2451","dataPublicacao()":"2474","getInfo()":"infinite","identificacao()":"infinite","item()":"infinite","licitantes(uint256)":"infinite","orgao()":"2580","processo()":"infinite","propor(uint256)":"infinite","propostasAbertas()":"2491","vencedor()":"15689"}},"methodIdentifiers":{"abrirPropostas()":"8ac49914","dataAberturaPropostas()":"f6c3a974","dataEntregaPropostas()":"f0dd3eac","dataPublicacao()":"af16e3ea","getInfo()":"5a9b0b89","identificacao()":"6d68a7aa","item()":"f2a4a82e","licitantes(uint256)":"012e0d44","orgao()":"f2da0020","processo()":"da9968af","propor(uint256)":"169637a3","propostasAbertas()":"15d8ae50","vencedor()":"9974da36"}},"storageLayout":{"storage":[{"astId":80,"contract":"Licitacao.sol:Licitacao","label":"propostasAbertas","offset":0,"slot":"0","type":"t_bool"},{"astId":82,"contract":"Licitacao.sol:Licitacao","label":"dataPublicacao","offset":0,"slot":"1","type":"t_uint256"},{"astId":84,"contract":"Licitacao.sol:Licitacao","label":"dataEntregaPropostas","offset":0,"slot":"2","type":"t_uint256"},{"astId":86,"contract":"Licitacao.sol:Licitacao","label":"dataAberturaPropostas","offset":0,"slot":"3","type":"t_uint256"},{"astId":88,"contract":"Licitacao.sol:Licitacao","label":"orgao","offset":0,"slot":"4","type":"t_address"},{"astId":90,"contract":"Licitacao.sol:Licitacao","label":"identificacao","offset":0,"slot":"5","type":"t_string_storage"},{"astId":92,"contract":"Licitacao.sol:Licitacao","label":"processo","offset":0,"slot":"6","type":"t_string_storage"},{"astId":95,"contract":"Licitacao.sol:Licitacao","label":"item","offset":0,"slot":"7","type":"t_struct(Item)8_storage"},{"astId":99,"contract":"Licitacao.sol:Licitacao","label":"licitantes","offset":0,"slot":"10","type":"t_array(t_struct(Licitante)78_storage)dyn_storage"},{"astId":101,"contract":"Licitacao.sol:Licitacao","label":"vencedorIndex","offset":0,"slot":"11","type":"t_uint256"}],"types":{"t_address":{"encoding":"inplace","label":"address","numberOfBytes":"20"},"t_array(t_struct(Licitante)78_storage)dyn_storage":{"base":"t_struct(Licitante)78_storage","encoding":"dynamic_array","label":"struct Licitacao.Licitante[]","numberOfBytes":"32"},"t_bool":{"encoding":"inplace","label":"bool","numberOfBytes":"1"},"t_string_storage":{"encoding":"bytes","label":"string","numberOfBytes":"32"},"t_struct(Item)8_storage":{"encoding":"inplace","label":"struct Item","members":[{"astId":3,"contract":"Licitacao.sol:Licitacao","label":"descricao","offset":0,"slot":"0","type":"t_string_storage"},{"astId":5,"contract":"Licitacao.sol:Licitacao","label":"compl","offset":0,"slot":"1","type":"t_string_storage"},{"astId":7,"contract":"Licitacao.sol:Licitacao","label":"quantidade","offset":0,"slot":"2","type":"t_uint16"}],"numberOfBytes":"96"},"t_struct(Licitante)78_storage":{"encoding":"inplace","label":"struct Licitacao.Licitante","members":[{"astId":75,"contract":"Licitacao.sol:Licitacao","label":"endereco","offset":0,"slot":"0","type":"t_address"},{"astId":77,"contract":"Licitacao.sol:Licitacao","label":"valor","offset":0,"slot":"1","type":"t_uint256"}],"numberOfBytes":"64"},"t_uint16":{"encoding":"inplace","label":"uint16","numberOfBytes":"2"},"t_uint256":{"encoding":"inplace","label":"uint256","numberOfBytes":"32"}}},"userdoc":{"kind":"user","methods":{},"version":1}}